:020000040800F2
:10000000F844002059020008C32E000853210008BC
:10001000C12E0008AD0400083D37000800000000B4
:100020000000000000000000000000009D0100082A
:10003000BF05000800000000F1010008D92F0008EA
:1000400073020008730200087302000873020008BC
:1000500073020008730200087302000873020008AC
:10006000730200087302000873020008730200089C
:10007000B104000873020008E504000873020008D8
:100080007302000873020008650300087302000889
:10009000730200087302000873020008730200086C
:1000A00073020008ED3000087302000873020008B4
:1000B000730200087302000873020008612100083F
:1000C000552100087302000873020008730200083B
:1000D000730200087302000819370008253700086A
:1000E000730200087302000873020008730200081C
:1000F000730200087302000873020008730200080C
:1001000073020008730200087302000873020008FB
:100110007302000873020008F93000087302000837
:1001200073020008730200087302000873020008DB
:1001300073020008730200087302000873020008CB
:1001400073020008730200087302000873020008BB
:1001500073020008730200087302000873020008AB
:10016000730200087302000873020008730200089B
:100170007302000873020008730200080000000008
:100180007302000873020008DFF80CD000F0D8F802
:10019000004800475F370008F84400202B4B1968DF
:1001A0000868B0E8F04F80F30988BFF36F8F4FF015
:1001B000000080F3118870470000000006480068C6
:1001C000006880F3088862B661B6BFF34F8FBFF353
:1001D0006F8F00DF00BF00BF08ED00E0DFF80C000C
:1001E000016841F470010160704700BF88ED00E0D4
:1001F000EFF30980BFF36F8F144B1A681EF0100FD6
:1002000008BF20ED108A20E9F04F106008B44FF0CD
:10021000040080F31188BFF34F8FBFF36F8F03F09B
:100220008FFF4FF0000080F3118808BC1968086840
:10023000B0E8F04F1EF0100F08BFB0EC108A80F34A
:100240000988BFF36F8F704700BF00BF24000020F4
:10025000EFF30580704700000648804706480047D6
:10026000FEE7FEE7FEE7FEE7FEE7FEE7FEE7FEE766
:10027000FEE7FEE799300008890100082DE9F05FEC
:100280000546002092469B46884606468146402405
:100290001BE0284641464746224600F041F85346B7
:1002A0005A46C01A914110D311461846224600F012
:1002B00028F82D1A67EB01084F462246012000213D
:1002C00000F01FF817EB00094E41201EA4F10104B5
:1002D000DFDC484631462A464346BDE8F09F40EA07
:1002E00001039B0703D009E008C9121F08C0042AB4
:1002F000FAD203E011F8013B00F8013B521EF9D29B
:100300007047202A04DB203A00FA02F100207047EF
:100310009140C2F1200320FA03F319439040704743
:10032000202A04DB203A21FA02F00021704721FA4A
:1003300002F3D040C2F120029140084319467047B1
:10034000064C074D06E0E06840F0010394E8070022
:1003500098471034AC42F6D3FFF71AFF284B000839
:10036000484B000810B5044800F0DAF9BDE8104029
:10037000024800F0D5B90000D83F002020400020FE
:1003800049494A6822F440324A604A6843681A433D
:100390004A6001684A6822F480724A6001684A68CB
:1003A000036942EA03224A6001684A6822F0407207
:1003B0004A6001684A6883681A434A6001688A682B
:1003C00022F400628A6001688A68C3681A438A60FE
:1003D000816A6FF07062D14214D001688A6822F09D
:1003E00070628A6001688A68836A1A438A60016859
:1003F0008A6822F040528A6001688A68C36A1A4398
:100400008A6009E001688A6822F070628A60016887
:100410008A6822F040528A6001688A6822F00202EB
:100420008A6001688A68836942EA43028A60016AD5
:1004300089B101684A6842F400624A6001684A680A
:1004400022F460424A6001684B68426A521E43EAE5
:1004500042324A6004E001684A6822F400624A605D
:100460000168CA6A22F47002CA620168CB6A828B90
:10047000521E43EA0252CA6201688A6822F400727C
:100480008A6001688A68036B42EA43228A600168D5
:100490008A6822F480628A6001688A68406942EA58
:1004A000802088607047000000230140FEE70000C4
:1004B00010B5084800244460074800F0D3FA074804
:1004C0008470074803490068BDE81040091D04F026
:1004D000CBB8000060000020B03E0020A440002007
:1004E00078000020014800F0BDBA0000103F002055
:1004F0000168CAB2103A1823B2FBF3F2064B9B5CB8
:10050000C3656FF30901032A02D9091D816500E063
:100510008165806D70470000FC4A000810B50146F7
:1005200000208A6A8B694FF0C074002B0ED0B3F59F
:10053000005F1AD062B3012A2AD0022A28D0032AE7
:1005400003D1C96AC90100D5012010BD1AB1012A21
:1005500006D0022AF9D1C96AC901F6D5012010BD19
:10056000C96AA142FBD1012010BD52B1012A0AD0B3
:10057000022A06D0032AF7D1C96AA142F4D1012088
:1005800010BD012010BDC96AC901FBD5012010BDF5
:10059000012010BD30B50468256825F4802525604C
:1005A000046863608368402B04D003689960006826
:1005B000C26030BD03689A600068C16030BD70479A
:1005C0007047000078B50024009490F83C20012A80
:1005D00019D0012280F83C200A680725092A14D97D
:1005E0000368DE680A3A02EB42029540AE43DE60E1
:1005F0000A788B680A3A02EB420293400268D56897
:100600002B43D36011E0022078BD03681E6902EB22
:1006100042029540AE431E610A788B6802EB4202AB
:100620009340026815692B4313614A681F25072A06
:1006300013D203685E6B521E02EB82029540AE43FA
:100640005E630A8893B20A79521E02EB82029340DB
:100650000268556B2B43536328E00D2A13D20368BD
:100660001E6BD21F02EB82029540AE431E630A88C6
:1006700093B20A79D21F02EB820293400268156B93
:100680002B43136312E00368DE6A0D3A02EB820229
:100690009540AE43DE620A8893B20A790D3A02EBC6
:1006A000820293400268D56A2B43D362174A184BE3
:1006B00005689D4206D10D68122D03D1556845F499
:1006C0008005556005689D421BD10B68102B01D039
:1006D000112B16D1536843F40003536009681029A5
:1006E0000FD10C490C4A0968B1FBF2F101EB810111
:1006F0004900009102E00099491E009100990029EB
:10070000F9D180F83C40002078BD00000023014072
:10071000002001407C00002040420F0070477047DD
:1007200070B5044620680168C1F340014268C2F315
:10073000401200292AD04AB3216CC90603D4216C87
:1007400041F400712164816811F0405F17D1A16903
:10075000A9B9C16A11F4700F02D0816849050ED49D
:10076000416821F020014160206C20F480702064F9
:10077000206CC00403D4206C40F0010020642046AB
:10078000FFF7CCFF21686FF0120008602068016855
:10079000C1F380014268C2F3C01289B382B3216CF5
:1007A000C90603D4216C41F400512164816811F41D
:1007B000401F1ED1816B11F4401F02D08168490592
:1007C00017D44168490514D4816811F0405F10D1F5
:1007D000A16971B9416821F080014160206C20F469
:1007E00080502064206CC00503D4206C40F00100D0
:1007F00020642046FFF7E4FE21686FF00C000860DB
:1008000020680168C1F300014268C2F3801271B12F
:100810006AB10068C0070AD0206C40F480302064C0
:10082000204600F046F821686FF00100086020685B
:100830000168C1F340114268C2F3806200290DD003
:10084000002A0BD0616C41F0020161646FF0200559
:1008500005602046FFF763FF2068056070BD70B536
:1008600004460026002C03D0206C002510B107E0C0
:10087000012070BD656484F83C50204600F01AF8F1
:10088000206CC00610D4206C20F4885040F0020088
:1008900020642046FFF774FD6564206C20F00200A0
:1008A00040F00100206400E0012684F83C5030460E
:1008B00070BD704730B587B0154D01680023154AEB
:1008C00003241548A94210D1116841F480711160C8
:1008D000116801F480710191402102910394049305
:1008E00002A900F04DFA07B030BD0C4DA942FAD173
:1008F000116841F400711160116801F400710191F7
:10090000802102910394049302A900F039FAEAE7E6
:100910000020014044380240000002400021014014
:10092000704770B54379012B1AD001264671022316
:10093000037103681D6840F6FE749440A543D1E935
:1009400000410C4394402C431C6001680B68C02498
:100950009440A3430B60067100214171002070BDDB
:10096000022070BD704770B504462068416B4FF09F
:10097000040589040ED52571216941F00101216129
:10098000E90241632068016821F48051016020463A
:10099000FFF7E8FF2068416B890011D525712169B7
:1009A00041F0020121614FF000514163206801686C
:1009B00021F0805101602046BDE87040FFF7B0BFD4
:1009C00070BD70B50446002C03D02079002510B10D
:1009D00005E0012070BD6571204600F007F8022097
:1009E0002071256101202071002070BD00B587B005
:1009F0000068104988421AD100210F48026842F06D
:100A000000520260006800F0005001902020029027
:100A100003200390049102A9084800F0B1F90022D4
:100A20000F21362000F0FEFC362000F0EFFC07B06E
:100A300000BD000000740040403802400000024049
:100A400090F83510022903D08021416501207047BC
:100A5000052180F835100068016821F0010101606E
:100A6000002070472DE9F84304464FF00009CDF807
:100A700000906F484FF416510068B0FBF1F7A56D78
:100A80002E6894F85C00082202FA00F1314210D07E
:100A90002068016849070CD5016821F00401016054
:100AA00094F85C0002FA00F1A960606D40F001006A
:100AB000606594F85C104FF0010808FA01F03042CC
:100AC00008D021684969090604D5A860606D40F026
:100AD0000200606594F85C1004208840304208D021
:100AE00021680968890704D5A860606D40F004009A
:100AF000606594F85C1010208840304220D0216856
:100B0000096809071CD5A8602068016849030CD54D
:100B10000068000304D4216C91B1204688470FE09F
:100B2000A16C69B1204688470AE00168C90503D471
:100B3000016821F008010160216C09B12046884755
:100B400094F85C102020884030424CD0216809681D
:100B5000C90648D5A86094F8350005280BD0206850
:100B60000168490330D50068000328D4616C51B393
:100B70002046884737E02068016821F016010160AF
:100B80002068416921F080014161206C08B9A06CA6
:100B900020B12068016821F00801016094F85C1020
:100BA0003F208840A86084F8349084F83580216D17
:100BB00000293BD001B02046BDE8F0430847E16B77
:100BC00009B1204688470EE00168C90507D40168CD
:100BD00021F01001016084F8349084F83580E16BD5
:100BE00009B120468847606D00281FD0606DC0079E
:100BF00014D0052084F835002068016821F0010137
:100C000001600098401C0090B84203D8206800683A
:100C1000C007F6D184F8349084F83580E16C00295F
:100C200004D001B02046BDE8F0430847BDE8F88392
:100C30007C0000202DE9F041044600F08FF90546C4
:100C40005CB1002684F83460022084F83500206806
:100C5000016821F0010101600DE00120BDE8F08193
:100C600000F07CF9401B052805D920206065032091
:100C700084F83500F2E720680068C007F0D12168E9
:100C80000A6820480240D4E901031843D4E9033537
:100C90002B43184363691843A3691843E369184356
:100CA000236A18431043626A042A03D1D4E90B2350
:100CB0001A43104308602068406920F00700656A05
:100CC00029460543012704290DD1A06A0543E06A9E
:100CD00048B12046FFF722FC28B14020606584F827
:100CE00035700120BAE7206845612046FFF700FC17
:100CF00094F85C203F2191408160666584F83570EE
:100D00000020ABE73F8010F02DE9F04104460025BC
:100D1000A66D94F8340001280DD0012084F8340029
:100D200094F835700020012F07D084F83400022594
:100D30002846BDE8F0810220FBE7022784F83570E1
:100D400060652046FFF726FC94F85C103F20884041
:100D5000B0602068016841F01601016020684169B7
:100D600041F080014161206C20B12068016841F0B0
:100D7000080101602068016841F001010160D7E7C6
:100D80002DE9F84F0022DFF89091DFF88C8109F10E
:100D900008094FF0010E4FF00F0C09F1040A0EFA8A
:100DA00002F60B683340B34271D14C68022C01D07B
:100DB000122C11D1D40800EB84073D6A5407E40ECD
:100DC0000CFA04FB25EA0B05D1F810B00BFA04FB72
:100DD0004BEA050BC7F820B0076854000325A5406F
:100DE000AF4391F804B00BF0030B0BFA04FB4BEA92
:100DF000070BC0F800B04F68012F05D0022F03D0B9
:100E0000112F01D0122F11D18768AF43D1F80CB048
:100E10000BFA04FB4BEA070BC0F808B04768B7436E
:100E20000E79C6F3001696403E434660C668AE4350
:100E30008D68A5403543C5604C68E40065D5374CE6
:100E4000256845F480452560246804F480440094B6
:100E5000334C22F003052544D5F808789407260F73
:100E60000CFA06F4A7432F4CA04201D1002424E041
:100E70002D4CA04201D101241FE02C4CA04201D1F5
:100E800002241AE02A4CA04202D1032415E03CE0DF
:100E9000284CA04201D104240FE0274CA04201D1EC
:100EA00005240AE0254CA04201D1062405E0244C8B
:100EB000A04201D1072400E00824B4403C43C5F817
:100EC0000848D8F800409C434D68ED0300D51C430A
:100ED000C8F80040104D2D1D2C689C434E68B60389
:100EE00000D51C432C60D9F800409C434D68ED02AE
:100EF00000D51C43C9F80040DAF800409C434D6817
:100F0000AD0200D51C43CAF80040521C102AFFF461
:100F100046AFBDE8F88F0000003C01404438024075
:100F2000003001400000024000040240000802407E
:100F3000000C024000100240001402400018024061
:100F4000001C024042694A4042617047002A01D0B9
:100F50008161704709048161704700000148806821
:100F600070470000800000207047704770B504464D
:100F70002068456946682D490D4208D0F10506D51F
:100F8000216C41F0010121646FF48071416115F41D
:100F9000813F09D0F00507D5206C40F002002064A5
:100FA00021686FF40070486115F4823F28D0F00585
:100FB00026D594F83E10628D94F83D00236B2029CD
:100FC00008D13AB921280ED029280CD0282801D1DF
:100FD000212B08D0206C40F00400206494F83E00DF
:100FE000102804D008E0204601F078FC08E02068D2
:100FF000016841F40071016021686FF4806048610C
:1010000015F4843F09D0F00507D5206C40F00800A6
:10101000206421686FF400604861206C002804D0CF
:101020002046BDE8704001F0CDB870BD0001010060
:101030002DE9F05F8046D8F800008769446945686B
:1010400098F83E004C49DFF830A1DFF82CB1DFF80A
:101050002C918E1C0AF17E0A0BF13E0B10280AD04F
:10106000402808D00C424DD0A8054BD54046BDE8DD
:10107000F05F01F01DBC14F0011F05D0A80503D5D9
:10108000404601F076FB10E03B48801D044205D04D
:10109000A80503D5404601F0BCFA06E00C4204D096
:1010A000A80502D5404601F0BAFA17EA090F14D094
:1010B00014EA0A0F08D0680506D5344204D1404628
:1010C000BDE8F05F01F00EBA344253D0A80551D507
:1010D0004046BDE8F05F01F0C0B914EA0B0F08D03C
:1010E000680506D5344204D14046BDE8F05F01F002
:1010F00070B934423ED0A8053CD54046BDE8F05F0B
:1011000001F0F4B81C480E30044206D0A80504D5FE
:101110004046BDE8F05F01F023BC17EA090F14D088
:1011200014EA0A0F08D0680506D5344204D14046B7
:10113000BDE8F05F01F09BBB34421BD0A80519D578
:101140004046BDE8F05F01F084BB14EA0B0F08D005
:10115000680506D5344204D14046BDE8F05F01F091
:1011600057BB344206D0A80504D54046BDE8F05F21
:1011700001F040BBBDE8F09F020001000400100038
:101180007047000070B50446002C04D094F83D0070
:10119000002510B106E0012070BD84F83C502046C7
:1011A00000F07CF8242084F83D002068016821F0DC
:1011B0000101016000F036FA3349B0FBF1F1226819
:1011C0005160324A6368934201D8491C07E04FF4EA
:1011D000967359434FF47A73B1FBF3F1491C2368BA
:1011E0001962616891420BD84900B0FBF1F2C2F379
:1011F0000B02042A01D2042019E0B0FBF1F016E042
:10120000A2689AB301EBC10303EB0113B0FBF3F344
:1012100043F480431B0530D04AB301EBC10202EB1B
:101220000111B0FBF1F040F4804040F4004021682F
:10123000C861D4E90701084321680860D4E90310B4
:10124000084321688860D4E9050108432168C86023
:101250002068016841F0010101602564202084F8C4
:101260003D00256384F83E50002070BD00E006E09C
:1012700001EB4103B0FBF3F3CCE70120D7E701EB2F
:101280004101B0FBF1F0D0E740420F00A086010021
:1012900070477047704770477047000000B587B0CF
:1012A0000068124988421ED1C0200290122003908B
:1012B00001200490032005900420069002A90C4808
:1012C000FFF75EFD0B48016841F400110160006802
:1012D00000F40010019000220F21202000F0A2F85D
:1012E000202000F093F807B000BD0000005400403B
:1012F000000402404038024070477047024881684D
:1013000002781144816070478000002010B50B48BE
:10131000016841F400710160016841F4806101607D
:10132000016841F480710160032000F09BF8002007
:1013300000F006F800F03EF8002010BD003C02402E
:1013400010B588B001460022192000F06BF8192072
:1013500000F05CF800241348016841F001010160CD
:10136000006800F00100019002A903A800F036F91E
:1013700000F068F940000C49B0FBF1F1491E0C483F
:101380000A4A026040F2E732C26041600461846050
:1013900000F096FB10B1012008B010BD044800F029
:1013A000ACFBF9E74438024040420F000000014026
:1013B0006840002010B5032000F054F800221146C8
:1013C0006FF00B0000F02EF8002211466FF00A00BB
:1013D00000F028F8002211466FF0090000F022F812
:1013E00000221146501F00F01DF800221146101F68
:1013F00000F018F800220F21901E00F013F80022D0
:101400000F21BDE81040501E00F00CB800F01F0284
:10141000012191404009800000F1E020C0F8001156
:1014200070470000F0B40D460D4B1B68C3F3022358
:10143000C3F10704042C00D90424191D072901D283
:10144000002300E0DB1E012606FA04F1491E2940B4
:1014500099409E40761E16403143F0BC01F033BDEA
:101460000CED00E000F00701054A10684FF6FF039D
:10147000184040EA0120034908431060704700000B
:101480000CED00E00000FA05704700002DE9F04780
:1014900004460D46002C13D0DFF82491D9F8000043
:1014A000EFB200F00F00A8420CD289F80070D9F812
:1014B000000000F00F00A84204D00120BDE8F08732
:1014C0000120FBE720683F4E810712D5400703D576
:1014D000306840F4E05030602078000703D5306871
:1014E00040F4604030603068A16820F0F0000843AC
:1014F00030602078C00731D032496068083901284F
:1015000008D002280BD0032809D0096889070BD41A
:101510000120D3E70968890306D40120CEE70968D2
:10152000890101D40120C9E7316821F00301014399
:101530003160FFF713FD804641F2883A07E0FFF77C
:101540000DFDA0EB0800504501D90320B6E7306837
:10155000616800F00C00B0EB810FF0D1D9F8000009
:1015600000F00F00A84209D989F80070D9F80000EE
:1015700000F00F00A84201D001209FE7207840072B
:1015800005D53068E16820F4E050084330602078E9
:10159000000706D53068216920F4604040EAC100A8
:1015A000306000F05FF83168074AC1F30311515C05
:1015B000C840064908600020FFF7C2FE00207DE712
:1015C000003C024008380240E44A00087C00002049
:1015D00001490120C8647047000047420F220260A1
:1015E0000B4A136803F003034360136803F0F0032E
:1015F0008360136803F4E053C360126802F460422E
:10160000D20802610348006800F00F0008607047CC
:1016100008380240003C0240014800687047000062
:101620007C00002000B5FFF7F7FF04490968044A71
:10163000C1F38221515CC84000BD0000083802405F
:10164000F44A000800B5FFF7E7FF04490968044AB7
:10165000C1F34231515CC84000BD0000083802406F
:10166000F44A000810B51748006810F00C0116483D
:1016700016D04310042912D0082911D1114C241F6F
:10168000216801F03F02216849020AD52068C0F3B1
:101690008810A0FB03010023FEF7F0FD09E01846C7
:1016A00010BD21680023C1F38811A1FB0001FEF7E2
:1016B000E5FD2168C1F30141491C4900B0FBF1F08F
:1016C00010BD0000083802400024F40010B50548A1
:1016D0000068000605D5FFF7D7FE02498020891C67
:1016E000087010BD0C3802402DE9F84F0446002C5C
:1016F00010D02078DC4DC00757D0DB480830016897
:10170000C1F3810101290DD00068C0F381000228D6
:1017100003D00EE00120BDE8F88FD348001D00681B
:10172000400206D5286880033FD5606870BB012061
:10173000F1E76068B0F5803F10D0B0F5A02F12D06F
:10174000286820F480302860286820F480202860F1
:101750006068E0B1FFF702FC064614E0286840F438
:1017600080302860F4E7286840F4802028602868EA
:1017700040F480302860EBE7FFF7F0FB801B642823
:1017800001D90320C7E728688003F5D50DE0FFF7EE
:10179000E5FB064606E0FFF7E1FB801B642801D964
:1017A0000320B8E728688003F5D42078AF4F80077E
:1017B0004FF0000849D5AC480830016811F00C0F13
:1017C00009D00068C0F38100022814D1A648001D8A
:1017D000006840020FD42868800704D5E06801281B
:1017E00001D0012097E72868216920F0F80040EA3D
:1017F000C100286029E0E068B8B101203860FFF737
:10180000ADFB064606E0FFF7A9FB801B022801D9C5
:10181000032080E728688007F5D52868216920F033
:10182000F80040EAC10028600FE0C7F80080FFF729
:1018300095FB064606E0FFF791FB801B022801D9C5
:10184000032068E728688007F5D42078000729D5A9
:10185000DFF814928648616909F1740989B10121A0
:101860000160FFF77BFB064606E0FFF777FB801B76
:10187000022801D903204EE7D9F800008007F4D5EB
:1018800010E0C0F80080FFF769FB064606E0FFF7AE
:1018900065FB801B022801D903203CE7D9F8000032
:1018A0008007F4D42078400772D50026DFF8B8A16D
:1018B0000AF1400ADAF80000C0000BD4DAF80000A0
:1018C00040F08050CAF80000DAF8000000F08050C4
:1018D00000900126DFF89CB1DBF80000C00515D4AC
:1018E000DBF8000040F48070CBF80000FFF736FB17
:1018F000814607E0FFF732FBA0EB0900022801D97F
:10190000032008E7DBF80000C005F3D5DFF858B185
:10191000A0680BF1700B012813D0052818D0DBF854
:10192000000020F00100CBF80000DBF8000020F000
:101930000400CBF80000A06830B3FFF70FFB81462E
:101940001DE0DBF8000040F00100CBF80000F2E7FA
:10195000DBF8000040F00400CBF80000DBF80000EA
:1019600040F00100CBF80000E5E7FFF7F7FAA0EB45
:10197000090141F28830814201D90320CBE6DBF82E
:1019800000008007F1D512E0FFF7E8FA81460AE08F
:1019900015E0FFF7E3FAA0EB090141F2883081423C
:1019A00001D90320B7E6DBF800008007F1D4012E4F
:1019B00005D1DAF8000020F08050CAF80000A069D4
:1019C000C0B3294908310968C1F38101022949D00E
:1019D000022805D0C7F86080FFF7C0FA04463CE053
:1019E000C7F86080FFF7BAFA064606E0FFF7B6FAD6
:1019F000801B022801D903208DE628688001F5D4D8
:101A0000D4E907010843616AA26A4FF0FF338901F4
:101A100003EB520241EA0241084394F82C1040EAD9
:101A200001611148001D016001203866FFF796FA38
:101A3000044607E014E0FFF791FA001B022801D9E1
:101A4000032068E628688001F5D509E0FFF786FAEB
:101A5000001B022801D903205DE628688001F5D427
:101A6000002058E6012056E60038024000004742B8
:101A7000800E4742007000404FF0E021042804D05F
:101A8000086920F0040008617047086940F004000C
:101A90000861704710B5401EB0F1807F01D301206E
:101AA00010BD4FF0E02460610F21601701F00BFAC8
:101AB0000020A06107202061002010BD7047704702
:101AC00010B50446002C03D094F8390010B107E09B
:101AD000012010BD002084F83800204600F00CF8EA
:101AE000022084F83900211D206801F00BFB012041
:101AF00084F83900002010BD70470168CA6842F0C0
:101B00000102CA600068016841F001010160002023
:101B10007047704770B50446206801694FF00005B2
:101B2000C943890716D4C168C943890712D4E91E7D
:101B300001610120207620688069800703D020465B
:101B4000FFF7E7FF05E0204600F09BF8204600F095
:101B500099F8257620680169C943490718D4C168F6
:101B6000C943490714D46FF00401016102202076B3
:101B70002068806910F4407F03D02046FFF7C9FF3A
:101B800005E0204600F07DF8204600F07BF8257641
:101B900020680169C943090717D4C168C943090707
:101BA00013D46FF008010161042020762068C06919
:101BB000800703D02046FFF7ACFF05E0204600F089
:101BC00060F8204600F05EF8257620680169C94378
:101BD000C90618D4C168C943C90614D46FF01001EE
:101BE0000161082020762068C06910F4407F03D08E
:101BF0002046FFF78EFF05E0204600F042F8204621
:101C000000F040F8257620680169C943C90708D16A
:101C1000C168C943C90704D1891E0161204600F08B
:101C200033F820680169C943090609D4C168C9436A
:101C3000090605D46FF0800101612046FFF73EFFE1
:101C400020680169C943490609D4C168C9434906E6
:101C500005D46FF040010161204600F01FF82068B4
:101C60000169C94389060BD4C168C943890607D4F1
:101C70006FF0200101612046BDE87040FFF71FBFF3
:101C800070BD70477047000000680349884201D169
:101C9000FFF734BB704700000000014070477047F9
:101CA00070B5044601252068C16821F4F071C16057
:101CB0002068416921F001014161206B0026002864
:101CC00007D021684969090602D52049016500E06D
:101CD0000665606B38B121684969490602D51C491F
:101CE000016500E006652068416909060CD5416977
:101CF00021F080014161206B30B1FEF7A1FE10B1EF
:101D0000206B066500E000252068416949060DD575
:101D1000416921F040014161606B38B1FEF790FEEE
:101D200018B1606B0665012500E00025012D0AD180
:101D3000E684E685E663202084F8390084F83A00DA
:101D40002046FFF7ACFF002070BD00009532000870
:101D50005F3200087047000070B5044622681068C2
:101D6000D168526900F00F03002B08D1850606D513
:101D70008D0604D52046BDE8704001F0C5BA002BA1
:101D80005FD002F0010301F490752B4359D0C307D3
:101D900005D0CB0503D5E36B43F00103E3634307B1
:101DA00005D5D30703D0E36B43F00203E363830756
:101DB00005D5D30703D0E36B43F00403E3630307C4
:101DC00005D5D20703D0E26B42F00802E263E26B72
:101DD000002A2BD0800604D5880602D5204601F0C3
:101DE00093FA20684069C0F38010E16B01F00801AC
:101DF000014320D0204601F063FA2068416949067A
:101E000015D5416921F040014161606B58B1164917
:101E10000165606BFEF714FE002807D0606B016D52
:101E2000BDE8704008472046FFF794FF70BD20468C
:101E3000FFF790FF70BD2046FFF78CFF0020E063A6
:101E400070BD020606D50A0604D52046BDE87040DE
:101E500001F02EBC4006F3D54806F1D52046BDE87A
:101E6000704001F03BBA0000C931000870B504466B
:101E7000002C04D094F83900002510B106E00120B0
:101E800070BD84F83850204600F022F8242084F8F1
:101E900039002068C16821F40051C160204601F07A
:101EA0007DFA2068016921F490410161206841694F
:101EB00021F02A0141612068C16841F40051C160EC
:101EC000E563202084F8390084F83A00002070BDD2
:101ED0002DE9F04387B00546DFF8FCC028683F498C
:101EE0000222012303240727002660451CD108682D
:101EF00040F400300860086800F4003001900C20C5
:101F00000290039204930594069702A93448FEF7C1
:101F100037FF00220F212620FFF784FA2620FFF743
:101F200075FA07B0BDE8F083DFF8B8C06045F8D1B6
:101F3000086840F480200860086800F48020019060
:101F40004FF440600290039204930594069702A90F
:101F50002548FEF715FF264C244820604FF0006905
:101F6000C4F80490A660E660071527616661A66163
:101F7000E6614FF40038C4F8208066622046FEF720
:101F800059FE18B1A7211BA001F0D9FB6C63A56312
:101F90001648174C303060342060C4F8049040205C
:101FA000A060E66027616661A661E661C4F82080F2
:101FB00066622046FEF73EFE18B1B9210DA001F081
:101FC000BEFB2C63A56300220F212720FFF72AFA0E
:101FD0002720FFF71BFAA4E70044004040380240E6
:101FE0000000024000480040000802402860024013
:101FF000B03E00202E2E2F5372632F7573617274C2
:102000002E63000037B582B00446134694F83A00B8
:10201000202802D0022005B030BD039AA2B39BB3A2
:1020200094F83800012832D0012084F83800A262E8
:10203000A3850025E563222084F83A00616B1548EA
:10204000C863616B14480864616B1448C864606BB2
:1020500005652168606B091DFEF756FE2068016862
:102060004168019184F83850C16841F48071C160C1
:102070002068416941F0010141612068416941F0F6
:10208000400141610020C6E7FFE70120C3E70220CD
:10209000C1E70000233200088B320008D931000864
:1020A00090F83A30202B01D002207047D1B1CAB14C
:1020B00090F83830012B17D081628285C2850021CB
:1020C000C163222280F83A2080F8381001684A69FA
:1020D00042F001024A610068C16841F49071C16038
:1020E00000207047012070470220704770B50546F8
:1020F00028684068C1B2134B00241A78002A14D013
:102100000220012A16D0022A13D10F4E32788A42B9
:1021100016D11C70B0702846FFF7C2FD0422F11CD6
:102120002846BDE87040FFF76DBF552901D1012059
:10213000187070BDAA2901D01C7070BD187070BDD8
:102140001C7070BD60000020A440002070477047E4
:102150007047FEE70148FEF709BF0000843F0020FA
:102160000148FEF765BF0000843F002010B5806B7A
:1021700001680A6822F480620A6000214185426B8E
:102180001165826B116590F83D302022602B0BD0D9
:1021900080F83D2080F83E1001680A6822F00102B4
:1021A0000A60FEF7EDFF10BD80F83D2080F83E107C
:1021B000016401680A6822F001020A60FEF7D4FE99
:1021C00010BD000070B5044694F83D10002620258F
:1021D000206829292FD02A292DD094F83D10602974
:1021E00004D04168090501D484F83D50266384F881
:1021F0003E60016821F400610160206841680905C2
:1022000039D5416821F400614160606B90F8352058
:102210003449012A14D00165606BFEF711FC48B304
:102220002068016821F00101016084F83D50606B75
:10223000016D88472FE02663282184F83D10D8E7F8
:10224000A06B0165A06BFEF7FBFB98B120684169AC
:10225000C943490604D40169606A421C6262017084
:102260002068016821F00101016084F83D50A06BF5
:10227000016D88470FE094F83D1060291DD0416939
:10228000C943490604D40169606A421C6262017054
:102290002046FEF775FF94F83D0028280CD1206CED
:1022A000400709D51048E062266384F83D5084F861
:1022B0003E602046FEF7ECFF70BD84F83D5026647A
:1022C0004169C943490604D40169606A421C6262DB
:1022D00001702068016821F0010101602046FEF7CD
:1022E00043FED8E76D2100080000FFFF10B5C26A69
:1022F000438D0168042B0FD0438D032B1AD0438DDF
:10230000022B2AD00A69416A4B1C43620A70418D34
:10231000491E4185002010BD4A6822F480624A604F
:1023200001680A69416A4B1C43620A70418D491E6B
:102330004185EFE74A6822F480624A6001680A68D2
:1023400022F480620A6001680A69416A4B1C436298
:102350000A70418D491E4185DCE7022A2AD0012AF4
:1023600028D00A6842F400720A6001680A69416A6A
:102370004B1C43620A70418D491E418501680A6900
:10238000416A4B1C43620A70418D491E41850168B8
:102390004A6822F440724A60202180F83D100021F2
:1023A000016390F83E20402A0ED080F83E10FEF7E0
:1023B00070FFAFE70A6822F480620A6001680A6869
:1023C00042F480720A60D0E780F83E10FEF763FFA7
:1023D000A0E710B590F83D10222937D1418D03298F
:1023E00011D901680A69416A4B1C43620A70418D28
:1023F000491E4185418D032928D10068416821F497
:102400008061416022E0012900D0F9B901680A68C1
:1024100022F480620A6001684A6822F4E0624A603D
:1024200001680A69416A4B1C43620A70418D491E6A
:102430004185202180F83D100021016390F83E2065
:10244000402A05D080F83E10FEF723FF002010BD83
:1024500080F83E10FEF71FFFF8E710B5C16A90F84C
:102460003D20212A37D1428D4AB1416A4A1C42623D
:10247000026809781161418D491E41852BE02023B6
:102480000022042912D0082910D011F5803F0DD068
:1024900001684C6824F4E0644C601121016380F809
:1024A0003E2080F83D30FEF7F5FE14E001684C68F0
:1024B00024F4E0644C6001680C6844F400740C601F
:1024C000026380F83D3090F83E10402905D080F836
:1024D0003E20FEF7DFFE002010BD80F83E20FEF714
:1024E000DBFEF8E710B590F83D1090F83E30C26A78
:1024F000048D002C01D1212904D0212936D0402B74
:1025000032D042E020240023042A12D0082A10D01E
:1025100012F5803F0DD001684A6822F4E0624A60FB
:102520001121016380F83E3080F83D40FEF7B2FE95
:102530002BE001684A6822F4E0624A6001680A6898
:1025400042F400720A60036380F83D4090F83E1048
:10255000402904D080F83E30FEF79CFE15E080F85C
:102560003E30FEF799FE10E022290ED1418D71B167
:1025700090F83E10402910D0416A4A1C426202681D
:1025800009781161418D491E4185002010BD006808
:10259000416821F480614160F7E7016DB9B1016DD7
:1025A000012928D0016D0229EFD190F83D10222990
:1025B00029D090F83D102129E7D1416A4A1C426296
:1025C000026809781161418D491E4185DDE7C16CC2
:1025D000012908D0816C0268C1F307211161016DE6
:1025E000491C0165D1E7816C0268C9B21161016DB6
:1025F000891C0165C9E7816C0268C9B21161016D6E
:10260000491C0165C1E70068016841F480710160FF
:10261000BBE7416C0068C9B201610020704778B522
:1026200090F83E40C26A056B90F83D600023016857
:10263000222E04D0486988690090002078BD066D7C
:102640000EB9402C02D0046D24B107E048698869B6
:102650000090F2E70469B4F5404F19D0448D14B3EB
:10266000448D012C27D0428D022A64D00A6842F49E
:1026700080620A6001684A68120503D54A6842F41C
:1026800080524A6001684A69896900910365D4E70C
:102690004A698A6900920A6842F480720A60016D90
:1026A000491C0165C9E74A698A6900920A6842F4CF
:1026B00000720A60EAE712F5803F0DD0042A2DD09F
:1026C000082A2BD0122D29D0C26A022A1DD00A68EE
:1026D00022F480620A601CE00A6822F480620A60C8
:1026E00001684A68120508D50A6822F480620A6007
:1026F00001684A6989690091C8E74A698A69009254
:102700000A6842F400720A60C0E70A6842F4806214
:102710000A6001684A6989690091B7E70A6822F48A
:1027200080620A6001684A698A6900920A6842F414
:1027300000720A60AAE7C26A022A09D00A6822F473
:1027400080620A6001680A6842F400620A6003E07D
:102750000A6842F480620A6001684A68120503D57B
:102760004A6842F480524A6001684A698969009166
:102770008CE790F83E10402909D00169B1F5804FEF
:1027800014D0016D19B3016D012929D030E0016D1C
:1027900031B1416C0068C9B241F00101016127E02B
:1027A000416C006801F0FE01016121E090F83D10EC
:1027B000212906D0416C0068C9B241F001010161D4
:1027C00016E0416C006801F0FE01016110E0416C0F
:1027D000006801F44071F02242EAD111016107E082
:1027E000416C006801F44071F12242EAD1110161AB
:1027F00000207047418D002908D001680A69416AAC
:102800004B1C43620A70418D491E41850020704770
:1028100010B590F83D20418D002918D001680B6952
:10282000416A4C1C44620B70418D491E4185418DAB
:1028300069B92A2A0BD101684A6822F480624A6089
:1028400022210163282180F83D10FEF755FD00206C
:1028500010BD418D002908D0416A4A1C42620268BD
:1028600009781161418D491E41850020704710B5DE
:1028700090F83D20418D002918D0416A4B1C4362DD
:10288000036809781961418D491E4185418D69B9F7
:10289000292A0BD101684A6822F480624A6021210A
:1028A0000163282180F83D10FEF727FD002010BDB0
:1028B00010B5002102689369DB435B0700D5012155
:1028C0009269D243120602D5828992B201E0028B4C
:1028D00092B2FEF74AFB002010BD00002DE9F04146
:1028E00090F83D20C36A00251C4E202701686FF434
:1028F0008064042B01D0082B01D1282A05D0212A7D
:1029000017D04C610020BDE8F081C6624A6822F40D
:10291000E0624A6001684C6101680A6822F48062E2
:102920000A60056380F83D7080F83E50FEF7B0FC09
:10293000E8E7C6622122026380F83D7080F83E50CD
:102940004A6822F4E0624A6001684C6101680A68E2
:1029500022F480620A60FEF7D0FCD3E70000FFFF9C
:1029600038B590F83D100268536823F4E063536073
:102970000023026854690094146844F00104146050
:102980000268146824F480641460026854682405A2
:102990000BD590F83D40222C2BD090F83D402A2CAE
:1029A00027D0446B246864684485448DE4B154693D
:1029B000E443640707D41469426A551C45621470E5
:1029C000428D521E428502685469E443640607D46E
:1029D0001469426A551C45621470428D521E42852C
:1029E000026C42F004020264026C3AB1FFF7EAFBA7
:1029F00022E0846B246864684485D6E72022282975
:102A000009D02A2907D0292905D0046B222C0CD003
:102A100022290AD010E00949C162036380F83D20F1
:102A200080F83E30FEF734FC06E0036380F83D207A
:102A300080F83E30FEF760FC002038BD0000FFFF4C
:102A40007FB51548134901604FF48031416000247F
:102A50008460046184610462C46210498162C4605C
:102A60000125C56104634561FDF7F9FE18B15321E5
:102A70000BA000F064FE06200090019502946946C8
:102A80000548FDF79FFD002803D05D2104A000F05C
:102A900056FE7FBD00200140D83F00200100000FFE
:102AA0002E2E2F5372632F6164632E63000000008B
:102AB0007FB51548134901604FF48031416000240F
:102AC0008460046184610462C46210498162C460EC
:102AD0000125C56104634561FDF7C1FE18B176218A
:102AE0000BA000F02CFE072000900195029469468F
:102AF0000548FDF767FD002803D0802104A000F001
:102B00001EFE7FBD00210140204000200100000F7B
:102B10002E2E2F5372632F6164632E63000000001A
:102B20001CB50E490C4808600846FDF74AFF18B16D
:102B300047210BA000F003FE00200090019010221E
:102B400069460648FDF7EDFE002803D0502104A099
:102B500000F0F5FD1CBD000000740040703F002037
:102B60002E2E2F5372632F6461632E6300000000CA
:102B700008B50548016841F400110160006800F4DF
:102B80000010009008BD00003038024010B590B031
:102B900003220021012001F089FB154C206120B1A6
:102BA00000231A46194601F0ADFC142211490BA866
:102BB000FDF795FB00210BA800F00DFE60601422CC
:102BC0000C49143106A8FDF78AFB002106A800F085
:102BD00002FEA06014220749283101A8FDF77FFBFF
:102BE000002101A800F0F7FDE06010B010BD00006A
:102BF00068000020A84A00082DE9F04F87B00024A3
:102C00005C48016841F010010160016801F01001A9
:102C10000191016841F004010160016801F00401C3
:102C20000191016841F080010160016801F08001BB
:102C30000191016841F001010160016801F00101A9
:102C40000191016841F002010160016801F0020197
:102C50000191016841F008010160006800F008007E
:102C60000190DFF8149100220C214846FEF76EF91E
:102C7000DFF808A140F60208002241465046FEF760
:102C800065F9DFF8FCB0002220215846FEF75EF916
:102C900004200290012503950494059402A9484656
:102CA000FEF76EF80820029003950227049705941A
:102CB00002A94846FEF764F847F6F370029003262F
:102CC0000396049402A94846FEF75AF84FF2FF30E3
:102CD00002900396049402A92A48FEF751F8CDF811
:102CE000088003950494059402A95046FEF748F81D
:102CF00049F2107002900396049402A95046FEF720
:102D00003FF84FF61F7002900396049402A95846AC
:102D1000FEF736F8E80302900394049502A94846AA
:102D2000FEF72EF848F2FF70029003960494164EB8
:102D300002A93046FEF724F84FF460500290039445
:102D4000049502A93046FEF71BF8A80302900394ED
:102D5000049702A93046FEF713F8202002901120B4
:102D600003900495059402A95846FEF709F807B0A8
:102D7000BDE8F08F303802400010024000000240F1
:102D80000004024000080240000C024010B50E484A
:102D90000C4901600D49416000218160C1604FF420
:102DA0008042026141618161C1610162FEF7EAF91D
:102DB000002805D0BDE810404C2105A000F0BFBCA4
:102DC00010BD000000540040843F0020A086010098
:102DD0002E2E2F5372632F6932632E630000000082
:102DE00010B500220F210C20FEF71CFB0C20FEF773
:102DF0000DFB00220F210E20FEF714FB0E20FEF724
:102E000005FB00220F211220FEF70CFB1220FEF71B
:102E1000FDFA00220F211F20FEF704FBBDE8104041
:102E20001F20FEF7F3BA000010B50D480B490160F2
:102E30004FF4E131416000218160C16001610C22E9
:102E400042618161C161FFF711F8002805D0BDE83A
:102E50001040502103A000F072BC10BD004400409F
:102E6000303E00202E2E2F5372632F7573617274C3
:102E70002E63000010B50D480B4901604FF4E1319D
:102E8000416000218160C16001610C224261816169
:102E9000C161FEF7EBFF002805D0BDE810406321BB
:102EA00003A000F04CBC10BD00480040703E002064
:102EB0002E2E2F5372632F75736172742E63000070
:102EC000FEE7FEF703BC0907090E002806DA00F04A
:102ED0000F0000F1E02080F8141D704700F1E020A1
:102EE00080F80014704770B50022022400EB420302
:102EF00002EB42061D79DB7804EB460605EB032363
:102F00004D68AB53521C022AF0DD70BD0348072107
:102F100001700021417000F003B80000A4400020BF
:102F2000427805484FF48051002A02D00122FEF772
:102F30000DB80022FEF70AB8000802400EB502499B
:102F4000C1F804D00EBD0000B4400020022000F003
:102F50002BFCFBE7134C0126134DDFF85090642740
:102F60004FF0FA08042000F01FFCA078214628B991
:102F70008E700422C91C0E48FFF792F82888401C66
:102F800082B22A80B2FBF7F007FB102202EB42006C
:102F9000C0EBC210B8EBC00FE4D902214846FDF7E0
:102FA000D1FFDFE7A44000206800002000000240BD
:102FB000703E0020064C4FF0FF3500232A4619468C
:102FC000206901F095F90348FFF78DFFF5E7000050
:102FD00068000020A440002000F0F3BB30B593B09F
:102FE00000252748016841F080510160006800F029
:102FF000805001902348016841F4804101600068DD
:1030000000F4804001900120079000040890022401
:103010000D9480010E9004200F90A821109111941E
:10302000129007A8FEF760FB18B1B52116A000F0BA
:1030300086FB0F200290039404954FF4A050059056
:103040004FF480500690052102A8FEF71FFA18B130
:10305000C3210DA000F073FBFEF7BAFAFEF7DCFA0D
:103060004FF47A71B0FBF1F0FEF714FD0420FEF787
:1030700003FD00220F21501EFEF7D4F913B030BD1E
:1030800040380240007000402E2E2F5372632F6D87
:1030900061696E2E630000001048016841F4700100
:1030A00001600F48016841F0010101600C4A0021F4
:1030B0000832116002680B4B1A400260031D0A4A75
:1030C0001A60026822F48022026005480C30016018
:1030D00002495806803908607047000088ED00E01A
:1030E00000380240FFFFF6FE103000240148FEF7D2
:1030F00011BD0000684000200148FDF734BC00000D
:10310000703F00202DE9F0410268244D244E254FE8
:10311000DFF894C0254B4FF08048A84209D04045C5
:1031200007D0B04205D0B84203D0604501D09842E4
:1031300003D122F070044A682243A8421BD04045C4
:1031400019D0B04217D0B84215D0604513D098427C
:1031500011D0174CA0420ED0164CA0420BD0164CEA
:10316000A04208D0154CA04205D0154CA04202D078
:10317000144CA04203D122F44074CA682243026076
:103180008A68C2620A688262A84201D0984201D16C
:103190000969016301214161BDE8F081000001403E
:1031A0000004004000080040000C00400004014002
:1031B0000040014000440140004801400018004028
:1031C000001C00400020004010B5806B0021C1852C
:1031D000C184FEF7BFFD10BD70B5846B20684069E7
:1031E000C0F3C01094F839100025212904D118B17A
:1031F000E584204600F07FF820684069C0F3801025
:1032000094F83A10222904D118B1E585204600F03F
:1032100057F8E06B40F01000E0632046FEF79AFD9F
:1032200070BD10B50146886B09680968C90513D4DB
:103230000021C1850168CA6822F48072CA600168F1
:103240004A6922F001024A6101684A6922F040029B
:103250004A61202180F83A10FEF778FF10BD10B5C2
:10326000806B0022416B0A65016B002902D0096D59
:10327000002909D1C284C285C263202180F8391097
:1032800080F83A10FEF70BFD10BD10B5806BFEF70D
:103290005EFF10BD10B5806B0022016B0A65416BAB
:1032A000002902D0096D002909D1C284C285C263F8
:1032B000202180F8391080F83A10FEF7F0FC10BD9C
:1032C0000168CA6822F49072CA6001684A6922F0F3
:1032D00001024A61202180F83A10704710B5016858
:1032E000CA6822F04002CA60202180F83910FEF737
:1032F0002FFF002010BD0168CA6822F0C002CA601A
:10330000202180F83910704710B590F83A10222922
:1033100001D0022010BD8168B1F5805F11D0016934
:1033200019B30168496801F07F03816A4A1C82620F
:103330000B70C18D491E0904090CC1851CD00020E9
:1033400010BD816A02693AB102685268D2B20A803D
:10335000816A491C8162ECE702685268C2F3080284
:103360000A80816A891C8162E3E701684A68816A90
:103370004B1C83620A70DCE70168CA6822F4907211
:10338000CA6001684A6922F001024A61202180F87E
:103390003A10FEF7DBFE002010BD00002DE9F041E1
:1033A00004462068016921F44052E168114301613B
:1033B0002068C26849F20C618A432369A168E56903
:1033C000194363692B4319431143C1602068416964
:1033D00021F44071A2690A434261E069B24AB349EB
:1033E00064253226B0F5004F59D02068884201D0BC
:1033F00090427DD1FEF726F900EBC00101EB0010F1
:1034000061688900B0FBF1F7FEF71CF900EBC00121
:1034100001EB001061688900B0FBF1F0B0FBF5F042
:103420006FF01801484307EB800006EB0010B0FB7B
:10343000F5F000F0F007FEF705F900EBC00101EB35
:10344000001061688900B0FBF1F0B0FBF5F007EB0C
:103450000017FEF7F7F800EBC00101EB0010616800
:103460008900B0FBF1F8FEF7EDF800EBC00101EBCD
:10347000001061688900B0FBF1F0B0FBF5F06FF06F
:103480001801484308EB800006EB0010B0FBF5F094
:10349000216800F00F0038448860BDE8F0812068A2
:1034A000884201D0904256D1FEF7CCF800EBC00123
:1034B00001EB001061684900B0FBF1F0B0FBF5F0E2
:1034C0000701FEF7BFF800EBC00101EB00106168D7
:1034D0004900B0FBF1F8FEF7B5F800EBC00101EBD5
:1034E000001061684900B0FBF1F0B0FBF5F000E0BE
:1034F00086E06FF01801484308EB800006EBC0003F
:10350000B0FBF5F000F0F80007EB4007FEF79AF883
:1035100000EBC00101EB001061684900B0FBF1F85D
:10352000FEF790F800EBC00101EB00106168490064
:10353000B0FBF1F0B0FBF5F06FF01801484308EB79
:10354000800006EBC000B0FBF5F0216800F007003A
:1035500038448860A1E7FEF765F800EBC00101EB95
:10356000001061684900B0FBF1F0B0FBF5F0070115
:10357000FEF758F800EBC00101EB0010616849004C
:10358000B0FBF1F8FEF74EF800EBC00101EB0010C4
:1035900061684900B0FBF1F0B0FBF5F06FF0180185
:1035A000484308EB800006EBC000B0FBF5F000F0EC
:1035B000F80007EB4007FEF735F800EBC00101EB20
:1035C000001061684900B0FBF1F8FEF72BF800EB42
:1035D000C00101EB001061684900B0FBF1F0B0FBE5
:1035E000F5F06FF01801484308EB800006EBC000CF
:1035F000B0FBF5F0216800F00700384488604CE724
:10360000FEF710F800EBC00101EB001061688900C3
:10361000B0FBF1F7FEF706F800EBC00101EB00107C
:1036200061688900B0FBF1F0B0FBF5F06FF01801B4
:10363000484307EB800006EB0010B0FBF5F000F00C
:10364000F007FDF7EFFF00EBC00101EB0010616830
:103650008900B0FBF1F0B0FBF5F007EB0017FDF7C8
:10366000E1FF00EBC00101EB001061688900B0FBD5
:10367000F1F8FDF7D7FF00EBC00101EB0010616826
:103680008900B0FBF1F0B0FBF5F06FF01801484392
:1036900008EB800006EB0010B0FBF5F0216800F0AD
:1036A0000F0038448860F8E6001401400010014023
:1036B00090F83910212901D0022070478168B1F5B6
:1036C000805F0CD0016A4A1C02620268097851606E
:1036D000C18C491E0904090CC18410D019E0016A8B
:1036E00002680988C1F308015160016919B1016AD2
:1036F000491C0162ECE7016A891C0162E8E7016884
:10370000CA6822F08002CA600068C16841F04001C6
:10371000C1600020704700000148FEF71DBB00009B
:10372000303E002010B50448FEF716FBBDE81040FF
:103730000148FEF7DBBC0000703E0020FEE7FEE71C
:1037400002E008C8121F08C1002AFAD1704770476A
:10375000002001E001C1121F002AFBD17047FDF7D4
:10376000D5FDFFF73BFCFFF747FAFFF701FAFFF73C
:10377000D7F9FFF765F9FFF79BF9FFF707FBFFF7AD
:1037800053FBFFF777FBFFF7C1FBFFF7D7FBFFF713
:1037900027FBFFF7FBF900F00FF8FEE701460020DA
:1037A000842900D0C81C704710B5002800D1012022
:1037B00000F0ECFB002010BD10B500F085FC0020EF
:1037C00010BD10B501F00AF8012803D0BDE8104083
:1037D00000F056BD10BD3EB504460D46B4F90800D4
:1037E000FFF7DCFF02A9CDE90001208A2B4682B257
:1037F000D4E9001000F0C2FF012801D000203EBD36
:1038000002983EBD2DE9F04104460F46174EF5687B
:103810003068001D00F0D8FA38B9306890F82C10E4
:1038200001208840316981433161601C07D137B183
:103830003168BDE8F041091D0D4800F0FDBA2C4487
:1038400030684460AC4206D23168B06B091DBDE8F7
:10385000F04100F0D9BA3168706B091D00F0D4FA5C
:10386000B06A844200D2B462BDE8F0812400002036
:103870001C3E002070B5044600F0EAFA1C4DA86812
:10388000401CA860286810B1686938B10CE02C6051
:10389000A868012808D100F03FF905E02868E16A2E
:1038A000C06A884200D82C60686A401C6862E06A7E
:1038B00001212A698140114329610E4900EB8000F2
:1038C00001EB8000211D00F0B7FA00F0E1FA686911
:1038D00000280CD02868E16AC06A884207D20649ED
:1038E0004FF080500860BFF34F8FBFF36F8F70BDF4
:1038F000240000208C3C002004ED00E070B5124E46
:10390000124D1CE000F014FC306820B1002401F0DE
:1039100063F8A4B901E00124F9E700F099FAF0682E
:10392000C468201D00F050FAA868401EA8606868AE
:10393000401E686000F0ACFA204600F054F8686859
:103940000028DFD170BD0000083E002024000020C8
:1039500030B40B46026C002A0CD0C1681144C1601F
:103960004468A14201D30168C160C16830BC1846F7
:10397000FCF7B5BC30BC70472DE9F0410446174652
:103980000026A56B226C002A10D0C7B1E068FCF7B6
:10399000A6FCE168206C091AE1602268914202D21B
:1039A0006168081AE060022F16D017E02068A8B9F5
:1039B000606800F087FF0646002060600EE0A068A7
:1039C000FCF78DFC216CA0680844A0606168884207
:1039D00004D32068A06001E005B16D1E6D1CA563D5
:1039E0003046BDE8F08110B50446206B00F066FA61
:1039F0002046BDE8104000F061BA00004FF470515D
:103A00000F48420706D0C01D20F007000C49411A9C
:103A1000C1F570510B4A106000235360014408390E
:103A200021F00701103A11604B600B600B1A4360E4
:103A300001604068906050604FF00040D060704777
:103A40008C00002010000020074E4FF08054074DDE
:103A5000FFF754FF30680128FAD92C60BFF34F8F6D
:103A6000BFF36F8FF4E700008C3C002004ED00E012
:103A700003460098002905D00260C3630164012158
:103A800000F0FABC0060F8E72DE9F0478146DDE977
:103A900008570A9C9846521E206B00EB820020F0CB
:103AA0000706700707D0F02080F31188BFF34F8F0F
:103AB000BFF36F8FFEE7002023180A5C83F83420E1
:103AC0000A5C12B1401C1028F6D34FF0000A84F8AB
:103AD00043A0102D00D30F25E5626564C4F848A00B
:103AE000201D00F08EF904F1180000F08AF924611D
:103AF000C5F11000A0616462C4F84CA084F850A025
:103B000042464946304600F04DF92060002F00D073
:103B10003C60BDE8F087000070B50024114D04EB57
:103B2000840005EB800000F061F9641C102CF6D3D2
:103B30000D4800F05BF90C48143000F057F90A48C2
:103B4000283000F053F908483C3000F04FF906489F
:103B5000503000F04BF9054803494163143181634B
:103B600070BD00008C3C0020CC3D002024000020D3
:103B700030B5134900E011460A688242FBD34B6816
:103B80005C18844203D140681844486008460D68B8
:103B900044682318AB420DD1094B103B1B689A4275
:103BA00006D05268224442600A681268026002E04D
:103BB000036000E00260814200D0086030BD000078
:103BC0001000002010B5044600F042F9A06B20B1AF
:103BD000002400F05DF9204610BD0124F9E710B57E
:103BE000044600F035F9A06BE16B884201D1012455
:103BF00000E0002400F04CF9204610BD0748416B5E
:103C00000968002905D0416BC968C96849688162A3
:103C100070474FF0FF3181627047000024000020A0
:103C200009484068401C07D0F02080F31188BFF39A
:103C30004F8FBFF36F8FFEE7F02080F31188BFF343
:103C40004F8FBFF36F8FFEE7180000202DE9F04182
:103C5000044600F0FDF894F9455004F1240609E00B
:103C6000606A48B1304600F079FE08B100F0B6F95C
:103C70006D1E6DB2002DF3DC4FF0FF3684F8456009
:103C800000F006F900F0E4F894F9445004F110074C
:103C900009E0206948B1384600F060FE08B100F044
:103CA0009DF96D1E6DB2002DF3DC84F84460BDE813
:103CB000F04100F0EDB800002DE9F0410546002686
:103CC00000F036FA304F386808B9FFF797FEF86809
:103CD00005424AD18DB1083568070ED005F00700BE
:103CE000C0F108000544680707D0F02080F3118870
:103CF000BFF34F8FBFF36F8FFEE7B5B37868854290
:103D000033D8214910310846046801E021460446B1
:103D10006068A84202D220680028F7D1386884423F
:103D200023D00E680836206808606068411B10299F
:103D30000ED96019420707D0F02080F31188BFF335
:103D40004F8FBFF36F8FFEE741606560FFF710FF95
:103D500061687868401A7860BA68904200D2B860AA
:103D6000F868014361600020206000F035FE7007B4
:103D700007D0F02080F31188BFF34F8FBFF36F8F10
:103D8000FEE73046BDE8F0810000002004490868E5
:103D9000002803D00868826C521C8264086870474F
:103DA0002400002024384FF08073036221F00101C9
:103DB000C1610449816142606FF0020140F820193D
:103DC00070470000213C00080169D0E901329A6087
:103DD000D0E901235A604A68824201D182684A6070
:103DE000002202610868401E0860704700F1080167
:103DF00041604FF0FF328260C160016100210160CB
:103E0000704700210161704730B50C68621C02D018
:103E100000F1080202E0026904E01A4653681D68D6
:103E2000A542FAD953684B6099608A605160086175
:103E30000168491C016030BD42684A6093688B602C
:103E400093685960916008610168491C016070477E
:103E5000F02080F31188BFF34F8FBFF36F8F0A49B3
:103E60004868401C486001280CD10848006810F0E0
:103E7000FF0F07D0F02080F31188BFF34F8FBFF3FF
:103E80006F8FFEE7704700001800002004ED00E08F
:103E900009494868002806D0401E4860002801D122
:103EA00080F311887047F02080F31188BFF34F8FA3
:103EB000BFF36F8FFEE700001800002070B50028E8
:103EC00027D008380446134D6068E968084207D1D6
:103ED000F02080F31188BFF34F8FBFF36F8FFEE7A1
:103EE00022683AB1F02080F31188BFF34F8FBFF3FF
:103EF0006F8FFEE78843606000F01AF960686968B8
:103F0000084468602046FFF733FEBDE8704000F0CB
:103F100063BD70BD0000002006484FF47A71006850
:103F2000B0FBF1F14FF0E020491E41610721016132
:103F3000704700007C00002010B5FCF789F911499A
:103F400010280ED300F1E02090F8F0030A78904298
:103F500007D2F02080F31188BFF34F8FBFF36F8F2C
:103F6000FEE709480068896800F4E060884207D9E4
:103F7000F02080F31188BFF34F8FBFF36F8FFEE700
:103F800010BD0000180000200CED00E010B5024646
:103F90000020002A12D00F48006B38B1F02080F3C7
:103FA0001188BFF34F8FBFF36F8FFEE700F0C0F8AB
:103FB00000211046FFF726FC00F00EFD002807D177
:103FC00005494FF080500860BFF34F8FBFF36F8FEC
:103FD00010BD00002400002004ED00E00149012094
:103FE000C86170472400002010B50C4600280AD094
:103FF000094909681831FFF707FF2046BDE810405E
:104000000121FFF7FFBBF02080F31188BFF34F8F32
:10401000BFF36F8FFEE700002400002070B5044658
:10402000002839D01D4DE06A2968C96A884233D218
:10403000A069002804DB2868C06AC0F11000A061F4
:10404000E06A174E00EB8000616906EB8000814258
:104050001FD1201DFFF7B8FE012150B9E06A00EB27
:10406000800256F8222022B92A6901FA00F0824320
:104070002A612868C06AE0622A6981401143296187
:1040800000EB800006EB8000211DBDE87040FFF7CB
:10409000D3BE2868C06AE06270BD00002400002022
:1040A0008C3C0020002805D006490A6A0260C968D5
:1040B00041607047F02080F31188BFF34F8FBFF34A
:1040C0006F8FFEE7240000201CB515480024CDE9C1
:1040D00000402346802213A1144800F04FFB012822
:1040E00009D0401C1AD1F02080F31188BFF34F8F04
:1040F000BFF36F8FFEE7F02080F31188BFF34F8F7F
:10410000BFF36F8F06484FF0FF312C3881620121D9
:104110004161C460BDE81C4000F042B81CBD000015
:104120005000002049444C4500000000493A000876
:104130000248016B491C0163704700002400002005
:10414000154A106B002802D00120D0617047002072
:10415000D0611069B0FA80F0C0F11F000F4900EB88
:10416000800051F8203073B101EB8000416849684C
:10417000416000F10803994201D1496841604068FB
:10418000C06810607047F02080F31188BFF34F8F34
:10419000BFF36F8FFEE70000240000208C3C00205E
:1041A0001CB532480168324A914207D1F02080F3B1
:1041B0001188BFF34F8FBFF36F8FFEE700682C4964
:1041C000491E884207D1F02080F31188BFF34F8F3A
:1041D000BFF36F8FFEE7274908780190FF20087032
:1041E000087800909DF800009DF8002000F0F00095
:1041F000904207D0F02080F31188BFF34F8FBFF3B8
:104200006F8FFEE79DF800001B4A00F0F000107071
:104210000720906006E09068401E90609DF80000C6
:10422000400000909DF800000006F4D4107A0002CF
:1042300000F4E0609060019808700C48203001683C
:1042400041F470010160016841F070410160FFF7C5
:1042500063FE00205060FBF7C1FF0848016841F091
:1042600040410160FBF7AAFF00201CBD00ED00E00B
:1042700071C20F4100E400E01800002034EF00E0BC
:1042800010B5F02080F31188BFF34F8FBFF36F8F0D
:1042900000F0B2FA18B104494FF0805008600020D5
:1042A00080F3118810BD000004ED00E0F8B505466C
:1042B0000E461746002D11D0C6B105FB06F048305A
:1042C000FFF7FAFC04463CB104F148023B46314694
:1042D00028460094FFF7CCFB2046F8BDF02080F381
:1042E0001188BFF34F8FBFF36F8FFEE70020E6E723
:1042F0002DE9FF4F83B004468A469B460026002CDA
:1043000003D0BAF1000F08D011E0F02080F311883B
:10431000BFF34F8FBFF36F8FFEE7206C38B1F020F3
:1043200080F31188BFF34F8FBFF36F8FFEE700F06C
:1043300055FA48B9059838B1F02080F31188BFF3D9
:104340004F8FBFF36F8FFEE74FF000094FF080579C
:10435000DFF82081FFF77CFDA56B95B3E668514639
:104360002046FFF7F5FABBF1000F13D0E660606A54
:1043700050B104F1240000F0F1FA28B1C8F800703F
:10438000BFF34F8FBFF36F8FFFF782FD012007B0A0
:10439000BDE8F08F6D1EA563206810B9FFF7F6FC2D
:1043A000606020690028EFD004F1100000F0D6FA18
:1043B0000028E9D0C8F80070BFF34F8FBFF36F8FAC
:1043C000E2E7FFE7059808B126B107E0FFF760FDD7
:1043D0000020DCE701A8FFF765FE0126FFF758FD86
:1043E000FFF7A6FEFFF734FD94F94400401C01D10D
:1043F00084F8449094F94500401C01D184F845901C
:10440000FFF746FD05A901A800F07EF958B1204646
:10441000FFF71CFC00F0E0FA2046FFF7D3FB002872
:1044200098D00020B3E72046FFF7CCFBE0B120682E
:1044300030B9FFF70DFD6068FFF7F0FDFFF728FDCD
:1044400004F124000599FFF7CFFD2046FFF7FEFB9E
:1044500000F0C2FA00287FF47DAFC8F80070BFF307
:104460004F8FBFF36F8F75E72046FFF7EFFB00F02C
:10447000B3FA6FE704ED00E070B504460D46002C7A
:1044800025D0FFF7E5FCD4E90F20216802FB0011DD
:1044900061600021A1632168A160E06B2268216C4A
:1044A000401E00FB0121E1604FF0FF3084F8440022
:1044B00084F8450004F110008DB1FFF797FC04F17A
:1044C0002400FFF793FCFFF7E3FC012070BDF02010
:1044D00080F31188BFF34F8FBFF36F8FFEE7216921
:1044E0000029F0D000F03AFA0028ECD004494FF04F
:1044F00080500860BFF34F8FBFF36F8FE3E700007A
:1045000004ED00E02DE9FF4782B004468A461E46CE
:104510000025002C03D0BAF1000F08D011E0F020E4
:1045200080F31188BFF34F8FBFF36F8FFEE7206CCE
:1045300038B1F02080F31188BFF34F8FBFF36F8F36
:10454000FEE7022E0AD1E06B012807D0F02080F3AD
:104550001188BFF34F8FBFF36F8FFEE700F03EF976
:1045600048B9049838B1F02080F31188BFF34F8F19
:10457000BFF36F8FFEE74FF000094FF08057DFF871
:10458000E480FFF765FCA06BE16B884205D3022E47
:1045900003D0049808B325B327E03246514620469D
:1045A000FFF7EAF9616A59B104F1240000F0D6F985
:1045B00068B1C8F80070BFF34F8FBFF36F8F06E08C
:1045C00028B1C8F80070BFF34F8FBFF36F8FFFF7AC
:1045D0005FFC012006B0BDE8F087FFF759FC002022
:1045E000F8E76846FFF75EFD0125FFF751FCFFF78E
:1045F0009FFDFFF72DFC94F94400401C01D184F885
:10460000449094F94500401C01D184F84590FFF78F
:104610003FFC04A9684600F077F830B12046FFF768
:1046200015FB00F0D9F90020D4E72046FFF7D7FAB0
:1046300090B104F110000499FFF7D6FC2046FFF773
:1046400005FB00F0C9F900289BD1C8F80070BFF342
:104650004F8FBFF36F8F94E72046FFF7F7FA00F014
:10466000BBF98EE704ED00E070B504460E46002C61
:1046700009D0206C78B1F02080F31188BFF34F8F00
:10468000BFF36F8FFEE7F02080F31188BFF34F8FE9
:10469000BFF36F8FFEE7206848B9606838B1F0203B
:1046A00080F31188BFF34F8FBFF36F8FFEE7FFF7E3
:1046B00043FCF020EFF3118580F31188BFF34F8F97
:1046C000BFF36F8FA26BE06B904218D994F945004D
:1046D000521CA263411C04D0401C84F845000120F8
:1046E0000EE0606A0028FAD004F1240000F036F9E8
:1046F0000028F4D0002EF2D001203060EFE7002037
:1047000085F3118870BD000070B504460D46002C7D
:1047100010D0BDB1FFF79CFB174AD06829684B1C2D
:1047200018D02368126A934216D06268824213D866
:1047300001241DE0F02080F31188BFF34F8FBFF3F9
:104740006F8FFEE7F02080F31188BFF34F8FBFF328
:104750006F8FFEE700240BE06268801A884206D261
:10476000081A28602046FFF79DFC002400E0012481
:10477000FFF78EFB204670BD240000202DE9FF5F6F
:104780008146DDE90E788A4616469B46B000FFF763
:1047900093FA054628000AD05420FFF78DFA044604
:1047A0000CB1256304E02846FFF788FB00E00024F5
:1047B0008CB10020CDE90240CDE900785B4632465D
:1047C00051464846FFF760F92046FFF753F80120AD
:1047D00004B0BDE8F09F4FF0FF30F9E705484169AC
:1047E000002903D0006B18B10020704701207047EA
:1047F00002207047240000202DE9F04100262F4FB1
:10480000386B002808D0B869401CB861F86900B15D
:1048100001263046BDE8F081FD686D1CFD609DB944
:10482000786B006838B1F02080F31188BFF34F8FA8
:10483000BFF36F8FFEE7786BB96B7963B863386A43
:10484000401C3862FFF7DAF9B86ADFF874808542F5
:104850000DD3786B006838B1786BC068C468606845
:1048600085420ED2B86202E04FF0FF30B86238687D
:10487000C06A00EB800058F820000128C6D9012644
:10488000C4E7201DFFF7A0FAA06A18B104F11800D0
:10489000FFF79AFAE06A01213A69814011433961D0
:1048A00000EB800008EB8000211DFFF7C5FAE06AED
:1048B0003968C96A8842CCD30126CAE7240000209F
:1048C0008C3C002070B504460020002C41D0214DC6
:1048D00029688C4207D0F02080F31188BFF34F8FF6
:1048E000BFF36F8FFEE7A16C71B1491EA164636CC9
:1048F000E26A9A422DD000292BD1201DFFF764FADD
:10490000154A012140B112E0F02080F31188BFF375
:104910004F8FBFF36F8FFEE7E06A00EB800352F822
:10492000233023B901FA00F3286998432861606CA9
:10493000E062C0F11000A061E06A2B698140194378
:10494000296100EB800002EB8000211DFFF774FA63
:10495000012070BD240000208C3C00202DE9F04196
:10496000C068C468002C15D004F118000746FFF792
:104970002BFA164D2A6B0126A2B139461448FFF7CF
:104980005BFAE06A2968C96A88421DD90120EE6194
:10499000BDE8F081F02080F31188BFF34F8FBFF3A3
:1049A0006F8FFEE7201DFFF70FFAE06A2A6906FA0B
:1049B00000F111432961074900EB800001EB800001
:1049C000211DFFF739FADCE70020E1E72400002091
:1049D000F43D00208C3C00202DE9F041002400270C
:1049E0002D4D286B002807D0FFF732FA286B401EA8
:1049F0002863286B40B149E0F02080F31188BFF3B1
:104A00004F8FBFF36F8FFEE7A868E0B3DFF88C80AD
:104A100001261DE0D8F80C00C46804F11800FFF767
:104A2000D3F9201DFFF7D0F9E06A2A6906FA00F1F0
:104A3000114329611A4900EB800001EB8000211D20
:104A4000FFF7FAF9E06A2968C96A884200D3EE6183
:104A5000D8F800000028DDD10CB1FFF7CFF8AC6921
:104A600044B1FFF7C9FE00B1EE61641E002CF8D11D
:104A70000020A861E86930B101270A4938070860B9
:104A8000BFF34F8F00E001E0BFF36F8FFFF700FA35
:104A90003846BDE8F081000024000020F43D0020ED
:104AA0008C3C002004ED00E01C4B0008552F000852
:104AB000000000000000000080000000044B00081F
:104AC000B52F000800000000010000008000000079
:104AD000104B00084D2F00080000000002000000ED
:104AE000800000000000000000000000010203043C
:104AF0000607080900000000010203040006101662
:104B00000006101672733438355461736B00000060
:104B1000736572766F5461736B0000006465666143
:104B2000756C745461736B00484B000800000020E2
:104B30008C00000040370008D44B00088C00002097
:104B40006C44000050370008000000000000000026
:104B50000000000000000000000000000000000055
:104B600000000000AAAAAAAA00000000000000009D
:104B70000000000000000000000000000000000035
:104B80000000000000000000000000000000000025
:104B90000000000000000000000000000000000015
:104BA0000000000000000000000000000000000005
:104BB00000000000000000000000000000000000F5
:104BC000000000000024F4000100000010000000BC
:044BD00000000000E1
:040000050800018965
:00000001FF
