:020000040800F2
:10000000F045002059020008FB3600088B28000844
:10001000F9360008D104000805410008000000007E
:100020000000000000000000000000009D0100082A
:100030007B07000800000000F1010008E938000813
:1000400073020008730200087302000873020008BC
:1000500073020008730200087302000873020008AC
:10006000730200087302000873020008730200089C
:100070008106000873020008950600087302000854
:100080007302000873020008890300087302000865
:10009000730200087302000873020008730200086C
:1000A00073020008FD39000873020008730200089B
:1000B000093A0008153A0008730200089928000858
:1000C0008D280008730200087302000873020008FC
:1000D0007302000873020008E1400008ED400008C8
:1000E000730200087302000873020008730200081C
:1000F000730200087302000873020008730200080C
:1001000073020008730200087302000873020008FB
:100110007302000873020008213A00087302000805
:1001200073020008730200087302000873020008DB
:1001300073020008730200087302000873020008CB
:1001400073020008730200087302000873020008BB
:1001500073020008730200087302000873020008AB
:10016000730200087302000873020008730200089B
:100170007302000873020008730200080000000008
:100180007302000873020008DFF80CD000F0EAF8F0
:100190000048004709430008F04500202B4B196830
:1001A0000868B0E8F04F80F30988BFF36F8F4FF015
:1001B000000080F3118870470000000006480068C6
:1001C000006880F3088862B661B6BFF34F8FBFF353
:1001D0006F8F00DF00BF00BF08ED00E0DFF80C000C
:1001E000016841F470010160704700BF88ED00E0D4
:1001F000EFF30980BFF36F8F144B1A681EF0100FD6
:1002000008BF20ED108A20E9F04F106008B44FF0CD
:10021000040080F31188BFF34F8FBFF36F8F04F09A
:100220004FFF4FF0000080F3118808BC1968086880
:10023000B0E8F04F1EF0100F08BFB0EC108A80F34A
:100240000988BFF36F8F704700BF00BF24000020F4
:10025000EFF30580704700000648804706480047D6
:10026000FEE7FEE7FEE7FEE7FEE7FEE7FEE7FEE766
:10027000FEE7FEE7A9390008890100082DE9F05FD3
:100280000546002092469B46884606468146402405
:100290001BE0284641464746224600F053F85346A5
:1002A0005A46C01A914110D311461846224600F012
:1002B0003AF82D1A67EB01084F462246012000212B
:1002C00000F031F817EB00094E41201EA4F10104A3
:1002D000DFDC484631462A464346BDE8F09F40EA07
:1002E00001039B0703D009E008C9121F08C0042AB4
:1002F000FAD203E011F8013B00F8013B521EF9D29B
:100300007047D2B201E000F8012B491EFBD27047C2
:100310000022F6E710B513460A4604461946FFF7D1
:10032000F0FF204610BD202A04DB203A00FA02F13B
:10033000002070479140C2F1200320FA03F31943D3
:1003400090407047202A04DB203A21FA02F0002175
:10035000704721FA02F3D040C2F1200291400843D5
:1003600019467047064C074D06E0E06840F001036F
:1003700094E8070098471034AC42F6D3FFF708FF23
:10038000A85C0008C85C000810B5044800F0A6FA94
:10039000BDE81040024800F0A1BA0000144000205F
:1003A0005C40002049494A6822F440324A604A6869
:1003B00043681A434A6001684A6822F480724A60BE
:1003C00001684A68036942EA03224A6001684A6890
:1003D00022F040724A6001684A6883681A434A60A2
:1003E00001688A6822F400628A6001688A68C368CA
:1003F0001A438A60816A6FF07062D14214D001683A
:100400008A6822F070628A6001688A68836A1A4387
:100410008A6001688A6822F040528A6001688A68AE
:10042000C36A1A438A6009E001688A6822F0706230
:100430008A6001688A6822F040528A6001688A688E
:1004400022F002028A6001688A68836942EA4302F4
:100450008A60016A89B101684A6842F400624A60B0
:1004600001684A6822F460424A6001684B68426A47
:10047000521E43EA42324A6004E001684A6822F4AC
:1004800000624A600168CA6A22F47002CA620168A6
:10049000CB6A828B521E43EA0252CA6201688A68A2
:1004A00022F400728A6001688A68036B42EA432280
:1004B0008A6001688A6822F480628A6001688A68BA
:1004C000406942EA802088607047000000230140B4
:1004D000FEE710B5044600200023022A03D0012ABB
:1004E00008D103200AE0032202E0A35C5840521C1A
:1004F0008A42FADB10BD225C5340401C8842FADB82
:10050000184610BD084410F8010CDC2801D000206A
:1005100070470120704770B50446FF2084F824001E
:10052000FE2084F82500207884F8260060790D28C4
:1005300007D00C2823D8012822D0204600F026F826
:100540001EE0072084F827000023C8184578E0182B
:1005500080F827505B1C052BF7DB012A07D0607958
:1005600040F0800184F82410022A04D008E0617968
:1005700084F8241004E0022184F8251000E04138BA
:100580002046BDE8704003F02BB90000F0B50446EA
:100590003A4D6079012A1FD040F0800004F8240F02
:1005A00062706878801CE070243C94F82760F61C28
:1005B000A278F1B204F12400FFF78BFF6A7800F013
:1005C0000F01B21A224482F824106978000A711AC5
:1005D000214481F82500F0BD84F8240002280ED0C3
:1005E0000026032810D0042830D00528DDD16878F3
:1005F000C01C2534A07026706670253CD5E768784D
:10060000401C84F82700D0E70A786878032303EBBE
:100610004202104484F82700002009E001EB001298
:1006200004EB4003177A03F8257F527A5A70401C76
:100630000A788242F2DC087804EB400080F82460FB
:10064000087804EB400080F82560AEE70A78687807
:10065000012303EB4202104484F82700002009E044
:1006600001EB001304EB40021E7A02F8256F5B7A5F
:100670005370401C0A788242F2DC96E7703F0020FB
:10068000024900204860024800F0CABA6000002019
:10069000B03E002010B5034800F0C2FA0249002025
:1006A000087110BD103F0020703F00200168CAB2E1
:1006B000103A1823B2FBF3F2064B9B5CC3656FF351
:1006C0000901032A02D9091D816500E08165806D59
:1006D000704700007C5C000810B5014600208A6A63
:1006E0008B694FF0C074002B0ED0B3F5005F1AD0A9
:1006F00062B3012A2AD0022A28D0032A03D1C96A68
:10070000C90100D5012010BD1AB1012A06D0022A64
:10071000F9D1C96AC901F6D5012010BDC96AA14243
:10072000FBD1012010BD52B1012A0AD0022A06D005
:10073000032AF7D1C96AA142F4D1012010BD0120DA
:1007400010BDC96AC901FBD5012010BD012010BD33
:1007500030B50468256825F4802525600468636049
:100760008368402B04D0036899600068C26030BD84
:1007700003689A600068C16030BD70477047000030
:1007800078B50024009490F83C20012A19D0012269
:1007900080F83C200A680725092A14D90368DE6816
:1007A0000A3A02EB42029540AE43DE600A788B685B
:1007B0000A3A02EB420293400268D5682B43D360A9
:1007C00011E0022078BD03681E6902EB42029540E9
:1007D000AE431E610A788B6802EB420293400268C6
:1007E00015692B4313614A681F25072A13D2036832
:1007F0005E6B521E02EB82029540AE435E630A8836
:1008000093B20A79521E02EB820293400268556B42
:100810002B43536328E00D2A13D203681E6BD21FAB
:1008200002EB82029540AE431E630A8893B20A79B6
:10083000D21F02EB820293400268156B2B431363B5
:1008400012E00368DE6A0D3A02EB82029540AE4385
:10085000DE620A8893B20A790D3A02EB8202934073
:100860000268D56A2B43D362174A184B05689D422C
:1008700006D10D68122D03D1556845F480055560E9
:1008800005689D421BD10B68102B01D0112B16D18E
:10089000536843F400035360096810290FD10C49D1
:1008A0000C4A0968B1FBF2F101EB810149000091AA
:1008B00002E00099491E009100990029F9D180F8C1
:1008C0003C40002078BD0000002301400020014092
:1008D0007C00002040420F007047704770B504460E
:1008E00020680168C1F340014268C2F34012002948
:1008F0002AD04AB3216CC90603D4216C41F400719B
:100900002164816811F0405F17D1A169A9B9C16A5A
:1009100011F4700F02D0816849050ED4416821F0AE
:1009200020014160206C20F480702064206CC004A1
:1009300003D4206C40F0010020642046FFF7CCFF78
:1009400021686FF01200086020680168C1F380011F
:100950004268C2F3C01289B382B3216CC90603D4C2
:10096000216C41F400512164816811F4401F1ED1B3
:10097000816B11F4401F02D08168490517D441688A
:10098000490514D4816811F0405F10D1A16971B993
:10099000416821F080014160206C20F48050206487
:1009A000206CC00503D4206C40F001002064204678
:1009B000FFF7E4FE21686FF00C0008602068016812
:1009C000C1F300014268C2F3801271B16AB10068DC
:1009D000C0070AD0206C40F480302064204600F02C
:1009E00046F821686FF00100086020680168C1F3D3
:1009F00040114268C2F3806200290DD0002A0BD05A
:100A0000616C41F0020161646FF0200505602046D1
:100A1000FFF763FF2068056070BD70B504460026CF
:100A2000002C03D0206C002510B107E0012070BD20
:100A3000656484F83C50204600F01AF8206CC0062B
:100A400010D4206C20F4885040F00200206420462E
:100A5000FFF7A8FC6564206C20F0020040F0010064
:100A6000206400E0012684F83C50304670BD704799
:100A700030B587B0154D01680023154A0324154889
:100A8000A94210D1116841F480711160116801F41C
:100A900080710191402102910394049302A900F016
:100AA0004DFA07B030BD0C4DA942FAD1116841F49E
:100AB00000711160116801F40071019180210291AF
:100AC0000394049302A900F039FAEAE700200140F8
:100AD000443802400000024000210140704770B5D8
:100AE0004379012B1AD00126467102230371036852
:100AF0001D6840F6FE749440A543D1E900410C43C3
:100B000094402C431C6001680B68C0249440A343AC
:100B10000B60067100214171002070BD022070BD84
:100B2000704770B504462068416B4FF00405890496
:100B30000ED52571216941F001012161E90241636E
:100B40002068016821F4805101602046FFF7E8FF2A
:100B50002068416B890011D52571216941F002019E
:100B600021614FF0005141632068016821F08051FC
:100B700001602046BDE87040FFF7B0BF70BD70B5A2
:100B80000446002C03D02079002510B105E0012097
:100B900070BD6571204600F007F8022020712561C4
:100BA00001202071002070BD00B587B00068104999
:100BB00088421AD100210F48026842F000520260B8
:100BC000006800F000500190202002900320039064
:100BD000049102A9084800F0B1F900220E21362044
:100BE00000F0FEFC362000F0EFFC07B000BD000076
:100BF00000740040403802400000024090F8351078
:100C0000022903D08021416501207047052180F829
:100C100035100068016821F0010101600020704773
:100C20002DE9F84304464FF00009CDF800906F48D5
:100C30004FF416510068B0FBF1F7A56D2E6894F8DB
:100C40005C00082202FA00F1314210D020680168ED
:100C500049070CD5016821F00401016094F85C009B
:100C600002FA00F1A960606D40F00100606594F83F
:100C70005C104FF0010808FA01F0304208D02168FA
:100C80004969090604D5A860606D40F002006065FE
:100C900094F85C1004208840304208D0216809682C
:100CA000890704D5A860606D40F00400606594F881
:100CB0005C1010208840304220D021680968090764
:100CC0001CD5A8602068016849030CD500680003A2
:100CD00004D4216C91B1204688470FE0A16C69B122
:100CE000204688470AE00168C90503D4016821F05D
:100CF00008010160216C09B12046884794F85C1016
:100D00002020884030424CD021680968C90648D567
:100D1000A86094F8350005280BD0206801684903C5
:100D200030D50068000328D4616C51B32046884751
:100D300037E02068016821F01601016020684169F0
:100D400021F080014161206C08B9A06C20B12068BD
:100D5000016821F00801016094F85C103F20884090
:100D6000A86084F8349084F83580216D00293BD048
:100D700001B02046BDE8F0430847E16B09B12046C9
:100D800088470EE00168C90507D4016821F0100109
:100D9000016084F8349084F83580E16B09B1204615
:100DA0008847606D00281FD0606DC00714D00520F3
:100DB00084F835002068016821F001010160009885
:100DC000401C0090B84203D820680068C007F6D1E4
:100DD00084F8349084F83580E16C002904D001B0A7
:100DE0002046BDE8F0430847BDE8F8837C000020BA
:100DF0002DE9F041044600F08FF905465CB100266C
:100E000084F83460022084F835002068016821F0FD
:100E1000010101600DE00120BDE8F08100F07CF9E6
:100E2000401B052805D920206065032084F8350083
:100E3000F2E720680068C007F0D121680A682048FE
:100E40000240D4E901031843D4E903352B43184386
:100E500063691843A3691843E3691843236A184375
:100E60001043626A042A03D1D4E90B231A431043C6
:100E700008602068406920F00700656A294605433C
:100E8000012704290DD1A06A0543E06A48B1204634
:100E9000FFF722FC28B14020606584F835700120FE
:100EA000BAE7206845612046FFF700FC94F85C2013
:100EB0003F2191408160666584F835700020ABE782
:100EC0003F8010F02DE9F04104460025A66D94F80E
:100ED000340001280DD0012084F8340094F83570D6
:100EE0000020012F07D084F8340002252846BDE8F1
:100EF000F0810220FBE7022784F835706065204608
:100F0000FFF726FC94F85C103F208840B060206812
:100F1000016841F0160101602068416941F08001DB
:100F20004161206C20B12068016841F00801016036
:100F30002068016841F001010160D7E72DE9F84F11
:100F40000022DFF89091DFF88C8109F108094FF059
:100F5000010E4FF00F0C09F1040A0EFA02F60B68AD
:100F60003340B34271D14C68022C01D0122C11D104
:100F7000D40800EB84073D6A5407E40E0CFA04FB26
:100F800025EA0B05D1F810B00BFA04FB4BEA050B70
:100F9000C7F820B0076854000325A540AF4391F877
:100FA00004B00BF0030B0BFA04FB4BEA070BC0F881
:100FB00000B04F68012F05D0022F03D0112F01D0B0
:100FC000122F11D18768AF43D1F80CB00BFA04FB94
:100FD0004BEA070BC0F808B04768B7430E79C6F371
:100FE000001696403E434660C668AE438D68A540F5
:100FF0003543C5604C68E40065D5374C256845F439
:1010000080452560246804F480440094334C22F029
:1010100003052544D5F808789407260F0CFA06F442
:10102000A7432F4CA04201D1002424E02D4CA04224
:1010300001D101241FE02C4CA04201D102241AE06E
:101040002A4CA04202D1032415E03CE0284CA042E7
:1010500001D104240FE0274CA04201D105240AE06D
:10106000254CA04201D1062405E0244CA04201D128
:10107000072400E00824B4403C43C5F80848D8F8E9
:1010800000409C434D68ED0300D51C43C8F8004068
:10109000104D2D1D2C689C434E68B60300D51C4393
:1010A0002C60D9F800409C434D68ED0200D51C43EC
:1010B000C9F80040DAF800409C434D68AD0200D505
:1010C0001C43CAF80040521C102AFFF446AFBDE88A
:1010D000F88F0000003C01404438024000300140DD
:1010E000000002400004024000080240000C0240E0
:1010F000001002400014024000180240001C024090
:1011000042694A4042617047002A01D081617047BC
:101110000904816170470000014880687047000041
:10112000800000207047704770B50446206845690C
:1011300046682D490D4208D0F10506D5216C41F0D5
:10114000010121646FF48071416115F4813F09D080
:10115000F00507D5206C40F00200206421686FF490
:101160000070486115F4823F28D0F00526D594F828
:101170003E10628D94F83D00236B202908D13AB9C6
:1011800021280ED029280CD0282801D1212B08D0C5
:10119000206C40F00400206494F83E00102804D035
:1011A00008E0204601F036FF08E02068016841F4BD
:1011B0000071016021686FF48060486115F4843F1C
:1011C00009D0F00507D5206C40F0080020642168A4
:1011D0006FF400604861206C002804D02046BDE810
:1011E000704001F08BBB70BD000101002DE9F05F84
:1011F0008046D8F8000087694469456898F83E0041
:101200004C49DFF830A1DFF82CB1DFF82C918E1CAF
:101210000AF17E0A0BF13E0B10280AD0402808D0B4
:101220000C424DD0A8054BD54046BDE8F05F01F01B
:10123000DBBE14F0011F05D0A80503D5404601F020
:1012400034FE10E03B48801D044205D0A80503D5BC
:10125000404601F07AFD06E00C4204D0A80502D514
:10126000404601F078FD17EA090F14D014EA0A0F7E
:1012700008D0680506D5344204D14046BDE8F05F89
:1012800001F0CCBC344253D0A80551D54046BDE84E
:10129000F05F01F07EBC14EA0B0F08D0680506D59C
:1012A000344204D14046BDE8F05F01F02EBC344228
:1012B0003ED0A8053CD54046BDE8F05F01F0B2BB8A
:1012C0001C480E30044206D0A80504D54046BDE8AF
:1012D000F05F01F0E1BE17EA090F14D014EA0A0F1B
:1012E00008D0680506D5344204D14046BDE8F05F19
:1012F00001F059BE34421BD0A80519D54046BDE8BF
:10130000F05F01F042BE14EA0B0F08D0680506D565
:10131000344204D14046BDE8F05F01F015BE3442CE
:1013200006D0A80504D54046BDE8F05F01F0FEBD3B
:10133000BDE8F09F020001000400100070470000AB
:1013400070B50446002C04D094F83D00002510B17F
:1013500006E0012070BD84F83C50204600F07CF887
:10136000242084F83D002068016821F0010101601B
:1013700000F02EFA3349B0FBF1F122685160324A95
:101380006368934201D8491C07E04FF496735943B0
:101390004FF47A73B1FBF3F1491C23681962616859
:1013A00091420BD84900B0FBF1F2C2F30B02042AC0
:1013B00001D2042019E0B0FBF1F016E0A2689AB364
:1013C00001EBC10303EB0113B0FBF3F343F48043E0
:1013D0001B0530D04AB301EBC10202EB0111B0FB97
:1013E000F1F040F4804040F400402168C861D4E945
:1013F0000701084321680860D4E903100843216805
:101400008860D4E9050108432168C8602068016844
:1014100041F0010101602564202084F83D0025632E
:1014200084F83E50002070BD00E006E001EB41036F
:10143000B0FBF3F3CCE70120D7E701EB4101B0FBB0
:10144000F1F0D0E740420F00A086010070477047DE
:10145000704770477047000000B587B000681249B8
:1014600088421ED1C02002901220039001200490D7
:10147000032005900420069002A90C48FFF75EFDAA
:101480000B48016841F400110160006800F400108D
:10149000019000221146202000F0A2F8202000F048
:1014A00093F807B000BD0000005400400004024063
:1014B0004038024070477047024881680278114402
:1014C000816070478000002010B50B48016841F42E
:1014D00000710160016841F480610160016841F4BC
:1014E00080710160032000F09BF8002000F006F8F6
:1014F00000F03EF8002010BD003C024010B588B05E
:1015000001460022192000F06BF8192000F05CF869
:1015100000241348016841F001010160006800F0F7
:101520000100019002A903A800F02EF900F060F973
:1015300040000C49B0FBF1F1491E0C480A4A026018
:1015400040F2E732C26041600461846000F0A8FBB1
:1015500010B1012008B010BD044800F0EFFBF9E71E
:101560004438024040420F0000000140A4400020E7
:1015700010B5032000F054F8002211466FF00B0064
:1015800000F02EF8002211466FF00A0000F028F853
:10159000002211466FF0090000F022F800221146E7
:1015A000501F00F01DF800221146101F00F018F81F
:1015B00000220F21901E00F013F800220F21BDE839
:1015C0001040501E00F00CB800F01F0201219140A5
:1015D0004009800000F1E020C0F8001170470000D1
:1015E000F0B40D460D4B1B68C3F30223C3F107048F
:1015F000042C00D90424191D072901D2002300E07E
:10160000DB1E012606FA04F1491E294099409E403E
:10161000761E16403143F0BC02F070B80CED00E0CD
:1016200000F00701054A10684FF6FF03184040EA32
:101630000120034908431060704700000CED00E0F2
:101640000000FA052DE9F04704460D46002C13D0A2
:10165000DFF82491D9F80000EFB200F00F00A842A3
:101660000CD289F80070D9F8000000F00F00A842F1
:1016700004D00120BDE8F0870120FBE720683F4E41
:10168000810712D5400703D5306840F4E050306040
:101690002078000703D5306840F46040306030683F
:1016A000A16820F0F000084330602078C00731D0F6
:1016B000324960680839012808D002280BD0032875
:1016C00009D0096889070BD40120D3E70968890389
:1016D00006D40120CEE70968890101D40120C9E7B9
:1016E000316821F0030101433160FFF715FD8046A9
:1016F00041F2883A07E0FFF70FFDA0EB08005045E4
:1017000001D90320B6E73068616800F00C00B0EB47
:10171000810FF0D1D9F8000000F00F00A84209D9DC
:1017200089F80070D9F8000000F00F00A84201D03D
:1017300001209FE72078400705D53068E16820F454
:10174000E050084330602078000706D530682169F2
:1017500020F4604040EAC100306000F059F8316880
:10176000074AC1F30311515CC840064908600020D4
:10177000FFF7C4FE00207DE7003C0240083802402D
:10178000645C00087C0000200F2202600B4A136892
:1017900003F003034360136803F0F00383601368EE
:1017A00003F4E053C360126802F46042D20802619D
:1017B0000348006800F00F000860704708380240D6
:1017C000003C024001480068704700007C00002097
:1017D00000B5FFF7F7FF04490968044AC1F3822105
:1017E000515CC84000BD000008380240745C00082D
:1017F00000B5FFF7E7FF04490968044AC1F3423125
:10180000515CC84000BD000008380240745C00080C
:1018100010B51748006810F00C01164816D0431098
:10182000042912D0082911D1114C241F216801F07C
:101830003F02216849020AD52068C0F38810A0FB46
:1018400003010023FEF71AFD09E0184610BD2168C8
:101850000023C1F38811A1FB0001FEF70FFD2168F1
:10186000C1F30141491C4900B0FBF1F010BD00007B
:10187000083802400024F4002DE9F84F0446002CFB
:1018800010D02078DC4DC00757D0DB480830016805
:10189000C1F3810101290DD00068C0F38100022845
:1018A00003D00EE00120BDE8F88FD348001D00688A
:1018B000400206D5286880033FD5606870BB0120D0
:1018C000F1E76068B0F5803F10D0B0F5A02F12D0DE
:1018D000286820F480302860286820F48020286060
:1018E0006068E0B1FFF718FC064614E0286840F491
:1018F00080302860F4E7286840F480202860286859
:1019000040F480302860EBE7FFF706FC801B64287A
:1019100001D90320C7E728688003F5D50DE0FFF75C
:10192000FBFB064606E0FFF7F7FB801B642801D9A6
:101930000320B8E728688003F5D42078AF4F8007EC
:101940004FF0000849D5AC480830016811F00C0F81
:1019500009D00068C0F38100022814D1A648001DF8
:10196000006840020FD42868800704D5E068012889
:1019700001D0012097E72868216920F0F80040EAAB
:10198000C100286029E0E068B8B101203860FFF7A5
:10199000C3FB064606E0FFF7BFFB801B022801D908
:1019A000032080E728688007F5D52868216920F0A2
:1019B000F80040EAC10028600FE0C7F80080FFF798
:1019C000ABFB064606E0FFF7A7FB801B022801D908
:1019D000032068E728688007F5D42078000729D518
:1019E000DFF814928648616909F1740989B101210F
:1019F0000160FFF791FB064606E0FFF78DFB801BB9
:101A0000022801D903204EE7D9F800008007F4D559
:101A100010E0C0F80080FFF77FFB064606E0FFF706
:101A20007BFB801B022801D903203CE7D9F800008A
:101A30008007F4D42078400772D50026DFF8B8A1DB
:101A40000AF1400ADAF80000C0000BD4DAF800000E
:101A500040F08050CAF80000DAF8000000F0805032
:101A600000900126DFF89CB1DBF80000C00515D41A
:101A7000DBF8000040F48070CBF80000FFF74CFB6F
:101A8000814607E0FFF748FBA0EB0900022801D9D7
:101A9000032008E7DBF80000C005F3D5DFF858B1F4
:101AA000A0680BF1700B012813D0052818D0DBF8C3
:101AB000000020F00100CBF80000DBF8000020F06F
:101AC0000400CBF80000A06830B3FFF725FB814687
:101AD0001DE0DBF8000040F00100CBF80000F2E769
:101AE000DBF8000040F00400CBF80000DBF8000059
:101AF00040F00100CBF80000E5E7FFF70DFBA0EB9D
:101B0000090141F28830814201D90320CBE6DBF89C
:101B100000008007F1D512E0FFF7FEFA81460AE0E7
:101B200015E0FFF7F9FAA0EB090141F28830814294
:101B300001D90320B7E6DBF800008007F1D4012EBD
:101B400005D1DAF8000020F08050CAF80000A06942
:101B5000C0B3294908310968C1F38101022949D07C
:101B6000022805D0C7F86080FFF7D6FA04463CE0AB
:101B7000C7F86080FFF7D0FA064606E0FFF7CCFA18
:101B8000801B022801D903208DE628688001F5D446
:101B9000D4E907010843616AA26A4FF0FF33890163
:101BA00003EB520241EA0241084394F82C1040EA48
:101BB00001611148001D016001203866FFF7ACFA91
:101BC000044607E014E0FFF7A7FA001B022801D93A
:101BD000032068E628688001F5D509E0FFF79CFA44
:101BE000001B022801D903205DE628688001F5D496
:101BF000002058E6012056E6003802400000474227
:101C0000800E4742007000404FF0E021042804D0CD
:101C1000086920F0040008617047086940F004007A
:101C20000861704710B5401EB0F1807F01D30120DC
:101C300010BD4FF0E02460610F21601701F05EFDE0
:101C40000020A06107202061002010BD7047704770
:101C500030B590F83820012A20D0012380F83830A0
:101C6000022280F839200268546824F0700454601D
:101C7000026854680D682C4354600268946824F02C
:101C8000800494600268946849680C43946080F80A
:101C90003930002180F83810002030BD022030BDDE
:101CA00010B50446002C03D094F8390010B107E0B9
:101CB000012010BD002084F83800204600F00CF808
:101CC000022084F83900211D206801F0AFFE0120B8
:101CD00084F83900002010BD08B500681549B0F13E
:101CE000804F14D0144A904223D1086840F002007B
:101CF0000860086800F002000090002205211D2005
:101D0000FFF76EFCBDE808401D20FFF75DBC0868CA
:101D100040F001000860086800F001000090002217
:101D200005211C20FFF75CFCBDE808401C20FFF7E4
:101D30004BBC08BD40380240000400400168CA683E
:101D400042F00102CA600068016841F001010160CF
:101D500000207047022180F8391001680A6A41F2B8
:101D600011131A4207D10A6A9B101A4203D10A685A
:101D700022F001020A60012180F83910002070472A
:101D80000168CA6822F00102CA600068016A41F273
:101D90001112114207D1016A9210114203D1016858
:101DA00021F0010101600020704770B5044694F8ED
:101DB0003800012817D0012584F83850022084F813
:101DC00039002068826822F0770222F47F42826024
:101DD000086850283AD00DDC20285FD005DCA0B37D
:101DE000102864D155E0022070BD30285BD0402817
:101DF0005DD13FE0602833D070280CD0B0F5805F13
:101E000003D0B0F5005F52D113E02068816821F063
:101E1000070181604BE0CB68D1E90121206801F026
:101E200067FE2068816821F0770141F077018160C9
:101E30003DE0CB68D1E90121206801F059FE20681E
:101E4000816841F48041816031E01DE0CA684968E1
:101E5000206801F05FFE5021206801F053FE26E06B
:101E6000CA684968206801F066FE6021206801F0B8
:101E700049FE1CE0CA684968206801F04BFE402119
:101E8000206801F03FFE12E00021206801F03AFED8
:101E90000DE01021206801F035FE08E020212068C7
:101EA00001F030FE03E03021206801F02BFE3834D1
:101EB00065700020207070BD704770B504462068C2
:101EC00001694FF00005C943890716D4C168C943A9
:101ED000890712D4E91E01610120207620688069FB
:101EE000800703D02046FFF7E7FF05E0204600F01B
:101EF0009BF8204600F099F8257620680169C943CF
:101F0000490718D4C168C943490714D46FF00401C4
:101F10000161022020762068806910F4407F03D0A0
:101F20002046FFF7C9FF05E0204600F07DF8204677
:101F300000F07BF8257620680169C943090717D4AA
:101F4000C168C943090713D46FF008010161042077
:101F500020762068C069800703D02046FFF7ACFFD9
:101F600005E0204600F060F8204600F05EF8257697
:101F700020680169C943C90618D4C168C943C906A4
:101F800014D46FF010010161082020762068C06928
:101F900010F4407F03D02046FFF78EFF05E0204677
:101FA00000F042F8204600F040F8257620680169EC
:101FB000C943C90708D1C168C943C90704D1891EEB
:101FC0000161204600F032F820680169C943090622
:101FD00009D4C168C943090605D46FF080010161C5
:101FE0002046FFF733FE20680169C943490609D43A
:101FF000C168C943490605D46FF04001016120461C
:1020000000F04EF820680169C94389060BD4C16805
:10201000C943890607D46FF0200101612046BDE85D
:102020007040FFF714BE70BD7047704710B5006870
:102030001349884203D1BDE81040FFF73DBA0024A0
:10204000B0F1804F0ED00F4988420AD10E48FFF7F9
:1020500097FE0D48FFF77EFE0C4800F023F80C4871
:10206000047110BD0B48FFF78BFE0A48FFF772FEA4
:10207000094800F017F8094801218170047010BD6B
:102080000000014000040040B0410020703E0020EC
:10209000703F002074410020303E00203841002075
:1020A0007047704770B5044601252068C16821F467
:1020B000F071C1602068416921F001014161206B2C
:1020C0000026002807D021684969090602D5204961
:1020D000016500E00665606B38B121684969490611
:1020E00002D51C49016500E00665206841690906C2
:1020F0000CD5416921F080014161206B30B1FEF7C0
:102100007DFD10B1206B066500E000252068416967
:1021100049060DD5416921F040014161606B38B13C
:10212000FEF76CFD18B1606B0665012500E0002527
:10213000012D0AD1E684E685E663202084F8390083
:1021400084F83A002046FFF7ACFF002070BD000085
:10215000553C0008F13B00087047000070B504468C
:1021600022681068D168526900F00F03002B08D173
:10217000850606D58D0604D52046BDE8704001F0E1
:10218000A8BD002B5FD002F0010301F490752B4332
:1021900059D0C30705D0CB0503D5E36B43F001034A
:1021A000E363430705D5D30703D0E36B43F0020392
:1021B000E363830705D5D30703D0E36B43F0040340
:1021C000E363030705D5D20703D0E26B42F00802B0
:1021D000E263E26B002A2BD0800604D5880602D584
:1021E000204601F076FD20684069C0F38010E16B65
:1021F00001F00801014320D0204601F046FD20688F
:102200004169490615D5416921F040014161606B82
:1022100058B116490165606BFEF7F0FC002807D045
:10222000606B016DBDE8704008472046FFF794FFE2
:1022300070BD2046FFF790FF70BD2046FFF78CFF72
:102240000020E06370BD020606D50A0604D52046CC
:10225000BDE8704001F010BF4006F3D54806F1D547
:102260002046BDE8704001F01EBD00005B3B000849
:1022700070B50446002C04D094F83900002510B144
:1022800006E0012070BD84F83850204600F022F8A6
:10229000242084F839002068C16821F40051C1600D
:1022A000204601F05FFD2068016921F49041016141
:1022B0002068416921F02A0141612068C16841F428
:1022C0000051C160E563202084F8390084F83A00A9
:1022D000002070BD2DE9F04387B00546DFF8FCC053
:1022E00028683F490222012303240727002660456E
:1022F0001CD1086840F400300860086800F4003021
:1023000001900C200290039204930594069702A971
:102310003448FEF713FE002211462620FFF760F92D
:102320002620FFF751F907B0BDE8F083DFF8B8C009
:102330006045F8D1086840F480200860086800F41F
:10234000802001904FF44060029003920493059422
:10235000069702A92548FEF7F1FD264C2448206087
:102360004FF00069C4F80490A660E6600715276185
:102370006661A661E6614FF40038C4F820806662A9
:102380002046FEF735FD18B1A7211BA001F0BBFECA
:102390006C63A5631648174C303060342060C4F875
:1023A00004904020A060E66027616661A661E66156
:1023B000C4F8208066622046FEF71AFD18B1B921E4
:1023C0000DA001F0A0FE2C63A5630022114627207A
:1023D000FFF706F92720FFF7F7F8A4E700440040CD
:1023E000403802400000024000480040000802401F
:1023F00028600240B03E00202E2E2F5372632F75AE
:10240000736172742E63000037B582B004461346C0
:1024100094F83A00202802D0022005B030BD039A7B
:10242000A2B39BB394F83800012832D0012084F87D
:102430003800A262A3850025E563222084F83A00D3
:10244000616B1548C863616B14480864616B14487C
:10245000C864606B05652168606B091DFEF732FD7D
:10246000206801684168019184F83850C16841F4DE
:102470008071C1602068416941F0010141612068BB
:10248000416941F0400141610020C6E7FFE70120BA
:10249000C3E70220C1E70000B53B00081D3C00086F
:1024A0006B3B000890F83A30202B01D00220704797
:1024B000D1B1CAB190F83830012B17D08162828532
:1024C000C2850021C163222280F83A2080F83810AA
:1024D00001684A6942F001024A610068C16841F43A
:1024E0009071C16000207047012070470220704742
:1024F00070B5044620684068C5B2194A10780028B3
:1025000016D000210223012815D0164E02281BD018
:1025100003280FD1117033712046FFF7C3FD86F8F1
:1025200038502A46711D2046BDE87040FFF76CBF49
:102530000120107070BDFE2D04D01170E08D801C44
:10254000E08570BD137070BD3078A84202D10320C1
:10255000107070BD1170E08DC01CE08570BD000072
:1025600060000020703F002010B5006821498842BB
:1025700033D12148FFF704FC2049022081F85A009A
:1025800091F858000022082804D00B281BD081F8AD
:10259000582010BD58318A7009200870012081F838
:1025A0003B00164801F032F90521144801F0BBFD4B
:1025B00012490A227B31124800F074F8BDE810403D
:1025C0000D48FFF7BBBB91F8563091F8640001EB62
:1025D0000313187581F8582010BD0A498842FBD1B1
:1025E0000949032008710A4808490068BDE81040FD
:1025F00002F0FABF0044004074410020E040002097
:10260000303E002000480040703F00206400002061
:102610007800002070470000F7B5044694F83900B0
:10262000202801D00220FEBD019979B372B394F83D
:10263000380001282DD0012084F838002162A284BE
:10264000E2840025E563212084F83900236B1248D9
:10265000D863236B11481864236B1148D864206B2E
:10266000056520681346001D266B02463046FEF7BE
:1026700029FC21686FF04000086084F83850206819
:10268000416941F0800141610020FEBDFFE701206A
:10269000FBE70220F9E70000273C0008813C000826
:1026A0006B3B000890F83930202B01D00220704796
:1026B000A9B1A2B190F83830012B12D00162828406
:1026C000C2840021C163212280F8392080F83810AB
:1026D0000068C16841F08001C1600020704701209E
:1026E00070470220704700002DE9F041074660481E
:1026F0003968002481427CD15E4D05F15B0695F876
:102700005820012A1ED0072A36D0092A46D0022A8C
:1027100056D00C2A57D00D2A67D00F2A7BD0112A09
:1027200069D085F89340284601F070F83846FFF7E5
:10273000B9FC0E2231463846FFF7B4FE85F8584002
:10274000BDE8F08185F8584085F89340494801F08C
:102750005DF83846FFF7A6FC0E2231463846FFF7F3
:10276000A1FE464844490268D16200684462BDE85F
:10277000F0414248FFF7E2BA082085F8580085F892
:1027800093403C4801F042F83846FFF78BFC314655
:102790003846BDE8F0410B22FFF784BE0A2085F8D9
:1027A000580085F89340334801F030F83846FFF779
:1027B00079FC31463846BDE8F0410B22FFF772BE86
:1027C00085F85840BCE70B2085F8580085F8934001
:1027D000284801F01BF83846FFF764FC31463846BC
:1027E000BDE8F0410F22FFF75DBE0E2085F85800CE
:1027F00002E034E00FE020E085F893401D4801F04E
:1028000005F83846FFF74EFC31463846BDE8F04142
:102810000B22FFF747BE102085F8580085F893403B
:10282000144800F0F3FF3846FFF73CFC31463846C9
:10283000BDE8F0410B22FFF735BE122085F85800A5
:1028400085F893400B4800F0E1FF3846FFF72AFC7B
:1028500031463846BDE8F0410B22FFF723BE084859
:102860008142AFD10748C470BDE8F04100F0DEBF3F
:1028700000440040E040002040420F00744100202E
:1028800000480040703F00207047FEE70148FEF717
:102890004BBC0000C03F00200148FEF7A7BC000071
:1028A000C03F002010B5806B01680A6822F4806286
:1028B0000A6000214185426B1165826B116590F8B9
:1028C0003D302022602B0BD080F83D2080F83E1058
:1028D00001680A6822F001020A60FEF72FFD10BDB0
:1028E00080F83D2080F83E10016401680A6822F0FB
:1028F00001020A60FEF716FC10BD000070B5044628
:1029000094F83D1000262025206829292FD02A2957
:102910002DD094F83D10602904D04168090501D4F8
:1029200084F83D50266384F83E60016821F400611C
:10293000016020684168090539D5416821F40061CA
:102940004160606B90F835203449012A14D001654C
:10295000606BFEF753F948B32068016821F001016C
:10296000016084F83D50606B016D88472FE026635D
:10297000282184F83D10D8E7A06B0165A06BFEF715
:102980003DF998B120684169C943490604D40169F9
:10299000606A421C626201702068016821F00101D6
:1029A000016084F83D50A06B016D88470FE094F8FA
:1029B0003D1060291DD04169C943490604D401690D
:1029C000606A421C626201702046FEF7B7FC94F810
:1029D0003D0028280CD1206C400709D51048E06242
:1029E000266384F83D5084F83E602046FEF72EFDB5
:1029F00070BD84F83D5026644169C943490604D43A
:102A00000169606A421C626201702068016821F0FD
:102A1000010101602046FEF785FBD8E7A5280008E4
:102A20000000FFFF10B5C26A438D0168042B0FD070
:102A3000438D032B1AD0438D022B2AD00A69416A99
:102A40004B1C43620A70418D491E4185002010BD18
:102A50004A6822F480624A6001680A69416A4B1C34
:102A600043620A70418D491E4185EFE74A6822F4AE
:102A700080624A6001680A6822F480620A60016824
:102A80000A69416A4B1C43620A70418D491E4185A7
:102A9000DCE7022A2AD0012A28D00A6842F4007210
:102AA0000A6001680A69416A4B1C43620A70418DE1
:102AB000491E418501680A69416A4B1C43620A70DC
:102AC000418D491E418501684A6822F440724A607E
:102AD000202180F83D100021016390F83E20402A1B
:102AE0000ED080F83E10FEF7B2FCAFE70A6822F481
:102AF00080620A6001680A6842F480720A60D0E766
:102B000080F83E10FEF7A5FCA0E710B590F83D1048
:102B1000222937D1418D032911D901680A69416AF7
:102B20004B1C43620A70418D491E4185418D03292A
:102B300028D10068416821F48061416022E00129C8
:102B400000D0F9B901680A6822F480620A6001685D
:102B50004A6822F4E0624A6001680A69416A4B1CD3
:102B600043620A70418D491E4185202180F83D1045
:102B70000021016390F83E20402A05D080F83E10E5
:102B8000FEF765FC002010BD80F83E10FEF761FCEA
:102B9000F8E710B5C16A90F83D20212A37D1428D5F
:102BA0004AB1416A4A1C4262026809781161418D4A
:102BB000491E41852BE020230022042912D0082938
:102BC00010D011F5803F0DD001684C6824F4E0640A
:102BD0004C601121016380F83E2080F83D30FEF703
:102BE00037FC14E001684C6824F4E0644C60016830
:102BF0000C6844F400740C60026380F83D3090F877
:102C00003E10402905D080F83E20FEF721FC002030
:102C100010BD80F83E20FEF71DFCF8E710B590F8D7
:102C20003D1090F83E30C26A048D002C01D121295C
:102C300004D0212936D0402B32D042E0202400237A
:102C4000042A12D0082A10D012F5803F0DD0016856
:102C50004A6822F4E0624A601121016380F83E3044
:102C600080F83D40FEF7F4FB2BE001684A6822F44F
:102C7000E0624A6001680A6842F400720A60036315
:102C800080F83D4090F83E10402904D080F83E3056
:102C9000FEF7DEFB15E080F83E30FEF7DBFB10E0D0
:102CA00022290ED1418D71B190F83E10402910D0EB
:102CB000416A4A1C4262026809781161418D491ECD
:102CC0004185002010BD0068416821F480614160A9
:102CD000F7E7016DB9B1016D012928D0016D022915
:102CE000EFD190F83D10222929D090F83D102129EC
:102CF000E7D1416A4A1C4262026809781161418D3C
:102D0000491E4185DDE7C16C012908D0816C02684C
:102D1000C1F307211161016D491C0165D1E7816C87
:102D20000268C9B21161016D891C0165C9E7816C36
:102D30000268C9B21161016D491C0165C1E70068F3
:102D4000016841F480710160BBE7416C0068C9B261
:102D500001610020704778B590F83E40C26A056B6B
:102D600090F83D6000230168222E04D048698869EC
:102D70000090002078BD066D0EB9402C02D0046D85
:102D800024B107E0486988690090F2E70469B4F566
:102D9000404F19D0448D14B3448D012C27D0428D5F
:102DA000022A64D00A6842F480620A6001684A68B4
:102DB000120503D54A6842F480524A6001684A69A4
:102DC000896900910365D4E74A698A6900920A68B3
:102DD00042F480720A60016D491C0165C9E74A69C5
:102DE0008A6900920A6842F400720A60EAE712F502
:102DF000803F0DD0042A2DD0082A2BD0122D29D0A7
:102E0000C26A022A1DD00A6822F480620A601CE0AD
:102E10000A6822F480620A6001684A68120508D5CF
:102E20000A6822F480620A6001684A69896900912F
:102E3000C8E74A698A6900920A6842F400720A6027
:102E4000C0E70A6842F480620A6001684A698969D9
:102E50000091B7E70A6822F480620A6001684A6953
:102E60008A6900920A6842F400720A60AAE7C26A9C
:102E7000022A09D00A6822F480620A6001680A689E
:102E800042F400620A6003E00A6842F480620A6069
:102E900001684A68120503D54A6842F480524A60C4
:102EA00001684A69896900918CE790F83E104029D1
:102EB00009D00169B1F5804F14D0016D19B3016DCE
:102EC000012929D030E0016D31B1416C0068C9B2EF
:102ED00041F00101016127E0416C006801F0FE0151
:102EE000016121E090F83D10212906D0416C006875
:102EF000C9B241F00101016116E0416C006801F0C6
:102F0000FE01016110E0416C006801F44071F022A3
:102F100042EAD111016107E0416C006801F440719F
:102F2000F12242EAD111016100207047418D002950
:102F300008D001680A69416A4B1C43620A70418DDE
:102F4000491E41850020704710B590F83D20418D05
:102F5000002918D001680B69416A4C1C44620B704F
:102F6000418D491E4185418D69B92A2A0BD10168DD
:102F70004A6822F480624A6022210163282180F895
:102F80003D10FEF797FA002010BD418D002908D0B2
:102F9000416A4A1C4262026809781161418D491EEA
:102FA00041850020704710B590F83D20418D0029E3
:102FB00018D0416A4B1C4362036809781961418D3E
:102FC000491E4185418D69B9292A0BD101684A689A
:102FD00022F480624A6021210163282180F83D109B
:102FE000FEF769FA002010BD10B500210268936950
:102FF000DB435B0700D501219269D243120602D55B
:10300000828992B201E0028B92B2FEF78CF8002026
:1030100010BD00002DE9F04190F83D20C36A002565
:103020001C4E202701686FF48064042B01D0082B0C
:1030300001D1282A05D0212A17D04C610020BDE8F3
:10304000F081C6624A6822F4E0624A6001684C611D
:1030500001680A6822F480620A60056380F83D70A6
:1030600080F83E50FEF7F2F9E8E7C66221220263DB
:1030700080F83D7080F83E504A6822F4E0624A6071
:1030800001684C6101680A6822F480620A60FEF7F8
:1030900012FAD3E70000FFFF38B590F83D10026840
:1030A000536823F4E063536000230268546900947A
:1030B000146844F0010414600268146824F4806405
:1030C00014600268546824050BD590F83D40222C0A
:1030D0002BD090F83D402A2C27D0446B246864689C
:1030E0004485448DE4B15469E443640707D414690A
:1030F000426A551C45621470428D521E4285026818
:103100005469E443640607D41469426A551C456255
:103110001470428D521E4285026C42F00402026419
:10312000026C3AB1FFF7EAFB22E0846B2468646822
:103130004485D6E72022282909D02A2907D0292921
:1031400005D0046B222C0CD022290AD010E00949AA
:10315000C162036380F83D2080F83E30FEF776F9C7
:1031600006E0036380F83D2080F83E30FEF7A2F9C8
:10317000002038BD0000FFFF7FB5154813490160EE
:103180004FF48031416000248460046184610462F2
:10319000C46210498162C4600125C5610463456150
:1031A000FDF73BFC18B153210BA000F0ACFF06204B
:1031B00000900195029469460548FDF7E1FA002860
:1031C00003D05D2104A000F09EFF7FBD00200140E0
:1031D000144000200100000F2E2E2F5372632F6128
:1031E00064632E63000000007FB515481349016039
:1031F0004FF4803141600024846004618461046282
:10320000C46210498162C4600125C56104634561DF
:10321000FDF703FC18B176210BA000F074FF072026
:1032200000900195029469460548FDF7A9FA002827
:1032300003D0802104A000F066FF7FBD0021014083
:103240005C4000200100000F2E2E2F5372632F616F
:1032500064632E63000000001CB50E490C48086032
:103260000846FDF78CFC18B147210BA000F04BFF7E
:10327000002000900190102269460648FDF72FFCBF
:10328000002803D0502104A000F03DFF1CBD000029
:1032900000740040AC3F00202E2E2F5372632F6429
:1032A00061632E630000000008B50548016841F421
:1032B00000110160006800F40010009008BD0000DB
:1032C0003038024010B590B003220021012001F0F7
:1032D000ADFF154C206120B100231A46194602F0BB
:1032E000D1F8142211490BA8FCF7F9FF00210BA813
:1032F00001F04DF8606014220C49143106A8FCF767
:10330000EEFF002106A801F042F8A0601422074950
:10331000283101A8FCF7E3FF002101A801F037F8EC
:10332000E06010B010BD000068000020285A0008BE
:103330002DE9F04F87B000246348016841F0100187
:103340000160016801F010010191016841F0040180
:103350000160016801F004010191016841F0800100
:103360000160016801F080010191016841F00101F3
:103370000160016801F001010191016841F0020161
:103380000160016801F002010191016841F008014A
:103390000160006800F008000190DFF830A1002211
:1033A0000C215046FDF7B0FEDFF824B140F60208CC
:1033B000002241465846FDF7A7FE4FF480590022EF
:1033C00049464448FDF7A0FE002220214248FDF76F
:1033D0009BFE04200290012503950494059402A904
:1033E0005046FDF7ABFD0820029003950227049795
:1033F000059402A95046FDF7A1FD47F6F37002902F
:1034000003260396049402A95046FDF797FD4EF259
:10341000FF3002900396049402A92E48FDF78EFD1A
:10342000CDF8088003950494059402A95846FDF749
:1034300085FD49F2107002900396049402A9584643
:10344000FDF77CFD4FF61F7002900396049402A9CD
:103450002148FDF773FDE80302900394049502A947
:103460005046FDF76BFD48F2FF70029003960494FE
:103470001A4E02A93046FDF761FD4FF460500290EC
:103480000394049502A93046FDF758FDA803029065
:103490000394049702A93046FDF750FDCDF808903B
:1034A00003950494059402A90A48FDF747FD2020DE
:1034B0000290112003900495059402A90648FDF797
:1034C0003DFD07B0BDE8F08F3038024000100240EB
:1034D000000002400008024000040240000C0240CC
:1034E00010B50E480C4901600D4941600021816012
:1034F000C1604FF48042026141618161C16101623A
:10350000FDF71EFF002805D0BDE810404C2105A0A6
:1035100000F0F9BD10BD000000540040C03F002085
:10352000A08601002E2E2F5372632F6932632E6303
:103530000000000010B5002205210C20FEF750F815
:103540000C20FEF741F800220F210E20FEF748F86C
:103550000E20FEF739F800220F211220FEF740F866
:103560001220FEF731F8002205211F20FEF738F85F
:10357000BDE810401F20FEF727B8000010B586B048
:1035800015484FF080410160A8214160002484600B
:10359000C4600461FEF784FB18B149210FA000F05C
:1035A000B2FD4FF48050029002A90B48FEF7FDFBDC
:1035B00018B14F2109A000F0A6FD009401946946BE
:1035C0000548FEF745FB002803D0562103A000F074
:1035D0009AFD06B010BD0000744100202E2E2F531E
:1035E00072632F74696D2E630000000010B586B001
:1035F000154814490160002444608460C46004617B
:10360000FEF74EFB18B1672110A000F07CFD4FF4CF
:103610008050029002A90C48FEF7C7FB18B16D213B
:103620000AA000F070FD0094019469460648FEF778
:103630000FFB002803D0742104A000F064FD06B045
:1036400010BD000000040040B04100202E2E2F537A
:1036500072632F74696D2E630000000010B50D4871
:103660000B4901600C49416000218160C16001612A
:103670000C2242618161C161FEF7FAFD002805D08C
:10368000BDE81040502105A000F03DBD10BD000078
:1036900000440040303E002040420F002E2E2F53A9
:1036A00072632F75736172742E63000010B50D483C
:1036B0000B4901604FF4E131416000218160C1603C
:1036C00001610C2242618161C161FEF7D1FD0028D8
:1036D00005D0BDE81040632103A000F014BD10BD6B
:1036E00000480040703E00202E2E2F5372632F752D
:1036F000736172742E630000FEE770470907090EBC
:10370000002806DA00F00F0000F1E02080F8141D18
:10371000704700F1E02080F80014704710B50446AF
:10372000A279AC2A08D01F2A01D02F2A04D10F2059
:10373000B2FBF0F0401EC87401222046FCF7EBFEFD
:103740000020207110BD2DE9F04104460B4694F88D
:103750003810601DFCF7D6FE002648B360790D28AE
:103760000ED00C282AD8194601220B786078012542
:1037700005EB43031844237A984206D2032212E051
:1037800019462046FFF7CAFF18E0002308E004EBC3
:10379000430501EB0310AF790773ED7945735B1CAB
:1037A00008789842F3DC2046FCF7B5FE267105E068
:1037B000022219462046FCF7AEFE26711F21601D2D
:1037C000BDE8F041FCF7A4BD0448072101700021C9
:1037D000C17001214170817000F028B8703F002055
:1037E00010B504460120E070204600F01FF80420C8
:1037F000207194F8272004F12401BDE81040D21C68
:103800000148FEF709BF0000703E002090F89310B9
:103810000548002903D001220821FDF775BC0022CC
:103820000821FDF771BC000000100240C278054875
:103830004FF48051002A02D00122FDF765BC00221E
:10384000FDF762BC00080240002000F089FD01F095
:10385000FDF9F9E7144C0126144DDFF854A0642754
:103860004FF0FA084FF40069042000F079FD207948
:1038700028B91F22611D0F48FEF714FE2671288803
:10388000401C80B22880B0FBF7F107FB110202EB6D
:103890004200C0EBC210B8EBC00FE5D94946504614
:1038A000FDF72EFCE0E70000703F002068000020DC
:1038B00000000240703E0020084C094D4FF0FF36DA
:1038C000002332461946206901F0D2FC28790328EA
:1038D000F6D104490248FFF736FFF1E768000020FF
:1038E000703F0020E040002000F047BD30B593B0AD
:1038F00000252748016841F080510160006800F010
:10390000805001902348016841F4804101600068C3
:1039100000F4804001900224079401200A901020B6
:103920000B900D940E9508200F90A82010901194E4
:103930000420129007A8FDF79FFF18B1BA2116A026
:1039400000F0E1FB0F200290039404954FF4A05087
:1039500005904FF480500690052102A8FDF772FEF5
:1039600018B1C8210CA000F0CEFBFDF72BFF4FF4DF
:103970007A71B0FBF1F0FEF755F90420FEF744F937
:1039800000220F21501EFDF72BFE13B030BD0000AA
:1039900040380240007000402E2E2F5372632F6D6E
:1039A00061696E2E630000001048016841F47001E7
:1039B00001600F48016841F0010101600C4A0021DB
:1039C0000832116002680B4B1A400260031D0A4A5C
:1039D0001A60026822F48022026005480C300160FF
:1039E00002495806803908607047000088ED00E001
:1039F00000380240FFFFF6FE103000240148FEF7B9
:103A00005CBA0000A44000200148FEF756BA00004E
:103A1000744100200148FEF750BA0000B041002078
:103A20000148FDF77EB80000AC3F00202DE9F041D1
:103A30000268244D244E254FDFF894C0254B4FF0EB
:103A40008048A84209D0404507D0B04205D0B842CE
:103A500003D0604501D0984203D122F070044A6837
:103A60002243A8421BD0404519D0B04217D0B842DB
:103A700015D0604513D0984211D0174CA0420ED0FB
:103A8000164CA0420BD0164CA04208D0154CA042B8
:103A900005D0154CA04202D0144CA04203D122F410
:103AA0004074CA68224302608A68C2620A688262FD
:103AB000A84201D0984201D1096901630121416105
:103AC000BDE8F08100000140000400400008004013
:103AD000000C00400004014000400140004401404F
:103AE0000048014000180040001C00400020004039
:103AF00010B5846824F47F4442EA03220A43224337
:103B0000826010BD826822F070020A4342F0070111
:103B10008160704710B5036A046A24F001040462EE
:103B2000846924F0F00444EA021423F00A020A43F0
:103B30008461026210BD10B5036A23F010030362B2
:103B40008469036A24F4704444EA023223F0A00337
:103B500043EA01118261016210BD10B5806B002142
:103B6000C185C184FEF7F8FA10BD70B5846B20687A
:103B70004069C0F3C01094F839100025212904D100
:103B800018B1E584204600F09BF820684069C0F336
:103B9000801094F83A10222904D118B1E585204606
:103BA00000F073F8E06B40F01000E0632046FEF791
:103BB000D3FA70BD10B50146886B09680968C9055C
:103BC00013D40021C1850168CA6822F48072CA60DA
:103BD00001684A6922F001024A6101684A6922F0DB
:103BE00040024A61202180F83A10FEF7BDFC10BD6A
:103BF00010B5806B0022416B0A65016B002902D071
:103C0000096D002909D1C284C285C263202180F8D0
:103C1000391080F83A10FEF744FA10BD10B5806BE9
:103C2000FEF7F8FC10BD10B50146886B09680968FD
:103C3000C9050CD40021C18401684A6922F08002C0
:103C40004A610068C16841F04001C16010BDFEF7E3
:103C50004BFD10BD10B5806B0022016B0A65416BF6
:103C6000002902D0096D002909D1C284C285C2632E
:103C7000202180F8391080F83A10FEF712FA10BDB2
:103C800010B5806BFEF700FE10BD0168CA6822F413
:103C90009072CA6001684A6922F001024A612021DB
:103CA00080F83A10704710B50168CA6822F04002E7
:103CB000CA60202180F83910FEF716FD002010BDE3
:103CC0000168CA6822F0C002CA60202180F8391059
:103CD000704710B590F83A10222901D0022010BD8B
:103CE0008168B1F5805F11D0016919B30168496835
:103CF00001F07F03816A4A1C82620B70C18D491EEC
:103D00000904090CC1851CD0002010BD816A02691C
:103D10003AB102685268D2B20A80816A491C816253
:103D2000ECE702685268C2F308020A80816A891CC3
:103D30008162E3E701684A68816A4B1C83620A700A
:103D4000DCE70168CA6822F49072CA6001684A69B7
:103D500022F001024A61202180F83A10FEF704FCAB
:103D6000002010BD2DE9F04104462068016921F4CE
:103D70004052E168114301612068C26849F20C6158
:103D80008A432369A168E569194363692B43194391
:103D90001143C1602068416921F44071A2690A435E
:103DA0004261E069B24AB34964253226B0F5004F5A
:103DB00059D02068884201D090427DD1FDF718FD8E
:103DC00000EBC00101EB001061688900B0FBF1F766
:103DD000FDF70EFD00EBC00101EB001061688900EA
:103DE000B0FBF1F0B0FBF5F06FF01801484307EBC2
:103DF000800006EB0010B0FBF5F000F0F007FDF7D7
:103E0000F7FC00EBC00101EB001061688900B0FB1A
:103E1000F1F0B0FBF5F007EB0017FDF7E9FC00EB64
:103E2000C00101EB001061688900B0FBF1F8FDF7FB
:103E3000DFFC00EBC00101EB001061688900B0FB02
:103E4000F1F0B0FBF5F06FF01801484308EB80008B
:103E500006EB0010B0FBF5F0216800F00F003844CD
:103E60008860BDE8F0812068884201D0904256D138
:103E7000FDF7BEFC00EBC00101EB001061684900DA
:103E8000B0FBF1F0B0FBF5F00701FDF7B1FC00EB82
:103E9000C00101EB001061684900B0FBF1F8FDF7CB
:103EA000A7FC00EBC00101EB001061684900B0FB0A
:103EB000F1F0B0FBF5F000E086E06FF01801484348
:103EC00008EB800006EBC000B0FBF5F000F0F80056
:103ED00007EB4007FDF78CFC00EBC00101EB001085
:103EE00061684900B0FBF1F8FDF782FC00EBC0010E
:103EF00001EB001061684900B0FBF1F0B0FBF5F098
:103F00006FF01801484308EB800006EBC000B0FBDF
:103F1000F5F0216800F0070038448860A1E7FDF75C
:103F200057FC00EBC00101EB001061684900B0FBD9
:103F3000F1F0B0FBF5F00701FDF74AFC00EBC00122
:103F400001EB001061684900B0FBF1F8FDF740FC9F
:103F500000EBC00101EB001061684900B0FBF1F01B
:103F6000B0FBF5F06FF01801484308EB800006EB5A
:103F7000C000B0FBF5F000F0F80007EB4007FDF7DC
:103F800027FC00EBC00101EB001061684900B0FBA9
:103F9000F1F8FDF71DFC00EBC00101EB00106168BA
:103FA0004900B0FBF1F0B0FBF5F06FF018014843A9
:103FB00008EB800006EBC000B0FBF5F0216800F0D4
:103FC0000700384488604CE7FDF702FC00EBC001B5
:103FD00001EB001061688900B0FBF1F7FDF7F8FB19
:103FE00000EBC00101EB001061688900B0FBF1F04B
:103FF000B0FBF5F06FF01801484307EB800006EBCB
:104000000010B0FBF5F000F0F007FDF7E1FB00EB6E
:10401000C00101EB001061688900B0FBF1F0B0FB5A
:10402000F5F007EB0017FDF7D3FB00EBC00101EB48
:10403000001061688900B0FBF1F8FDF7C9FB00EBE7
:10404000C00101EB001061688900B0FBF1F0B0FB2A
:10405000F5F06FF01801484308EB800006EB001004
:10406000B0FBF5F0216800F00F0038448860F8E6F6
:10407000001401400010014090F83910212901D0AE
:10408000022070478168B1F5805F0CD0016A4A1C3C
:104090000262026809785160C18C491E0904090C4A
:1040A000C18410D019E0016A02680988C1F30801CF
:1040B0005160016919B1016A491C0162ECE7016AAA
:1040C000891C0162E8E70168CA6822F08002CA60C0
:1040D0000068C16841F04001C160002070470000E5
:1040E0000148FEF73BB80000303E002010B5044800
:1040F000FEF734F8BDE810400148FEF7F9B90000BA
:10410000703E0020FEE7FEE702E008C8121F08C16B
:10411000002AFAD170477047002001E001C1121F48
:10412000002AFBD170472DE9F05F04460D4694F854
:10413000560000274FF0070A4FF0FF084FF0FD0927
:1041400004F17B0B042D2AD00321052D69D00B220D
:10415000022D7ED00623032D7CD0062D7BD0072D8B
:104160001BD184F87B8084F87C8084F87D9084F86F
:104170007E7004EB0010827904F87F2F6370A770C3
:10418000E17021716771C079A0710B22594600203E
:1041900000F0B8FDE071000A2072BDE8F09F04EB6A
:1041A0000016307D02281CD104F87B8F84F8018032
:1041B00084F80290E770B079207184F805A0A771A7
:1041C000E5711E2020726772307BA072707BE072F6
:1041D0000C225946002000F095FD2073000A607300
:1041E0007B3C307D0128D8D104F87B8F84F8018096
:1041F00084F80290E770B079207184F805A0A77167
:10420000E571202020726772307BA072707BE072B3
:104210000C225946002000F075FD2073000A6073DF
:10422000BBE784F87B8084F87C8084F87D9084F8F8
:104230007E7004EB0010807904F87F0F6170A77026
:10424000E57008225946002000F05CFD2071000A4C
:1042500002E003E021E03DE060719EE784F87B80AE
:1042600084F87C8084F87D9084F87E7004EB0010E4
:10427000807904F87F0F84F801A0A770E57022719F
:1042800067710420A071E7710C225946002000F0EC
:1042900039FD2072000A60727FE784F87B8084F821
:1042A0007C8084F87D9084F87E7004EB0010807927
:1042B00004F87F0F6370A770E570227167710220A8
:1042C000A0710B225946002000F01CFDE071000A8D
:1042D000207262E784F87B8084F87C8084F87D908B
:1042E00084F87E7004EB0010807904F87F0F617011
:1042F000A770E57008225946002000F003FD2071E8
:10430000000A607149E70000FDF7DEF8FFF7EEFAFA
:10431000FFF70EF8FEF7C8FFFEF79EFFFEF72CFF33
:10432000FEF762FFFFF7DCF8FFF798F9FFF7BEF939
:10433000FFF724F9FFF75AF9FFF7FCF8044800F0FB
:10434000E7FBFFF741FAFEF7BDFF00F011F8FEE7CB
:10435000E040002001460020842900D0C81C70479E
:1043600010B5002800D1012000F0D0FD002010BDC4
:1043700010B500F069FE002010BD10B501F0EEF997
:10438000012803D0BDE8104000F03ABF10BD3EB593
:1043900004460D46B4F90800FFF7DCFF02A9CDE999
:1043A0000001208A2B4682B2D4E9001001F0A6F960
:1043B000012801D000203EBD02983EBD2DE9F0410C
:1043C00004460F46174EF5683068001D00F0BCFC2F
:1043D00038B9306890F82C10012088403169814349
:1043E0003161601C07D137B13168BDE8F041091D6A
:1043F0000D4800F0E1BC2C4430684460AC4206D269
:104400003168B06B091DBDE8F04100F0BDBC3168FA
:10441000706B091D00F0B8FCB06A844200D2B4622F
:10442000BDE8F081240000201C3E002070B5044649
:1044300000F0CEFC1C4DA868401CA860286810B194
:10444000686938B10CE02C60A868012808D100F038
:104450003FF905E02868E16AC06A884200D82C600C
:10446000686A401C6862E06A01212A698140114340
:1044700029610E4900EB800001EB8000211D00F056
:104480009BFC00F0C5FC686900280CD02868E16A34
:10449000C06A884207D206494FF080500860BFF3D7
:1044A0004F8FBFF36F8F70BD240000208C3C002025
:1044B00004ED00E070B5124E124D1CE000F0F8FD66
:1044C000306820B1002401F047FAA4B901E00124CA
:1044D000F9E700F07DFCF068C468201D00F034FCB2
:1044E000A868401EA8606868401E686000F090FCE4
:1044F000204600F054F868680028DFD170BD000045
:10450000083E00202400002030B40B46026C002A34
:104510000CD0C1681144C1604468A14201D3016854
:10452000C160C16830BC1846FBF7D9BE30BC7047CB
:104530002DE9F041044617460026A56B226C002A9F
:1045400010D0C7B1E068FBF7CAFEE168206C091A19
:10455000E1602268914202D26168081AE060022F8D
:1045600016D017E02068A8B9606801F06BF906461C
:10457000002060600EE0A068FBF7B1FE216CA0682F
:104580000844A0606168884204D32068A06001E00C
:1045900005B16D1E6D1CA5633046BDE8F08110B5F8
:1045A0000446206B00F04AFC2046BDE8104000F0B5
:1045B00045BC00004FF470510F48420706D0C01DA3
:1045C00020F007000C49411AC1F570510B4A1060E8
:1045D000002353600144083921F00701103A1160AB
:1045E0004B600B600B1A4360016040689060506044
:1045F0004FF00040D06070478C0000201000002079
:10460000074E4FF08054074DFFF754FF30680128E4
:10461000FAD92C60BFF34F8FBFF36F8FF4E7000020
:104620008C3C002004ED00E003460098002905D0F2
:104630000260C3630164012100F0DEBE0060F8E7A0
:104640002DE9F0478146DDE908570A9C9846521E3D
:10465000206B00EB820020F00706700707D0502087
:1046600080F31188BFF34F8FBFF36F8FFEE70020F9
:1046700023180A5C83F834200A5C12B1401C10280D
:10468000F6D34FF0000A84F843A0102D00D30F2575
:10469000E5626564C4F848A0201D00F072FB04F1D7
:1046A000180000F06EFB2461C5F11000A061646287
:1046B000C4F84CA084F850A042464946304600F069
:1046C0004DF92060002F00D03C60BDE8F08700006D
:1046D00070B50024114D04EB840005EB800000F060
:1046E00045FB641C102CF6D30D4800F03FFB0C4832
:1046F000143000F03BFB0A48283000F037FB084834
:104700003C3000F033FB0648503000F02FFB0548EA
:10471000034941631431816370BD00008C3C00206B
:10472000CC3D00202400002030B5134900E01146A4
:104730000A688242FBD34B685C18844203D140680C
:104740001844486008460D6844682318AB420DD1F0
:10475000094B103B1B689A4206D0526822444260C3
:104760000A681268026002E0036000E002608142B1
:1047700000D0086030BD00001000002010B50446D5
:1047800000F026FBA06B20B1002400F041FB204686
:1047900010BD0124F9E710B5044600F019FBA06B29
:1047A000E16B884201D1012400E0002400F030FBDD
:1047B000204610BD0748416B0968002905D0416BB0
:1047C000C968C9684968816270474FF0FF318162EA
:1047D000704700002400002009484068401C07D0B2
:1047E000502080F31188BFF34F8FBFF36F8FFEE728
:1047F000502080F31188BFF34F8FBFF36F8FFEE718
:10480000180000202DE9F041044600F0E1FA94F987
:10481000455004F1240609E0606A48B1304601F0D1
:104820005DF808B100F09AFB6D1E6DB2002DF3DC4F
:104830004FF0FF3684F8456000F0EAFA00F0C8FA5D
:1048400094F9445004F1100709E0206948B1384652
:1048500001F044F808B100F081FB6D1E6DB2002D2F
:10486000F3DC84F84460BDE8F04100F0D1BA000008
:104870002DE9F0410546002600F01AFC304F38685B
:1048800008B9FFF797FEF86805424AD18DB108359F
:1048900068070ED005F00700C0F10800054468075E
:1048A00007D0502080F31188BFF34F8FBFF36F8F75
:1048B000FEE7B5B37868854233D821491031084600
:1048C000046801E0214604466068A84202D22068DC
:1048D0000028F7D13868844223D00E680836206853
:1048E00008606068411B10290ED96019420707D083
:1048F000502080F31188BFF34F8FBFF36F8FFEE717
:1049000041606560FFF710FF61687868401A786061
:10491000BA68904200D2B860F86801436160002034
:10492000206001F019F8700707D0502080F311883B
:10493000BFF34F8FBFF36F8FFEE73046BDE8F081C6
:104940000000002004490868002803D00868826C31
:10495000521C8264086870472400002024384FF0FD
:104960008073036221F00101C161044981614260E9
:104970006FF0020140F8201970470000D947000885
:104980002DE9F04704460D465E48FDF78BFB5E4F70
:10499000DFF87881012004F17B096DB10026022D3A
:1049A00023D0032D45D0042D66D0052D3FD194F89A
:1049B0005A1000297ED09BE0072184F8581084F813
:1049C00093002046FEF722FF04212046FFF7ABFBB1
:1049D0000E2249464B48FDF765FED8F80000C76235
:1049E000BDE8F0474948FDF7A9B994F85A10B1B9A4
:1049F0000C2184F8581084F893002046FEF706FF37
:104A000002212046FFF78FFB0E2249463D48FDF765
:104A100049FED8F80000C7623C48FDF78FF994F8CA
:104A20005A00022801D00128FBD184F85A60BDE861
:104A3000F08794F85A10B1B90D2184F8581084F811
:104A400093002046FEF7E2FE03212046FFF76BFBB2
:104A50000D2249462B48FDF725FED8F80000C76215
:104A60002A48FDF76BF994F85A00022801D0012872
:104A7000FBD184F85A60DAE794F85A10B1B90F21E3
:104A800084F8581084F893002046FEF7BFFE0621F4
:104A90002046FFF748FB0A2249461A48FDF702FE66
:104AA000D8F80000C7621948FDF748F994F85A0091
:104AB000022800E005E001D00128F9D184F85A600D
:104AC000B5E7112184F8581084F893002046FEF7CA
:104AD0009DFE07212046FFF726FB0D224946094887
:104AE000FDF7E0FDD8F80000C7620848FDF726F999
:104AF00094F85A00022801D00128FBD184F85A60AA
:104B000095E70000303E002040420F007441002035
:104B10002DE9F0410446002684F8586084F8596075
:104B2000012784F893702046FEF770FE294800F0B4
:104B300087F8267084F85A602748FDF7B3FA1821E1
:104B400004F17B00FBF7E4FB002504F15B0894F81B
:104B50005A00022811D084F85A6020214046FBF701
:104B6000D7FBE9B2204600F03BF86D1C042DEED9CE
:104B700084F85A600025194F27E094F85F1031B18E
:104B800084F859702078401CC0B22070215484F8F9
:104B90005A6020214046FBF7BBFBE9B2204600F0FB
:104BA0001FF8E2E784F85650601904EB05164078C8
:104BB000B07102212046FFF7E3FE307DF07407EB71
:104BC00005108179C1716D1CEDB22078A842E9D839
:104BD000BDE8F081002D3101303E0020E040002092
:104BE00070B50446FF2004F87B0F6070FD20A070B4
:104BF0000020E070217103216171A0710125E57130
:104C00007B3C04F17B0108220E4600F07BF804F89F
:104C1000830F000A60702574833C2046FEF7F6FD82
:104C200004F8585F0A2231460448FDF73BFDA0789E
:104C3000022801D00128FBD170BD0000303E0020C9
:104C4000002100E0491C8142FCD3704770B52C4C18
:104C5000002584F893502046FEF7D8FD94F85600BE
:104C6000042803D2401C84F8560001E084F8565012
:104C700094F8560004EB0010817C012905D185745D
:104C800094F856101E48FFF7ABFF94F8560004EB5B
:104C90000010017DC07C814209D003211848FFF734
:104CA0006FFE94F8560004EB0010C17C017594F877
:104CB000560004EB00108179C079814209D00521AA
:104CC0000F48FFF75DFE94F8560004EB0010C17921
:104CD000817100210A48FFF753FE84F8575094F879
:104CE000560004EB0010407D002808D00421044841
:104CF000FFF746FE94F8560004EB0010457570BDB2
:104D0000E040002070B5ADF5007D04460D46164626
:104D10004FF400720B496846FBF7E1FA002369463D
:104D200009E0E85C80EA142031F8100080EA0420F1
:104D300084B25B1C9BB2B342F3D30DF5007D2046D9
:104D400070BD0000645A00080169D0E901329A6020
:104D5000D0E901235A604A68824201D182684A60E0
:104D6000002202610868401E0860704700F10801D7
:104D700041604FF0FF328260C1600161002101603B
:104D8000704700210161704730B50C68621C02D089
:104D900000F1080202E0026904E01A4653681D6847
:104DA000A542FAD953684B6099608A6051600861E6
:104DB0000168491C016030BD42684A6093688B609D
:104DC00093685960916008610168491C01607047EF
:104DD000502080F31188BFF34F8FBFF36F8F0A49C4
:104DE0004868401C486001280CD10848006810F051
:104DF000FF0F07D0502080F31188BFF34F8FBFF310
:104E00006F8FFEE7704700001800002004ED00E0FF
:104E100009494868002806D0401E4860002801D192
:104E200080F311887047502080F31188BFF34F8FB3
:104E3000BFF36F8FFEE700001800002070B5002858
:104E400027D008380446134D6068E968084207D146
:104E5000502080F31188BFF34F8FBFF36F8FFEE7B1
:104E600022683AB1502080F31188BFF34F8FBFF30F
:104E70006F8FFEE78843606000F01AF96068696828
:104E8000084468602046FFF74FFCBDE8704000F022
:104E900063BD70BD0000002006484FF47A710068C1
:104EA000B0FBF1F14FF0E020491E416107210161A3
:104EB000704700007C00002010B5FBF7C9F91149CC
:104EC00010280ED300F1E02090F8F0030A78904209
:104ED00007D2502080F31188BFF34F8FBFF36F8F3D
:104EE000FEE709480068896800F4E060884207D955
:104EF000502080F31188BFF34F8FBFF36F8FFEE711
:104F000010BD0000180000200CED00E010B50246B6
:104F10000020002A12D00F48006B38B1502080F3D7
:104F20001188BFF34F8FBFF36F8FFEE700F0C0F81B
:104F300000211046FFF742FA00F00EFD002807D1CD
:104F400005494FF080500860BFF34F8FBFF36F8F5C
:104F500010BD00002400002004ED00E00149012004
:104F6000C86170472400002010B50C4600280AD004
:104F7000094909681831FFF707FF2046BDE81040CE
:104F80000121FFF71BBA502080F31188BFF34F8F28
:104F9000BFF36F8FFEE700002400002070B50446C9
:104FA000002839D01D4DE06A2968C96A884233D289
:104FB000A069002804DB2868C06AC0F11000A06165
:104FC000E06A174E00EB8000616906EB80008142C9
:104FD0001FD1201DFFF7B8FE012150B9E06A00EB98
:104FE000800256F8222022B92A6901FA00F0824391
:104FF0002A612868C06AE0622A69814011432961F8
:1050000000EB800006EB8000211DBDE87040FFF73B
:10501000D3BE2868C06AE06270BD00002400002092
:105020008C3C0020002805D006490A6A0260C96845
:1050300041607047502080F31188BFF34F8FBFF35A
:105040006F8FFEE7240000201CB515480024CDE931
:1050500000402346802213A1144800F04FFB012892
:1050600009D0401C1AD1502080F31188BFF34F8F14
:10507000BFF36F8FFEE7502080F31188BFF34F8F8F
:10508000BFF36F8F06484FF0FF312C38816201214A
:105090004161C460BDE81C4000F042B81CBD000086
:1050A0005000002049444C45000000000146000823
:1050B0000248016B491C0163704700002400002076
:1050C000154A106B002802D00120D06170470020E3
:1050D000D0611069B0FA80F0C0F11F000F4900EBF9
:1050E000800051F8203073B101EB800041684968BD
:1050F000416000F10803994201D14968416040686C
:10510000C06810607047502080F31188BFF34F8F44
:10511000BFF36F8FFEE70000240000208C3C0020CE
:105120001CB532480168324A914207D1502080F3C1
:105130001188BFF34F8FBFF36F8FFEE700682C49D4
:10514000491E884207D1502080F31188BFF34F8F4A
:10515000BFF36F8FFEE7274908780190FF200870A2
:10516000087800909DF800009DF8002000F0F00005
:10517000904207D0502080F31188BFF34F8FBFF3C8
:105180006F8FFEE79DF800001B4A00F05000107082
:105190000720906006E09068401E90609DF8000037
:1051A000400000909DF800000006F4D4107A000240
:1051B00000F4E0609060019808700C4820300168AD
:1051C00041F470010160016841F070410160FFF736
:1051D00063FE00205060FBF701F80848016841F0C9
:1051E00040410160FAF7EAFF00201CBD00ED00E03D
:1051F00071C20F4100E400E01800002034EF00E02D
:1052000010B5502080F31188BFF34F8FBFF36F8F1D
:1052100000F0B2FA18B104494FF080500860002045
:1052200080F3118810BD000004ED00E0F8B50546DC
:105230000E461746002D11D0C6B105FB06F04830CA
:10524000FFF716FB04463CB104F148023B463146E9
:1052500028460094FFF7E8F92046F8BD502080F377
:105260001188BFF34F8FBFF36F8FFEE70020E6E793
:105270002DE9FF4F83B004468A469B460026002C4A
:1052800003D0BAF1000F08D011E0502080F311884C
:10529000BFF34F8FBFF36F8FFEE7206C38B1502004
:1052A00080F31188BFF34F8FBFF36F8FFEE700F0DD
:1052B00055FA48B9059838B1502080F31188BFF3EA
:1052C0004F8FBFF36F8FFEE74FF000094FF080570D
:1052D000DFF82081FFF77CFDA56B95B3E6685146AA
:1052E0002046FFF711F9BBF1000F13D0E660606AAA
:1052F00050B104F1240000F0F1FA28B1C8F80070B0
:10530000BFF34F8FBFF36F8FFFF782FD012007B010
:10531000BDE8F08F6D1EA563206810B9FFF712FB82
:10532000606020690028EFD004F1100000F0D6FA88
:105330000028E9D0C8F80070BFF34F8FBFF36F8F1C
:10534000E2E7FFE7059808B126B107E0FFF760FD47
:105350000020DCE701A8FFF765FE0126FFF758FDF6
:10536000FFF7A6FEFFF734FD94F94400401C01D17D
:1053700084F8449094F94500401C01D184F845908C
:10538000FFF746FD05A901A800F07EF958B12046B7
:10539000FFF738FA00F0E0FA2046FFF7EFF90028AF
:1053A00098D00020B3E72046FFF7E8F9E0B1206885
:1053B00030B9FFF70DFD6068FFF7F0FDFFF728FD3E
:1053C00004F124000599FFF7CFFD2046FFF71AFAF4
:1053D00000F0C2FA00287FF47DAFC8F80070BFF378
:1053E0004F8FBFF36F8F75E72046FFF70BFA00F082
:1053F000B3FA6FE704ED00E070B504460D46002CEB
:1054000025D0FFF7E5FCD4E90F20216802FB00114D
:1054100061600021A1632168A160E06B2268216CBA
:10542000401E00FB0121E1604FF0FF3084F8440092
:1054300084F8450004F110008DB1FFF797FC04F1EA
:105440002400FFF793FCFFF7E3FC012070BD502020
:1054500080F31188BFF34F8FBFF36F8FFEE7216991
:105460000029F0D000F03AFA0028ECD004494FF0BF
:1054700080500860BFF34F8FBFF36F8FE3E70000EA
:1054800004ED00E02DE9FF4782B004468A461E463F
:105490000025002C03D0BAF1000F08D011E05020F5
:1054A00080F31188BFF34F8FBFF36F8FFEE7206C3F
:1054B00038B1502080F31188BFF34F8FBFF36F8F47
:1054C000FEE7022E0AD1E06B012807D0502080F3BE
:1054D0001188BFF34F8FBFF36F8FFEE700F03EF9E7
:1054E00048B9049838B1502080F31188BFF34F8F2A
:1054F000BFF36F8FFEE74FF000094FF08057DFF8E2
:10550000E480FFF765FCA06BE16B884205D3022EB7
:1055100003D0049808B325B327E03246514620460D
:10552000FFF706F8616A59B104F1240000F0D6F9DA
:1055300068B1C8F80070BFF34F8FBFF36F8F06E0FC
:1055400028B1C8F80070BFF34F8FBFF36F8FFFF71C
:105550005FFC012006B0BDE8F087FFF759FC002092
:10556000F8E76846FFF75EFD0125FFF751FCFFF7FE
:105570009FFDFFF72DFC94F94400401C01D184F8F5
:10558000449094F94500401C01D184F84590FFF700
:105590003FFC04A9684600F077F830B12046FFF7D9
:1055A00031F900F0D9F90020D4E72046FFF7F3F8ED
:1055B00090B104F110000499FFF7D6FC2046FFF7E4
:1055C00021F900F0C9F900289BD1C8F80070BFF399
:1055D0004F8FBFF36F8F94E72046FFF713F900F06A
:1055E000BBF98EE704ED00E070B504460E46002CD2
:1055F00009D0206C78B1502080F31188BFF34F8F11
:10560000BFF36F8FFEE7502080F31188BFF34F8FF9
:10561000BFF36F8FFEE7206848B9606838B150204B
:1056200080F31188BFF34F8FBFF36F8FFEE7FFF753
:1056300043FC5020EFF3118580F31188BFF34F8FA7
:10564000BFF36F8FA26BE06B904218D994F94500BD
:10565000521CA263411C04D0401C84F84500012068
:105660000EE0606A0028FAD004F1240000F036F958
:105670000028F4D0002EF2D001203060EFE70020A7
:1056800085F3118870BD000070B504460D46002CEE
:1056900010D0BDB1FFF79CFB174AD06829684B1C9E
:1056A00018D02368126A934216D06268824213D8D7
:1056B00001241DE0502080F31188BFF34F8FBFF30A
:1056C0006F8FFEE7502080F31188BFF34F8FBFF339
:1056D0006F8FFEE700240BE06268801A884206D2D2
:1056E000081A28602046FFF79DFC002400E00124F2
:1056F000FFF78EFB204670BD240000202DE9FF5FE0
:105700008146DDE90E788A4616469B46B000FFF7D3
:10571000AFF8054628000AD05420FFF7A9F8044640
:105720000CB1256304E02846FFF788FB00E0002465
:105730008CB10020CDE90240CDE900785B463246CD
:1057400051464846FEF77CFF2046FEF76FFE0120DB
:1057500004B0BDE8F09F4FF0FF30F9E7054841691C
:10576000002903D0006B18B100207047012070475A
:1057700002207047240000202DE9F04100262F4F21
:10578000386B002808D0B869401CB861F86900B1CE
:1057900001263046BDE8F081FD686D1CFD609DB9B5
:1057A000786B006838B1502080F31188BFF34F8FB9
:1057B000BFF36F8FFEE7786BB96B7963B863386AB4
:1057C000401C3862FEF7F6FFB86ADFF87480854245
:1057D0000DD3786B006838B1786BC068C4686068B6
:1057E00085420ED2B86202E04FF0FF30B8623868EE
:1057F000C06A00EB800058F820000128C6D90126B5
:10580000C4E7201DFFF7A0FAA06A18B104F1180040
:10581000FFF79AFAE06A01213A6981401143396140
:1058200000EB800008EB8000211DFFF7C5FAE06A5D
:105830003968C96A8842CCD30126CAE7240000200F
:105840008C3C002070B504460020002C41D0214D36
:1058500029688C4207D0502080F31188BFF34F8F06
:10586000BFF36F8FFEE7A16C71B1491EA164636C39
:10587000E26A9A422DD000292BD1201DFFF764FA4D
:10588000154A012140B112E0502080F31188BFF386
:105890004F8FBFF36F8FFEE7E06A00EB800352F893
:1058A000233023B901FA00F3286998432861606C1A
:1058B000E062C0F11000A061E06A2B6981401943E9
:1058C000296100EB800002EB8000211DFFF774FAD4
:1058D000012070BD240000208C3C00202DE9F04107
:1058E000C068C468002C15D004F118000746FFF703
:1058F0002BFA164D2A6B0126A2B139461448FFF740
:105900005BFAE06A2968C96A88421DD90120EE6104
:10591000BDE8F081502080F31188BFF34F8FBFF3B3
:105920006F8FFEE7201DFFF70FFAE06A2A6906FA7B
:1059300000F111432961074900EB800001EB800071
:10594000211DFFF739FADCE70020E1E72400002001
:10595000F43D00208C3C00202DE9F041002400277C
:105960002D4D286B002807D0FFF732FA286B401E18
:105970002863286B40B149E0502080F31188BFF3C1
:105980004F8FBFF36F8FFEE7A868E0B3DFF88C801E
:1059900001261DE0D8F80C00C46804F11800FFF7D8
:1059A000D3F9201DFFF7D0F9E06A2A6906FA00F161
:1059B000114329611A4900EB800001EB8000211D91
:1059C000FFF7FAF9E06A2968C96A884200D3EE61F4
:1059D000D8F800000028DDD10CB1FEF7EBFEAC6971
:1059E00044B1FFF7C9FE00B1EE61641E002CF8D18E
:1059F0000020A861E86930B101270A49380708602A
:105A0000BFF34F8F00E001E0BFF36F8FFFF700FAA5
:105A10003846BDE8F081000024000020F43D00205D
:105A20008C3C002004ED00E09C5C00085538000828
:105A3000000000000000000080000000845C0008FE
:105A4000B9380008030000000000000080000000DA
:105A5000905C0008493800080100000000000000C8
:105A600000010000000005800F800A001B801E005E
:105A700014001180338036003C00398028002D80CE
:105A800027802200638066006C00698078007D803A
:105A900077807200500055805F805A004B804E0026
:105AA00044004180C380C600CC00C980D800DD809E
:105AB000D780D200F000F580FF80FA00EB80EE0086
:105AC000E400E180A000A580AF80AA00BB80BE00FA
:105AD000B400B180938096009C00998088008D80EE
