:020000040800F2
:10000000B04500205902000801410008CB2F00082C
:10001000FD400008FD0400089D4C000800000000A1
:100020000000000000000000000000009D0100082A
:100030006708000800000000F1010008654300089F
:1000400073020008730200087302000873020008BC
:1000500073020008730200087302000873020008AC
:10006000730200087302000873020008730200089C
:100070002D070008730200084507000873020008F6
:100080007302000873020008890300087302000865
:10009000730200087302000873020008730200086C
:1000A00073020008B14400087302000873020008DC
:1000B000C1440008D144000873020008E12F000881
:1000C000D12F0008730200087302000873020008B1
:1000D0007302000873020008794C0008894C00087C
:1000E000730200087302000873020008730200081C
:1000F000730200087302000873020008730200080C
:1001000073020008730200087302000873020008FB
:100110007302000873020008E1440008730200083B
:1001200073020008730200087302000873020008DB
:1001300073020008730200087302000873020008CB
:1001400073020008730200087302000873020008BB
:1001500073020008730200087302000873020008AB
:10016000730200087302000873020008730200089B
:100170007302000873020008730200080000000008
:100180007302000873020008DFF80CD000F0EAF8F0
:1001900000480047D54F0008B04500202B4B196898
:1001A0000868B0E8F04F80F30988BFF36F8F4FF015
:1001B000000080F3118870470000000006480068C6
:1001C000006880F3088862B661B6BFF34F8FBFF353
:1001D0006F8F00DF00BF00BF08ED00E0DFF80C000C
:1001E000016841F470010160704700BF88ED00E0D4
:1001F000EFF30980BFF36F8F144B1A681EF0100FD6
:1002000008BF20ED108A20E9F04F106008B44FF0CD
:10021000040080F31188BFF34F8FBFF36F8F05F099
:1002200071FF4FF0000080F3118808BC196808685E
:10023000B0E8F04F1EF0100F08BFB0EC108A80F34A
:100240000988BFF36F8F704700BF00BF24000020F4
:10025000EFF30580704700000648804706480047D6
:10026000FEE7FEE7FEE7FEE7FEE7FEE7FEE7FEE766
:10027000FEE7FEE74D440008890100082DE9F05F24
:100280000546002092469B46884606468146402405
:100290001BE0284641464746224600F053F85346A5
:1002A0005A46C01A914110D311461846224600F012
:1002B0003AF82D1A67EB01084F462246012000212B
:1002C00000F031F817EB00094E41201EA4F10104A3
:1002D000DFDC484631462A464346BDE8F09F40EA07
:1002E00001039B0703D009E008C9121F08C0042AB4
:1002F000FAD203E011F8013B00F8013B521EF9D29B
:100300007047D2B201E000F8012B491EFBD27047C2
:100310000022F6E710B513460A4604461946FFF7D1
:10032000F0FF204610BD202A04DB203A00FA02F13B
:10033000002070479140C2F1200320FA03F31943D3
:1003400090407047202A04DB203A21FA02F0002175
:10035000704721FA02F3D040C2F1200291400843D5
:1003600019467047064C074D06E0E06840F001036F
:1003700094E8070098471034AC42F6D3FFF708FF23
:10038000746F0008946F000810B5034800F036FB46
:10039000024800F033FB10BD004000204840002020
:1003A00054494A6822F440324A604A6843681A4312
:1003B0004A600268526822F4807203685A600268D8
:1003C0005368026943EA022203685A60026852686D
:1003D00022F0407203685A600268526883681A43C8
:1003E00003685A600268926822F4006203689A60A7
:1003F00002689268C3681A4303689A603E4B826A37
:100400009A4218D00268926822F0706203689A607B
:1004100002689268836A1A4303689A600268926865
:1004200022F0405203689A6002689268C36A1A43D5
:1004300003689A600BE00268926822F070620368B9
:100440009A600268926822F0405203689A600268DB
:10045000926822F0020203689A60026893688269D7
:1004600043EA420203689A60026AA2B102685268D3
:1004700042F4006203685A600268526822F46042E3
:1004800003685A6002685368426A521E43EA423265
:1004900003685A6005E00268526822F4006203684B
:1004A0005A600268D26A22F470020368DA62026853
:1004B000D36A828B521E43EA02520368DA620268F0
:1004C000926822F4007203689A6002689368026B73
:1004D00043EA422203689A600268926822F48062CA
:1004E00003689A6002689368426943EA822203685B
:1004F0009A607047002301400100000F00BFFEE733
:1005000070B50346002400200546022A09D100BF29
:1005100002E01E5C7440401C4E1E8642F9DC204600
:1005200070BD012A09D1002002E01E5C7540401C0C
:100530004E1E8642F9DC2846F2E700BFF0E70000D5
:1005400030B504460D460748827829462046FFF715
:10055000D7FF691E615C884201D1012030BD0020B7
:10056000FCE70000703F002070B504460D461646BB
:10057000FF202075FE2161752178A17560790D2815
:1005800005D132462946204600F01CF816E0607975
:100590000C2808DC6079012810D032462946204614
:1005A00000F02EF80AE06079412807DB60796028C6
:1005B00004DC32462946204600F0B6F8204603F017
:1005C00043FE70BD70B50B460624C475002106E0DD
:1005D0005C1C665CCC1C00F114052E55491C0429DA
:1005E000F6DB012A02D14179017507E0417941F03A
:1005F00080010175022A01D10224447570BD0000FA
:100600002DE9F04104460D4616464FF00008012E34
:100610006BD1607920756079022804D14148407817
:10062000401CE0756AE06079032828D128784000F2
:10063000C01C3C4949780844E075002010E0A91D21
:1006400001EB00118B784100491D04F11402535451
:10065000A91D01EB0011CB784100891D5354401CAA
:1006600029788142EBDC002228784000001D04F14B
:1006700014010A5428784000401D0A543EE0607975
:1006800004281DD128784000401C26494978084498
:10069000E075002010E0A91D01EB00118B784100EE
:1006A000491C04F114025354A91D01EB0011CB782D
:1006B0004100891C5354401C29788142EBDC1DE029
:1006C0006079052807D117484078C01CE0750021E3
:1006D0006175A17512E0607906280FD11148407844
:1006E000801CE0750021617508E0607940F08000B1
:1006F000207566750B484078801CE075E07DC71C4E
:10070000A278F9B204F11400FFF7FAFE804608F06F
:100710000F01044840783A1A04F114008154BDE8EE
:10072000F0810000703F00207047000010B50020ED
:1007300002490860024800F05BFB10BD6000002029
:10074000B03E002010B5034800F052FB00200249E3
:10075000087110BD103F0020703F0020014608784E
:1007600010381823B0FBF3F20848805CC865032AF0
:1007700005D908686FF30900001D886503E0086863
:100780006FF309008865886D70470000486F0008A6
:10079000014600208A6A8B69CBB932B1012A0DD09B
:1007A000022A03D0032A10D10EE000BFCB6A03F067
:1007B0008073B3F1807F00D1012007E0CB6AB3F1F1
:1007C000C07F00D1012001E000E000BF34E08B6970
:1007D000B3F5005F1AD132B1012A07D0022A03D043
:1007E000032A11D10AE000BF01200EE0CB6A03F01A
:1007F0008073B3F1807F00D1012006E0CB6AB3F1B2
:10080000C07F00D1012000E000BF15E032B1012A15
:1008100005D0022A04D0032A0CD103E000BF00BF98
:10082000012008E0CB6A03F08073B3F1807F00D130
:10083000012000E000BF00BF704730B504682468A5
:1008400024F4802405682C60046863608468402C6C
:1008500004D10468A2600468E16003E00468A16058
:100860000468E26030BD70477047000038B502464A
:100870000020009000BF92F83C00012801D1022026
:1008800038BD012082F83C0000BF0868092816D94D
:100890001068C0680C780A3C04EB44050724AC409F
:1008A000A0431468E0600C780A3C04EB44048868B8
:1008B000A0401468E46820431468E06013E0106806
:1008C00000690C7804EB44050724AC40A04314688D
:1008D00020610C7804EB44048868A0401468246903
:1008E0002043146820614868072817D21068406BBD
:1008F0000C79641E04EB84051F24AC40A0431468EB
:100900006063088880B20C79641E04EB8404A04004
:100910001468646B20431468606331E048680D28F4
:1009200017D21068006B0C79E41F04EB84051F24B8
:10093000AC40A04314682063088880B20C79E41F9F
:1009400004EB8404A0401468246B204314682063E3
:1009500016E01068C06A0C790D3C04EB84051F2476
:10096000AC40A0431468E062088880B20C790D3C6A
:1009700004EB8404A0401468E46A20431468E06235
:10098000194B1A4C1068A04206D10868122803D1EE
:10099000586840F480005860144C1068A0421CD184
:1009A0000868102802D00868112816D1586840F449
:1009B00000005860086810280FD10D4800680D4CE1
:1009C000B0FBF4F000EB80004000009002E00098E3
:1009D000401E009000980028F9D100BF002082F846
:1009E0003C0000BF00BF4BE7002301400020014056
:1009F0007C00002040420F007047704770B50446ED
:100A00000025002620680068C0F340052068406883
:100A1000C0F3401695B38EB3206C00F0100018B9E7
:100A2000206C40F4007020642068806800F0405022
:100A3000E8B9A069D8B92068C06A00F4700020B194
:100A40002068806800F4806088B92068406820F0E1
:100A5000200021684860206C20F480702064206CA5
:100A600000F4805018B9206C40F00100206420464A
:100A7000FFF7C2FF6FF0120021680860206800686D
:100A8000C0F3800520684068C0F3C016E5B3DEB34C
:100A9000206C00F0100018B9206C40F40050206465
:100AA0002068806800F4401038BB2068806B00F438
:100AB000401020B12068806800F48060E8B92068A8
:100AC000406800F48060C0B92068806800F0405041
:100AD00098B9A06988B92068406820F08000216832
:100AE0004860206C20F480502064206C00F48070FA
:100AF00018B9206C40F0010020642046FFF7B4FED6
:100B00006FF00C00216808602068006800F00105A3
:100B100020684068C0F3801685B17EB12068006807
:100B200000F0010050B1206C40F480302064204679
:100B300000F052F86FF0010021680860206800683A
:100B4000C0F3401520684068C0F380667DB176B17F
:100B5000606C40F0020060646FF020002168086063
:100B60002046FFF74AFF6FF020002168086070BD43
:100B700070B5044600250CB9012070BD1549A06A66
:100B8000884200D000BF206C30B90020606484F837
:100B90003C00204600F022F8206C00F0100088B9DC
:100BA000206C20F4885040F0020020642046FFF7BB
:100BB000F7FB00206064206C20F0020040F0010090
:100BC000206400E0012500BF002084F83C0000BF45
:100BD0002846D2E70100000F7047000010B586B02C
:100BE00004461F49206888421AD100BF00200090A7
:100BF0001C48006840F480701A4908600846006884
:100C000000F48070009000BF00BF402001900320DE
:100C100002900020039001A9134800F0CFFA1DE0D4
:100C200012492068884219D100BF002000900D4869
:100C3000006840F400700B4908600846006800F442
:100C40000070009000BF00BF802001900320029040
:100C50000020039001A9044800F0B0FA06B010BDCE
:100C600000200140443802400000024000210140C1
:100C7000704770B503460024002500BF587901284D
:100C800001D1022070BD0120587100BF02201871EF
:100C90001868046840F6FE7090408443D1E900066D
:100CA00040EA060505FA02F0044318680460186873
:100CB0000668C020904086431868066001201871BD
:100CC00000BF0020587100BF00BFDBE7704710B5C0
:100CD00004462068406B00F40050B0F5005F12D16C
:100CE00004202071206940F0010020614FF4005081
:100CF000216848632068006820F4805021680860FB
:100D00002046FFF7E3FF2068406B00F00050B0F191
:100D1000005F12D104202071206940F002002061A0
:100D20004FF00050216848632068006820F0805030
:100D3000216808602046FFF79BFF10BD10B50446F0
:100D40000CB9012010BD207920B900206071204627
:100D500000F008F80220207100202061012020719D
:100D60000020EFE710B586B0044614492068884299
:100D700021D100BF002000901148006840F00050D1
:100D80000F4908600846006800F00050009000BF5E
:100D900000BF20200190032002900020039001A9B1
:100DA000084800F00BFA00220E21362000F0C2FDA8
:100DB000362000F0B2FD06B010BD00000074004007
:100DC0004038024000000240014691F835000228F8
:100DD00003D08020486501207047052081F8350048
:100DE0000868006820F001000A6810600020F3E73E
:100DF000F8B50446002000908C4800684FF4165166
:100E0000B0FBF1F7A56D2E6894F85C1008208840BF
:100E1000304098B12068006800F0040070B120688C
:100E2000006820F004002168086094F85C10082035
:100E30008840A860606D40F00100606594F85C1027
:100E400001208840304068B12068406900F080008F
:100E500040B194F85C1001208840A860606D40F0BB
:100E60000200606594F85C1004208840304068B14E
:100E70002068006800F0020040B194F85C10042083
:100E80008840A860606D40F00400606594F85C10D4
:100E900010208840304078B32068006800F00800D7
:100EA00050B394F85C1010208840A8602068006857
:100EB00000F4802080B12068006800F4002028B988
:100EC000206CC8B12046216C884715E0A06C98B111
:100ED0002046A16C88470FE02068006800F480700D
:100EE00028B92068006820F0080021680860206C9C
:100EF00010B12046216C884794F85C10202088406F
:100F00003040002865D02068006800F010000028FC
:100F10005FD094F85C1020208840A86094F83500D9
:100F2000052828D12068006820F016002168086094
:100F30002068406920F0800021684861206C08B971
:100F4000A06C28B12068006820F0080021680860C3
:100F500094F85C103F208840A86000BF002084F80F
:100F6000340000BF012084F83500206D10B1204608
:100F7000216D8847F8BD2068006800F4802080B1AA
:100F80002068006800F4002028B9606C10B1204689
:100F9000616C88471DE0E06BD8B12046E16B884763
:100FA00017E02068006800F4807068B92068006865
:100FB00020F010002168086000BF002084F8340091
:100FC00000BF012084F83500E06B10B12046E16BD2
:100FD0008847606D38B3606D00F00100F0B1052006
:100FE00084F835002068006820F00100216808605E
:100FF00000BF0098401C0090B84200D905E020686E
:10100000006800F001000028F3D100BF00BF0020FD
:1010100084F8340000BF012084F83500E06C10B182
:101020002046E16C884700BFA4E700007C00002058
:101030002DE9F0410446002500F0CAF9074614B92D
:101040000120BDE8F081606A00B100BF00BF002050
:1010500084F8340000BF022084F83500206800685E
:1010600020F00100216808600AE000F0B1F9C01B1F
:10107000052805D920206065032084F83500E0E7C5
:101080002068006800F001000028EED120680568A3
:1010900021480540D4E901010843E168084321697A
:1010A000084361690843A1690843E1690843216A6B
:1010B00008430543606A042803D1D4E90B010843BF
:1010C0000543206805602068456925F00705606ACA
:1010D0000543606A04280DD1A06A0543E06A48B15F
:1010E0002046FFF755FB28B140206065012084F8B9
:1010F0003500A6E7206845612046FFF72FFB06462E
:1011000094F85C103F208840B060002060650120AA
:1011100084F83500002094E73F8010F02DE9F04777
:1011200004460D4616461F464FF00008D4F8589066
:1011300000BF94F83400012802D10220BDE8F087F6
:10114000012084F8340000BF94F8350001282BD129
:10115000022084F83500002060653B46324629466F
:101160002046FFF76AFB94F85C103F208840C9F8DE
:1011700008002068006840F01600216808602068B8
:10118000406940F0800021684861206C28B12068E7
:10119000006840F00800216808602068006840F09E
:1011A00001002168086006E000BF002084F83400D8
:1011B00000BF4FF002084046C0E70000F8B5024605
:1011C0000B460025002400200021DCE0012606FA61
:1011D00001F51E6806EA0504AC4273D15E68022E72
:1011E00002D05E68122E13D1CF0802F1200656F805
:1011F00027004E07F70E0F26BE40B0434F07FF0EE5
:101200001E69BE403043CF0802F1200646F8270091
:1012100010684F000326BE40B0431E7906F0030657
:101220004F00BE40304310605E68012E08D05E68FB
:10123000022E05D05E68112E02D05E68122E13D1E8
:1012400090684F000326BE40B0434F00DE68BE40AA
:1012500030439060506801268E40B0431E79C6F33B
:1012600000168E4030435060D0684F000326BE40C9
:10127000B0434F009E68BE403043D0605E6806F0C9
:101280008056B6F1805F7DD100BF00260096404EAB
:10129000366846F480463E4F3E603E46366806F469
:1012A0008046009600BF00BF3A4E8F0856F82700D0
:1012B0008E07370F0F26BE40B043374EB24202D1E1
:1012C000002624E05EE0354EB24201D101261EE048
:1012D000334EB24201D1022619E0324EB24201D160
:1012E000032614E0304EB24201D104260FE02F4E07
:1012F000B24201D105260AE02D4EB24201D10626A6
:1013000005E02C4EB24201D1072600E008268F07E7
:101310003F0FBE4030431F4E8F0846F82700264E31
:101320003068A0435E6806F48036B6F5803F00D191
:101330002043214E3060361D3068A0435E6806F4BD
:101340000036B6F5003F00D120431B4E361D3060FD
:10135000361D3068A0435E6806F48016B6F5801F1F
:1013600000D12043144E08363060361D3068A0434B
:101370005E6806F40016B6F5001F00D120430E4E3D
:101380000C363060491C1029FFF420AFF8BD000076
:101390004438024008380140000002400004024086
:1013A00000080240000C02400010024000140240FD
:1013B00000180240001C0240003C014042694A40C3
:1013C000426170470AB1816101E00B04836170479B
:1013D0000148006870470000800000207047704797
:1013E0002DE9F04704464FF00008C1460027BA46F1
:1013F00020684569206846683148284050B106F4A5
:10140000807038B1206C40F0010020646FF480706F
:101410002168486105F4813050B106F4807038B11C
:10142000206C40F0020020646FF400702168486175
:1014300005F4823078B306F4807060B394F83E808F
:10144000B4F82A9094F83D70D4F830A0B8F1200F89
:101450000FD1B9F1000F0CD1212F06D0292F04D0C4
:10146000282F06D1BAF1210F03D1204602F058FAF5
:1014700011E0206C40F00400206494F83E00102835
:1014800005D12068006840F40070216808606FF49E
:1014900080602168486105F4843050B106F48070A2
:1014A00038B1206C40F0080020646FF400602168BF
:1014B0004861206C10B1204601F0CEFDBDE8F087F8
:1014C000000101002DE9F041064630688769306867
:1014D00044693068456896F83E80B8F1100F02D034
:1014E000B8F1400F58D104F0011030B105F400708C
:1014F00018B1304602F053F913E04E48204030B1A5
:1015000005F4007018B1304602F02BF809E04948A4
:10151000801F204028B105F4007010B1304602F061
:1015200027F845483840D8B142487830204050B17B
:1015300005F4806038B13F48001F204018B930469C
:1015400001F06AFF74E03B48001F204000286FD084
:1015500005F4007000286BD0304601F00DFF67E005
:1015600034483830204050B105F4806038B13148FB
:10157000001F204018B9304601F0AEFE58E02D485B
:10158000001F2040002853D005F4007000284FD0E1
:10159000304601F019FE4BE02648801F204030B154
:1015A00005F4007018B1304602F09EF940E0214881
:1015B0000830204030B105F4007018B1304602F018
:1015C00001FA35E01C483840C8B11A48783020404C
:1015D00050B105F4806038B11648001F204018B99A
:1015E000304602F05EF923E01248001F2040F8B1B7
:1015F00005F40070E0B1304602F045F918E00D48FE
:101600003830204050B105F4806038B10948001FDF
:10161000204018B9304602F012F909E00548001FD1
:10162000204028B105F4007010B1304602F0F8F8FF
:10163000BDE8F081080001000400100070470000C0
:1016400070B50446002600250CB9012070BD94F841
:101650003D0028B9002084F83C00204600F08AF8BC
:10166000242084F83D002068006820F001002168F3
:10167000086000F099FA05463948B5FBF0F6206895
:10168000466038496068884201D8701C07E04FF412
:10169000967070434FF47A71B0FBF1F0401C2168F2
:1016A00008623049606888420ED860684000B5FB27
:1016B000F0F0C0F30B00042801D204202DE0606894
:1016C0004000B5FBF0F028E0A06828B9606800EBA6
:1016D0004000B5FBF0F008E0606800EBC00101EBF2
:1016E0000010B5FBF0F040F48040C0F30B0008B9E7
:1016F000012012E0A06828B9606800EB4000B5FB4B
:10170000F0F008E0606800EBC00101EB0010B5FBF1
:10171000F0F040F4804040F400402168C861D4E912
:101720000701084321680860D4E9031008432168D1
:101730008860D4E9050108432168C8602068006812
:1017400040F001002168086000202064202084F817
:101750003D000020206384F83E0000BF76E70000D3
:1017600040420F00A08601007047704770477047E5
:101770007047000010B586B00446164920688842BC
:1017800025D1C02001901220029001200390032057
:1017900004900420059001A90F48FFF70FFD00BF3A
:1017A000002000900D48006840F400100B490860CC
:1017B0000846006800F40010009000BF00BF00223F
:1017C0001146202000F0B6F8202000F0A6F806B060
:1017D00010BD0000005400400004024040380240A8
:1017E0007047704703480068034909780844014975
:1017F00008607047800000208800002010B50D4868
:10180000006840F400700B4908600846006840F426
:10181000806008600846006840F48070086003201B
:1018200000F0C6F8002000F007F800F04BF80020A8
:1018300010BD0000003C024070B588B00446002591
:10184000002600222146192000F074F8192000F02B
:1018500064F800BF002001901648006840F00100C5
:10186000144908600846006800F00100019000BFBC
:1018700000BF02A903A800F06FF900F0A5F9450028
:101880000D48B5FBF0F0461E0C480D49086040F2CB
:10189000E7310B48C160466000210161816000F0C2
:1018A00080FC20B9064800F0D7FC08B070BD0120CC
:1018B000FBE700004438024040420F0000000140B6
:1018C0009040002010B5032000F072F8002211466D
:1018D0006FF00B0000F02EF8002211466FF00A00A6
:1018E00000F028F8002211466FF0090000F022F8FD
:1018F00000221146501F00F01DF800221146101F53
:1019000000F018F800220F21901E00F013F80022BA
:101910000F21501E00F00EF810BD00BF00F01F0296
:10192000012191404209920002F1E022C2F8001127
:1019300000BF70472DE9F05F80460D461646002730
:1019400002F0E0FB074639462A46334601F007001D
:10195000C0F1070ABAF1040F02D94FF0040A01E0FE
:10196000C0F1070AD14600F1040ABAF1070F02D20A
:101970004FF0000A01E0A0F1030AD4464FF0010A3B
:101980000AFA09FAAAF1010A0AEA020A0AFA0CFAA0
:101990004FF0010B0BFA0CFBABF1010B0BEA030B45
:1019A0004AEA0B042146404602F0B4FBBDE8F09F32
:1019B00000BF00F00702064B19684FF6FF031940FD
:1019C000044B0B4343EA0221014B196000BF7047EF
:1019D0000CED00E00000FA0570B504460D460CB9A8
:1019E000012070BD5848006800F00F00A84209D2DD
:1019F00055490D700846006800F00F00A84201D05C
:101A00000120EEE7207800F0020002281DD12078A6
:101A100000F00400042805D14C48006840F4E05070
:101A20004A490860207800F00800082805D1474896
:101A3000006840F46040454908604448006820F070
:101A4000F000A168084341490860207800F00100D7
:101A5000A8B36068012807D13C4808380068C0F383
:101A60004040B8B90120BCE76068022802D0606835
:101A7000032807D1354808380068C0F3406048B9EA
:101A80000120AEE7314808380068C0F3400008B9CB
:101A90000120A6E72D48006820F003006168084394
:101AA0002A490860FFF794FC064609E0FFF790FC1E
:101AB000801B41F28831884202D9032091E707E078
:101AC0002248006800F00C006168B0EB810FEDD196
:101AD0001D48006800F00F00A84209D91A490D708E
:101AE0000846006800F00F00A84201D0012078E706
:101AF000207800F00400042807D11448006820F47E
:101B0000E050E168084311490860207800F00800BF
:101B1000082808D10D48006820F46040216940EA97
:101B2000C1000A49086000F05FF808490968C1F37C
:101B30000311074A515CC840064908600020FFF7BE
:101B40007BFE00204DE70000003C024008380240C8
:101B5000306F00087C0000200F2202600D4A1268DE
:101B600002F0030242600B4A126802F0F002826047
:101B7000084A126802F4E052C260064A126802F48F
:101B80006042D2080261044A126802F00F020A6041
:101B90007047000008380240003C024001480068DD
:101BA000704700007C00002000B5FFF7F7FF0449F4
:101BB0000968C1F38221034A515CC84000BD00009E
:101BC00008380240406F000800B5FFF7E7FF0449FE
:101BD0000968C1F34231034A515CC84000BD0000AE
:101BE00008380240406F00082DE9F0470024002526
:101BF0000026A1462548006800F00C0020B104280A
:101C000005D008283AD105E0DFF8849039E0DFF804
:101C1000849036E01D48001F006800F03F041B4818
:101C2000001F006800F4800078B11A481749091FA6
:101C30000968C1F38811A0FB017001462246002308
:101C40003846FEF71BFB05460EE011480F49091FF9
:101C50000968C1F38811A0FB0170014622460023E8
:101C60003846FEF70BFB05460848001F0068C0F326
:101C70000140401C4600B5FBF6F902E0DFF8109089
:101C800000BF00BF4846BDE8F087000008380240AA
:101C90000024F40000127A00F8B504460CB90120C3
:101CA000F8BD207800F00100002874D0F9480068E1
:101CB00000F00C0004280DD0F648006800F00C007D
:101CC000082813D1F348001F006800F48000B0F525
:101CD000800F0BD1EF4808380068C0F3404000285F
:101CE00059D06068002856D10120D9E700BF60684C
:101CF000B0F5803F08D1E7480838006840F48030EC
:101D0000E449083908601EE06068B0F5A02F0DD1E5
:101D1000E0480838006840F48020DE49083908604F
:101D20000846006840F4803008600CE0D948083864
:101D3000006820F48030D7490839086008460068F8
:101D400020F48020086000BF606890B1FFF740FB7E
:101D5000054606E0FFF73CFB401B642801D9032041
:101D60009EE7CC4808380068C0F340400028F1D016
:101D700011E0FFF72DFB054606E0FFF729FB401BAE
:101D8000642801D903208BE7C24808380068C0F3F3
:101D900040400028F1D1207800F0020002285FD1F5
:101DA000BC48006800F00C0058B1BA48006800F068
:101DB0000C0008281CD1B748001F006800F4800000
:101DC000B0B9B44808380068C0F3400020B1E068FA
:101DD000012801D0012063E7AE480838006820F0F0
:101DE000F800216940EAC100AA490839086037E0D3
:101DF000E06800B30120A8490860FFF7E9FA05464A
:101E000006E0FFF7E5FA401B022801D9032047E767
:101E1000A04808380068C0F340000028F1D09D4871
:101E20000838006820F0F800216940EAC1009949AB
:101E30000839086014E0002097490860FFF7C8FAE5
:101E4000054606E0FFF7C4FA401B022801D903202B
:101E500026E7904808380068C0F340000028F1D118
:101E6000207800F0080008282CD16069A8B1012072
:101E70008A490860FFF7ACFA054606E0FFF7A8FAC2
:101E8000401B022801D903200AE782486C30006811
:101E9000C0F340000028F1D014E000207F49086022
:101EA000FFF796FA054606E0FFF792FA401B022874
:101EB00001D90320F4E677486C300068C0F3400095
:101EC0000028F1D1207800F00400042870D1002609
:101ED00070483830006800F0805090B900BF002092
:101EE00000906C483830006840F0805069493831C3
:101EF00008600846006800F08050009000BF00BFF6
:101F000001266748006800F48070B0B96448006832
:101F100040F4807062490860FFF75AFA054606E00F
:101F2000FFF756FA401B022801D90320B8E65C48A7
:101F3000006800F480700028F2D000BFA06801287B
:101F400008D154486830006840F0010051496831B8
:101F500008601DE0A06805280DD14E486830006873
:101F600040F004004B49683108600846006840F0C2
:101F7000010008600CE047486830006820F001006C
:101F80004449683108600846006820F00400086091
:101F900000BFA068A8B1FFF71BFA054609E0FFF7EC
:101FA00017FA401B41F28831884202D9032077E6B4
:101FB00026E0384868300068C0F340000028EED0C2
:101FC00013E0FFF705FA054608E0FFF701FA401BAA
:101FD00041F28831884201D9032061E62D486830FA
:101FE0000068C0F340000028EFD1012E07D1294836
:101FF0003830006820F0805026493831086000BF32
:10200000A069B8B32348006800F00C0008285ED02F
:10201000A069022846D100201F490866FFF7D8F9B9
:10202000054606E0FFF7D4F9401B022801D903203A
:1020300036E6184808380068C0F340600028F1D13F
:10204000D4E907010843616A40EA81110122A06ACC
:10205000C2EB500041EA00412C20005D41EA0060E3
:102060000C49091F086001200B490866FFF7B0F909
:10207000054607E02DE0FFF7ABF9401B022801D928
:1020800003200DE6034808380068C0F340600028CC
:10209000F1D01EE00838024000004742800E47425F
:1020A0000070004000200C490866FFF791F90546D2
:1020B00006E0FFF78DF9401B022801D90320EFE568
:1020C00006480068C0F340600028F2D101E001201A
:1020D000E6E50020E4E50000000047420038024049
:1020E000042808D14FF0E021096941F004014FF0C4
:1020F000E022116107E04FF0E021096921F00401BD
:102100004FF0E0221161704770B504462546681E05
:10211000B0F1807F01D301200FE0681E4FF0E02175
:1021200048610F214FF0FF3001F0F4FF00204FF025
:10213000E021886107200861002070BD704770476A
:10214000024600BF92F83800012801D102207047F2
:10215000012082F8380000BF022082F839001068A0
:10216000406820F0700013685860106840680B6881
:102170001843136858601068806820F08000136866
:102180009860106880684B68184313689860012055
:1021900082F8390000BF002082F8380000BF00BF7D
:1021A000D5E710B504460CB9012010BD94F83900EC
:1021B00028B9002084F83800204600F00DF80220ED
:1021C00084F83900211D206802F092F9012084F87A
:1021D00039000020E9E7000038B504462068B0F176
:1021E000804F18D100BF002000901948006840F0CF
:1021F0000100174908600846006800F001000090DF
:1022000000BF00BF002205211C20FFF793FB1C200C
:10221000FFF783FB1BE00F492068884217D100BFFE
:10222000002000900A48006840F002000849086059
:102230000846006800F00200009000BF00BF0022C6
:1022400005211D20FFF776FB1D20FFF766FB38BD3B
:10225000403802400004004001460868C06840F071
:1022600001000A68D0600868006840F001000A6850
:102270001060002070470146022081F8390000BF3D
:102280000868006A41F21112104050B90868006AEB
:102290009210104028B90868006820F001000A6810
:1022A000106000BF012081F839000020704701460E
:1022B0000868C06820F001000A68D06000BF0868A4
:1022C000006A41F21112104050B90868006A921079
:1022D000104028B90868006820F001000A68106002
:1022E00000BF002070472DE9F04104460D4600264E
:1022F00000BF94F83800012802D10220BDE8F08127
:10230000012084F8380000BF022084F839002068DA
:10231000866826F0770626F47F462068866028685F
:1023200050283BD00CDC202860D004DC002853D09F
:10233000102865D155E030285DD0402860D141E0BB
:10234000602835D070280DD0B0F5805F03D0B0F58F
:10235000005F55D115E02068806820F007002168F3
:1023600088604EE0D5E902136A68206802F032F90D
:102370002068866826F0770646F077062068866033
:102380003FE0D5E902136A68206802F023F920686B
:10239000806840F480402168886032E0EA686968BB
:1023A000206802F02DF95021206802F01FF928E082
:1023B000EA686968206802F038F96021206802F054
:1023C00015F91EE0EA686968206802F019F94021F1
:1023D000206802F00BF914E00021206802F006F9F1
:1023E0000FE01021206802F001F90AE020212068A6
:1023F00002F0FCF805E03021206802F0F7F800E078
:1024000000BF00BF012084F8390000BF002084F81D
:10241000380000BF00BF71E7704710B50446206860
:102420000069C0F34000D8B12068C068C0F3400024
:10243000B0B16FF0020021680861012020762068A9
:10244000806900F0030018B12046FFF7E5FF05E0C2
:10245000204600F0ADF8204600F0ABF800202076D2
:1024600020680069C0F38000D8B12068C068C0F35C
:102470008000B0B16FF0040021680861022020766E
:102480002068806900F4407018B12046FFF7C4FF4F
:1024900005E0204600F08CF8204600F08AF8002085
:1024A000207620680069C0F3C000D8B12068C068F9
:1024B000C0F3C000B0B16FF00800216808610420CB
:1024C00020762068C06900F0030018B12046FFF7AD
:1024D000A3FF05E0204600F06BF8204600F069F805
:1024E0000020207620680069C0F30010D8B1206871
:1024F000C068C0F30010B0B16FF01000216808612F
:10250000082020762068C06900F4407018B1204689
:10251000FFF782FF05E0204600F04AF8204600F071
:1025200048F8002020762068006900F0010058B1CA
:102530002068C06800F0010030B16FF00100216830
:102540000861204600F036F820680069C0F3C0102A
:1025500058B12068C068C0F3C01030B16FF080007F
:10256000216808612046FFF7E9FD20680069C0F393
:10257000801058B12068C068C0F3801030B16FF08F
:10258000400021680861204600F054F82068006986
:10259000C0F3401058B12068C068C0F3401030B19B
:1025A0006FF02000216808612046FFF7C8FD10BDCC
:1025B0007047704710B5044616492068884202D11A
:1025C000FFF710F924E02068B0F1804F10D11248D5
:1025D000FFF76DFE1048FFF74EFE104800F02CF894
:1025E00001200F4981F84A00002081F848000FE0DF
:1025F0000C49206888420BD10B48FFF758FE0A4867
:10260000FFF739FE094800F017F800200849087163
:1026100010BD00000000014038410020303E002085
:10262000CC4000200004004074410020703E002097
:10263000703F00207047704770B504460125206840
:10264000C06820F4F0702168C8602068406920F0FC
:10265000010021684861206B58B12068406900F092
:10266000800018B12848216B086502E00020216B2A
:102670000865606B58B12068406900F0400018B1EF
:102680002248616B086502E00020616B08652068E4
:10269000406900F0800080B12068406920F080002F
:1026A00021684861206B40B1206BFEF78DFB18B1AB
:1026B0000020216B086500E000252068406900F0DB
:1026C000400088B12068406920F0400021684861DE
:1026D000606B48B1606BFEF777FB20B10020616B47
:1026E0000865012500E00025012D0BD10020E084C4
:1026F000E085E063202084F8390084F83A00204621
:10270000FFF799FF002070BD7947000801470008D6
:10271000704700002DE9F0470446206805682068EE
:10272000C668206847694FF00008C14605F00F08E9
:10273000B8F1000F0AD105F0200038B106F02000F2
:1027400020B1204602F063F8BDE8F087B8F1000F31
:102750006DD007F0010018B906F49070002866D01B
:1027600005F0010030B106F4807018B1E06B40F064
:102770000100E06305F0040030B107F0010018B17A
:10278000E06B40F00200E06305F0020030B107F0BA
:10279000010018B1E06B40F00400E06305F00800B0
:1027A00030B107F0010018B1E06B40F00800E063C1
:1027B000E06B68B305F0200028B106F0200010B1EE
:1027C000204602F024F820684069C0F38019E06BCD
:1027D00000F0080010B9B9F1000F22D0204601F036
:1027E000ECFF2068406900F04000B0B1206840690B
:1027F00020F0400021684861606B50B11748616B60
:102800000865606BFEF7E0FA10B1606B016D8847F8
:102810000CE02046FFF77CFF08E02046FFF778FF3A
:1028200004E02046FFF774FF0020E0638CE705F02A
:10283000800030B106F0800018B1204602F0E8F9BF
:1028400082E705F0400030B106F0400018B12046A4
:1028500001F0C3FF78E700BF76E7000057460008A5
:1028600010B504460CB9012010BDA06900B100E00C
:1028700000BF94F8390028B9002084F838002046B9
:1028800000F028F8242084F839002068C06820F47B
:1028900000502168C860204602F006F820680069F0
:1028A00020F49040216808612068406920F02A00E7
:1028B000216848612068C06840F400502168C86001
:1028C0000020E063202084F8390084F83A000020DA
:1028D000CAE7000010B586B004464F492068884218
:1028E00026D100BF002000904C48006840F4003022
:1028F0004A4908600846006800F40030009000BFB4
:1029000000BF0C20019002200290012003900320C0
:1029100004900720059001A94148FEF74FFC0022D2
:1029200011462620FFF706F82620FEF7F6FF70E096
:102930003C49206888426CD100BF00200090374895
:10294000006840F48020354908600846006800F4BB
:102950008020009000BF00BF4FF440600190022033
:10296000029001200390032004900720059001A904
:102970002D48FEF723FC2D482D4908604FF00060DC
:10298000486000212A488160C1604FF48061016184
:10299000002141618161C1614FF400310162002178
:1029A0004162FEF745FB18B1A72122A002F078F999
:1029B00000BF1F486063846300BF1C48303021495A
:1029C00008604FF00060486040211E48816000218F
:1029D000C1604FF480610161002141618161C16189
:1029E0004FF40031016200214162FEF721FB18B172
:1029F000B92110A002F054F900BF1248206384638B
:102A000000BF002211462720FEF794FF2720FEF783
:102A100084FF06B010BD0000004400404038024072
:102A200000000240004800400008024028600240C8
:102A3000B03E00202E2E2F5372632F757361727477
:102A40002E630000103F002077B581B00446154684
:102A500094F83A00202850D1029800B115B901200D
:102A600004B070BD00BF94F83800012801D10220E5
:102A7000F6E7012084F8380000BF0298A062A5851F
:102A80000020E063222084F83A001D48616BC8638F
:102A90001C48616B08641C48616BC8640020616B52
:102AA000086502AE32682368191D2B46606BFEF77D
:102AB00035FB00BF0020009020680068009020686F
:102AC0004068009000BF00BF00BF002084F83800BD
:102AD00000BF2068C06840F480702168C86020682A
:102AE000406940F00100216848612068406940F079
:102AF0004000216848610020B2E70220B0E70000F2
:102B0000BB460008354700086B46000810B5034671
:102B100093F83A00202829D101B10AB9012010BD4B
:102B200000BF93F83800012801D10220F7E7012007
:102B300083F8380000BF99629A85DA850020D8634F
:102B4000222083F83A0000BF002083F8380000BF3D
:102B50001868406940F001001C6860611868C0682E
:102B600040F490701C68E0600020D8E70220D6E7AF
:102B700070B5044620684068C5B22748007830B177
:102B8000012813D0022820D0032841D12EE0FF2DA8
:102B900005D121480078401C1F49087005E000203D
:102BA0001D490870E08D401CE08532E0FE2D05D106
:102BB00019480078401C1849087005E000201649A3
:102BC0000870E08D801CE08523E014480078A8425E
:102BD00005D111480078401C0F49087005E000201D
:102BE0000D490870E08DC01CE08512E000200A4904
:102BF00008700220094908712046FFF71DFD0748AB
:102C000080F826502A46411D2046FFF71DFF00E0B0
:102C100000BF00BF70BD000064000020703F0020B6
:102C200010B504462749206888423DD12648FFF761
:102C30003EFB0220254981F84A00084690F84800EA
:102C4000082819D1002081F84A00092081F848009D
:102C5000012081F86B00084601F00AFB05211B48A2
:102C600002F02FF80A2219495B31194800F08AF85E
:102C70001548FFF7F1FA23E0144890F848000B28B4
:102C80000DD1124890F8541090F84620801D00EBAA
:102C90000210817300200D4981F8480010E00020E7
:102CA0000A4981F848000BE00A492068884207D1A8
:102CB00003200949087109490948006803F04EFDDD
:102CC00010BD00000044004038410020CC400020EE
:102CD000303E002000480040703F0020600000208F
:102CE0007400002070470000F7B50446154694F8BC
:102CF000390020283DD1019800B10DB90120FEBD59
:102D000000BF94F83800012801D10220F7E7012024
:102D100084F8380000BF01982062A584E584002073
:102D2000E063212084F839001348216BC8631348FD
:102D3000216B08641248216BC8640020216B086570
:102D400001AE23681A1D31682B46206BFEF7E6F9A9
:102D50006FF040002168086000BF002084F8380050
:102D600000BF2068406940F0800021684861002071
:102D7000C5E70220C3E7000043470008AD4700084D
:102D80006B46000810B5034693F83900202823D17C
:102D900001B10AB9012010BD00BF93F83800012825
:102DA00001D10220F7E7012083F8380000BF196243
:102DB0009A84DA840020D863212083F8390000BF88
:102DC000002083F8380000BF1868C06840F0800019
:102DD0001C68E0600020DEE70220DCE710B5044656
:102DE00073492068884277D1724890F848000128DA
:102DF0001DD100206F4981F8480081F86B0008461A
:102E000001F036FA2046FFF717FC0E2269494B31D4
:102E10002046FFF77BFE684868490968C8620020C1
:102E20006649096848626548FFF716FABFE06148DD
:102E300090F84800072813D108205E4981F848001F
:102E4000002081F86B00084601F012FA2046FFF7D7
:102E5000F3FB0B2257494B312046FFF757FEA6E004
:102E6000544890F84800092813D10A20514981F8A4
:102E70004800002081F86B00084601F0F9F920466F
:102E8000FFF7DAFB0B224B494B312046FFF73EFEA2
:102E90008DE0484890F84800022804D100204549B8
:102EA00081F8480083E0434890F848000C2814D18A
:102EB0000B20404981F84800002081F86B0008464B
:102EC00001F0D6F92046FFF7B7FB0F2239494B3105
:102ED0002046FFF71BFE6AE05FE0364890F84800A6
:102EE0000D2813D10E20334981F84800002081F8C5
:102EF0006B00084601F0BCF92046FFF79DFB0B2252
:102F00002C494B312046FFF701FE50E0294890F84C
:102F100048000F2813D11020264981F848000020CE
:102F200081F86B00084601F0A3F92046FFF784FB07
:102F30000B2220494B312046FFF7E8FD37E01D48C2
:102F400090F84800112813D112201A4981F848003E
:102F5000002081F86B00084601F08AF92046FFF74F
:102F60006BFB0B2213494B312046FFF7CFFD1EE0D0
:102F70000020104981F86B00084601F079F92046DD
:102F8000FFF75AFB0E220B494B312046FFF7BEFDDF
:102F90000020084981F8480009E009492068884272
:102FA00005D100200749C870084601F075F910BD29
:102FB00000440040CC40002040420F003841002037
:102FC00000480040703F0020704700BFFEE700004F
:102FD00010B50248FEF704FA10BD0000AC3F002017
:102FE00010B50248FEF76EFA10BD0000AC3F00209D
:102FF00070B50546AC6B2068006820F480602168DD
:10300000086000206085616B0865A16B086594F815
:103010003D00602810D1202084F83D00002084F875
:103020003E0020642068006820F0010021680860EC
:103030002046FEF7D3F90EE0202084F83D00002062
:1030400084F83E002068006820F0010021680860D4
:103050002046FEF7F3FA70BD70B5044694F83D5073
:10306000292D01D02A2D05D100202063282084F8A5
:103070003D0011E094F83D00602809D020684068C8
:1030800000F40060B0F5006F02D0202084F83D000D
:103090000020206384F83E002068006820F400606F
:1030A000216808602068406800F40060B0F5006F97
:1030B00040D12068406820F4006021684860606B5F
:1030C00090F83500012814D03D48616B0865606BAD
:1030D000FDF77AFE00285BD02068006820F0010030
:1030E00021680860202084F83D00606B016D8847EE
:1030F0004EE03348A16B0865A06BFDF765FE002824
:1031000046D020684069C0F3801030B12068006963
:10311000C1B2626A501C606211702068006820F0C1
:10312000010021680860202084F83D00A06B016D3B
:1031300088472DE094F83D0060281AD1202084F8BB
:103140003D000020206420684069C0F3801030B149
:1031500020680069C1B2626A501C60621170206808
:10316000006820F00100216808602046FEF736F96B
:103170000EE020684069C0F3801030B1206800691B
:10318000C1B2626A501C606211702046FEF756FAA6
:1031900094F83D00282811D1206C00F00400042888
:1031A0000CD10848E06200202063202084F83D0014
:1031B000002084F83E002046FEF7D6FA70BD0000DD
:1031C000F12F00080000FFFF70B50446E56A608D2E
:1031D000042810D12068406820F48060216848608D
:1031E00020680069C1B2626A501C60621170608D13
:1031F000401E60856EE0608D032816D1206840680F
:1032000020F48060216848602068006820F48060B5
:103210002168086020680069C1B2626A501C60625F
:103220001170608D401E608554E0608D022847D18A
:10323000022D01D0012D0CD12068006820F480609F
:10324000216808602068006840F480702168086088
:1032500005E02068006840F400702168086020687C
:103260000069C1B2626A501C60621170608D401EBC
:10327000608520680069C1B2626A501C606211708A
:10328000608D401E60852068406820F44070216891
:103290004860202084F83D000020206394F83E0020
:1032A000402806D1002084F83E002046FEF75FFA51
:1032B00010E0002084F83E002046FEF756FA09E0B0
:1032C00020680069C1B2626A501C60621170608D32
:1032D000401E6085002070BD70B5044694F83D0026
:1032E000222847D10025658D032D13D92068006958
:1032F000C1B2626A501C60621170608D401E6085B0
:10330000608D032835D12068406820F480602168F2
:1033100048602EE0012D00D025BB2068006820F415
:103320008060216808602068406820F4E0602168BF
:10333000486020680069C1B2626A501C6062117006
:10334000608D401E6085202084F83D0000202063B1
:1033500094F83E00402806D1002084F83E00204624
:10336000FEF705FA05E0002084F83E002046FEF74F
:10337000FCF900BF002070BD70B50446E56A94F802
:103380003D00212846D1608D48B1616A481C6062C9
:10339000087821680861608D401E60853AE0042D40
:1033A00016D0082D14D015F5803F11D02068406844
:1033B00020F4E0602168486011202063002084F838
:1033C0003E00202084F83D002046FEF7CFF921E0A2
:1033D0002068406820F4E060216848602068006848
:1033E00040F400702168086000202063202084F8E9
:1033F0003D0094F83E00402806D1002084F83E00AD
:103400002046FEF7B5F905E0002084F83E0020468E
:10341000FEF7ACF9002070BD2DE9F041044694F8A8
:103420003D5094F83E70E66A208DB0BB212D3CD112
:10343000042E16D0082E14D016F5803F11D0206827
:10344000406820F4E060216848601120206300207B
:1034500084F83E00202084F83D002046FEF786F9DF
:103460007CE02068406820F4E060216848602068C3
:10347000006840F40070216808600020206320206C
:1034800084F83D0094F83E00402807D1002084F8DD
:103490003E002046FEF76CF960E006E0002084F86C
:1034A0003E002046FEF762F958E0212D03D0402F60
:1034B00054D1222D52D1608D30B92068406820F45B
:1034C00080602168486049E094F83E0040283CD183
:1034D000206D98B9E06C012807D1A06CC0B22168BA
:1034E0000861206D801C206538E0A06CC0F30720C7
:1034F00021680861206D401C20652FE0206D0128A7
:1035000007D1A06CC0B221680861206D401C206505
:1035100024E0206D022821D194F83D00222806D114
:103520002068006840F480702168086016E094F814
:103530003D00212812D1616A481C60620878216828
:103540000861608D401E608508E0616A481C606209
:10355000087821680861608D401E60850020BDE804
:10356000F0810146486CC0B20A68106100207047C3
:1035700038B5014691F83E30CA6A0C6B91F83D00AF
:10358000222873D1086D60B9402B0AD100BF0020FA
:10359000009008684069009008688069009000BF4A
:1035A000FBE0086DC0B90869B0F5404F14D100BF09
:1035B00000200090086840690090086880690090C9
:1035C00000BF00BF0868006840F480700D68286084
:1035D000086D401C0865E0E0488D88B900BF0020F8
:1035E000009008684069009008688069009000BFFA
:1035F00000BF0868006840F400700D682860BEE0F5
:10360000488D01286CD112F5803F30D108680068E0
:1036100020F480600D6828600868406800F400604D
:10362000B0F5006F10D10868006820F480600D6864
:10363000286000BF0020009008684069009008687A
:103640008069009000BF9AE000BF002000900868E9
:103650004069009008688069009000BF00BF08685A
:10366000006840F400700D68286088E08AE0042A51
:103670001ED0082A1CD0122C1AD0C86A022806D0E4
:103680000868006820F480600D68286005E008681C
:10369000006840F480600D68286000BF0020009042
:1036A00008684069009008688069009000BF66E083
:1036B0000868006820F480600D68286000BF002062
:1036C000009008684069009008688069009000BF19
:1036D00000BF0868006840F400700D6828604EE084
:1036E000488D02282DD1C86A02280CD008680068CD
:1036F00020F480600D6828600868006840F400606D
:103700000D68286005E00868006840F480600D6876
:1037100028600868406800F40060B0F5006F05D1CB
:103720000868406840F480500D68686000BF002061
:10373000009008684069009008688069009000BFA8
:103740001DE00868006840F480600D682860086823
:10375000406800F40060B0F5006F05D1086840686B
:1037600040F480500D68686000BF00200090086839
:103770004069009008688069009000BF00BF002089
:1037800008650AE000BF00200090086840690090CA
:1037900008688069009000BF00BF002038BD014666
:1037A00091F83E0040280ED1086D28B9486C00F011
:1037B000FE000A68106131E0486CC0B240F00100C0
:1037C0000A6810612AE00869B0F5804F10D191F8BD
:1037D0003D00212805D1486C00F0FE000A68106108
:1037E0001CE0486CC0B240F001000A68106115E0AE
:1037F000086D40B9486C00F44070F02242EAE010D5
:103800000A6810610AE0086D012807D1486C00F4CD
:103810004070F12242EAE0100A681061002070470F
:103820000146488D48B108680069C2B24B6A581C0D
:1038300048621A70488D401E48850020704770B558
:10384000044694F83D50608DD8B120680069C1B23B
:10385000626A501C60621170608D401E6085608DD0
:1038600078B92A2D0DD12068406820F48060216845
:10387000486022202063282084F83D002046FDF780
:10388000AFFF002070BD0146488D40B14A6A501C10
:10389000486210780A681061488D401E48850020F3
:1038A000704770B5044694F83D50608DD0B1616AA0
:1038B000481C6062087821680861608D401E608540
:1038C000608D78B9292D0DD12068406820F4806082
:1038D0002168486021202063282084F83D0020468C
:1038E000FDF77FFF002070BD70B50446002500265F
:1038F00020688069C0F3800000B9012520688069D4
:10390000C0F3C01010B9A08986B201E0208B86B246
:10391000324629462046FDF762FD002070BD0000BA
:1039200070B5044694F83D50E66A042E01D0082E86
:103930001FD1282D1DD12248E0622068406820F464
:10394000E060216848606FF4806021684861206809
:10395000006820F480602168086000202063202037
:1039600084F83D00002084F83E002046FDF7FCFE70
:1039700023E0212D1DD11248E06221202063202068
:1039800084F83D00002084F83E002068406820F460
:10399000E060216848606FF48060216848612068B9
:1039A000006820F48060216808602046FDF719FF58
:1039B00003E06FF4806021684861002070BD000062
:1039C0000000FFFF38B5044694F83D502068406879
:1039D00020F4E0602168486000BF0020009020686B
:1039E000406900902068006840F00100216808608C
:1039F00000BF00BF2068006820F480602168086074
:103A00002068406800F40060B0F5006F10D194F8B1
:103A10003D00222803D094F83D002A2804D1A06B51
:103A200000684068608503E0606B006840686085FE
:103A3000608D08B320684069C0F3800048B12068F9
:103A40000069C1B2626A501C60621170608D401ED4
:103A5000608520684069C0F3801048B12068006923
:103A6000C1B2626A501C60621170608D401E608538
:103A7000206C40F004002064206C18B12046FFF751
:103A8000EBFA23E0282D03D02A2D01D0292D0DD1CA
:103A90000F48E06200202063202084F83D000020D1
:103AA00084F83E002046FDF75FFE0FE0206B2228E1
:103AB00001D0222D0AD100202063202084F83D006F
:103AC000002084F83E002046FDF78AFE002038BD25
:103AD0000000FFFF1FB51748174908604FF48030FA
:103AE0004860002114488160016181610162C16206
:103AF000124981620021C1600121C161002101637D
:103B000001214161FDF734F818B153210CA001F0F7
:103B1000C7F806200090012001900020029069461D
:103B20000548FCF7A3FE18B15D2105A001F0B8F827
:103B30001FBD000000200140004000200100000FD8
:103B40002E2E2F5372632F6164632E6300000000DA
:103B50001FB51748174908604FF4803048600021AE
:103B600014488160016181610162C1621249816210
:103B70000021C1600121C161002101630121416176
:103B8000FCF7F6FF18B176210CA001F089F80720A8
:103B90000090012001900020029069460548FCF742
:103BA00065FE18B1802105A001F07AF81FBD000064
:103BB00000210140484000200100000F2E2E2F530D
:103BC00072632F6164632E63000000001CB50C4813
:103BD0000C4908600846FDF7B1F818B147210AA062
:103BE00001F05EF80020009001901022694605481F
:103BF000FDF73FF818B1502103A001F051F81CBDAA
:103C000000740040983F00202E2E2F5372632F64C3
:103C100061632E630000000008B500BF0020009023
:103C20000648006840F4001004490860084600682F
:103C300000F40010009000BF00BF08BD3038024003
:103C400000B58FB003220021012002F059FB184972
:103C500008600846006830B100231A461946144827
:103C6000006802F0A7FC142212490AA8FCF737FBEF
:103C700000210AA801F0F6F90F49086014220D4945
:103C8000143105A8FCF72BFB002105A801F0EAF987
:103C90000A4908601422074928316846FCF71FFBCF
:103CA0000021684601F0DEF9054908600FB000BD4B
:103CB00074000020F46C0008680000206C000020F4
:103CC0007000002000B587B000BF0020019081483F
:103CD000006840F010007F4908600846006800F066
:103CE0001000019000BF00BF00BF002001900846F7
:103CF000006840F0040008600846006800F0040016
:103D0000019000BF00BF00BF00200190084600687E
:103D100040F0800008600846006800F080000190D4
:103D200000BF00BF00BF002001900846006840F0BF
:103D3000010008600846006800F00100019000BF23
:103D400000BF00BF002001900846006840F002005C
:103D500008600846006800F00200019000BF00BF44
:103D600000BF002001900846006840F0080008608D
:103D70000846006800F00800019000BF00BF002264
:103D80000C215548FDF71EFB002240F60201534866
:103D9000FDF718FB00224FF480515148FDF712FB4C
:103DA000002220214F48FDF70DFB04200290012046
:103DB000039000200490059002A94748FDF7FEF902
:103DC000082002900120039002200490002005901A
:103DD00002A94148FDF7F2F947F6F370029003207B
:103DE00003900020049002A93B48FDF7E7F94EF24A
:103DF000FF300290032003900020049002A938486D
:103E0000FDF7DCF940F6020002900120039000204B
:103E10000490059002A93148FDF7D0F949F21070DD
:103E20000290032003900020049002A92B48FDF784
:103E3000C5F94FF61F7002900320039000200490F4
:103E400002A92848FDF7BAF94FF40040029000207B
:103E500003900120049002A91F48FDF7AFF948F232
:103E6000FF700290032003900020049002A91E48D6
:103E7000FDF7A4F94FF46050029000200390012058
:103E8000049002A91848FDF799F94FF48040029078
:103E9000002003900220049002A91348FDF78EF938
:103EA0004FF4805002900120039000200490059070
:103EB00002A90B48FDF782F92020029011200390FF
:103EC000012004900020059002A90648FDF776F92C
:103ED00007B000BD30380240001002400000024030
:103EE0000008024000040240000C024010B50C48DB
:103EF0000C4908600C48486000210A488160C16094
:103F00004FF480410161002141618161C161016221
:103F1000FDF796FB18B14C2104A000F0C1FE10BDC6
:103F200000540040AC3F0020A08601002E2E2F53ED
:103F300072632F6932632E630000000010B5002207
:103F400005210C20FDF7F6FC0C20FDF7E6FC002215
:103F50000F210E20FDF7EEFC0E20FDF7DEFC002207
:103F60000F211220FDF7E6FC1220FDF7D6FC0022FF
:103F700005211F20FDF7DEFC1F20FDF7CEFC10BD44
:103F800000B587B04FF0804014490860A820486011
:103F9000002112488160C1600161FEF702F918B189
:103FA00049210FA000F07CFE4FF48050039003A93C
:103FB0000A48FEF798F918B14F2109A000F070FEE9
:103FC00000200190029001A90448FEF7B9F818B149
:103FD000562103A000F064FE07B000BD3841002068
:103FE0002E2E2F5372632F74696D2E630000000014
:103FF00000B587B0154816490860002048600021C8
:1040000013488160C1600161FEF7CBF818B16721E8
:1040100010A000F045FE4FF48050039003A90C4817
:10402000FEF761F918B16D210AA000F039FE0020F9
:104030000190029001A90648FEF782F818B1742198
:1040400004A000F02DFE07B000BD000000040040F9
:10405000744100202E2E2F5372632F74696D2E63CE
:104060000000000010B50B480B4908600B48486081
:10407000002109488160C16001610C21416100217A
:104080008161C161FEF7ECFB18B1502104A000F082
:1040900007FE10BD00440040303E002040420F00AB
:1040A0002E2E2F5372632F75736172742E6300006E
:1040B00010B50C480C4908604FF4E130486000210D
:1040C00009488160C16001610C2141610021816169
:1040D000C161FEF7C5FB18B1632104A000F0E0FD4B
:1040E00010BD000000480040703E00202E2E2F53CF
:1040F00072632F75736172742E63000000BFFEE758
:104100007047000002480068C0F3022070470000BA
:104110000CED00E010B5002807DA0A07140E054A76
:1041200000F00F031B1FD45403E00A07130E024ACA
:10413000135410BD18ED00E000E400E070B5054632
:104140000E46AC79AC2C0CD01F2C01D02F2C05D1F5
:104150000F2094FBF0F0401EF07402E0FA2C00D027
:1041600000BF012231462846FCF7FEF900202871E5
:1041700070BD70B504460D4694F82610601DFCF71E
:10418000DFF9D0B160790D2804D129462046FFF728
:10419000D5FF19E060790C2804DC2946204600F0A0
:1041A00018F811E0607941280EDB607960280BDC9B
:1041B0002946204600F036F806E00222294620462D
:1041C000FCF7D2F9002020710F21601DFCF7A0F848
:1041D00070BD70B504460D46012694F8261060782F
:1041E0000930814201DD032614E0002010E0410087
:1041F000491C621D525CA91D01EB00118A7141002E
:10420000891C621D525CA91D01EB0011CA71401C82
:104210000428ECDB324629462046FCF7A5F90020AD
:10422000207170BD7047000010B507200549087067
:104230000020C870012048708870084600F02CF8F3
:1042400010BD0000703F002010B504460120E07052
:10425000204600F021F804202071E07DC21C04F10A
:1042600014010248FEF740FD10BD0000703E002022
:1042700010B5044694F86B0028B9002208210548BF
:10428000FDF7A0F804E0012208210248FDF79AF8A2
:1042900010BD00000010024010B50446E07830B9AF
:1042A00000224FF480510548FDF78CF804E001220C
:1042B00011030248FDF786F810BD00000008024017
:1042C00000BF012000F0B5FE01F032FCF9E700006C
:1042D00000BF042000F0ADFE1248007940B90F2263
:1042E0001049491D1048FEF711FC01200D490871C5
:1042F0000E480088401C0D4908800846008864214B
:1043000090FBF1F201FB12004FF47A714843FA215D
:1043100090FBF1F00028DCD14FF400610448FDF778
:104320004DF8D6E7703F0020703E00207800002056
:104330000000024000BF00235A1E194606480068CC
:1043400002F00AF8054800790328F4D1044903482B
:10435000FFF70FFFEFE7000074000020703F002020
:10436000CC40002010B500F075FE10BD10B592B025
:1043700000BF002000902F48006840F080502D4979
:1043800008600846006800F08050009000BF00BF41
:1043900000BF002000902848006840F48040264973
:1043A00008600846006800F48040009000BF00BF2D
:1043B000022006900120099010200A9002200C9003
:1043C00000210D9108210E91A8210F910221109139
:1043D0000421119106A8FDF75FFC18B1BA2117A0BE
:1043E00000F05EFC0F20019002200290002003905C
:1043F0004FF4A05004904FF480500590052101A87F
:10440000FDF7EAFA18B1C8210CA000F049FCFDF74D
:10441000C5FB4FF47A71B0FBF1F42046FDF774FE52
:104420000420FDF75DFE00220F21501EFDF782FAE9
:1044300012B010BD40380240007000402E2E2F53A5
:1044400072632F6D61696E2E63000000144800686E
:1044500040F47000124908601248006840F0010002
:104460001049086000200F49083108600D480068B5
:104470000D4908400B4908600C48091D0860081FD9
:10448000006820F48020091F0860002005490C31D5
:1044900008604FF0006002498039086070470000F2
:1044A00088ED00E000380240FFFFF6FE10300024E7
:1044B00010B50248FDF7B1FF10BD0000904000208C
:1044C00010B50248FDF7A9FF10BD000038410020DB
:1044D00010B50248FDF7A1FF10BD00007441002097
:1044E00010B50248FCF7F3FB10BD0000983F002018
:1044F000002202682C4B98420ED0B0F1804F0BD0B6
:104500002A4B984208D02A4B984205D0294B984212
:1045100002D0294B984201D1012300E000231BB1B6
:1045200022F070024B681A431F4B984220D0B0F122
:10453000804F1DD01D4B98421AD01D4B984217D06A
:104540001C4B984214D01C4B984211D01B4B9842E4
:104550000ED01B4B98420BD01A4B984208D01A4BE6
:10456000984205D0194B984202D0194B984201D17C
:10457000012300E000231BB122F44072CB681A43F0
:1045800002608B68C3620B688362074B984202D05B
:10459000094B984201D1012300E000230BB10B69C4
:1045A00003630123436170470000014000040040A1
:1045B00000080040000C00400004014000400140A1
:1045C000004401400048014000180040001C004029
:1045D0000020004030B50C460021816821F47F4165
:1045E00042EA032525432943816030BD0A46002164
:1045F000816821F0700142F0070319438160704720
:1046000030B50B46144600210022026A056A25F0E7
:1046100001050562816921F0F00141EA041122F0EF
:104620000A021A438161026230BD30B50B4614465E
:1046300000210022056A25F0100505628169026AE1
:1046400021F4704141EA043122F0A00242EA03124F
:104650008161026230BD70B50546AC6B0020E0851B
:10466000E0842046FEF754F870BD70B5064600257C
:10467000B46B20684069C0F3C01594F83900212854
:1046800005D125B10020E084204600F0B6F820686E
:104690004069C0F3801594F83A00222805D125B16D
:1046A0000020E085204600F088F8E06B40F0100024
:1046B000E0632046FEF72CF870BD70B50546AC6B84
:1046C0002868006800F48070B0B90020E085206898
:1046D000C06820F480702168C8602068406920F0BC
:1046E0000100216848612068406920F0400021688D
:1046F0004861202084F83A002046FEF791FA70BD08
:1047000070B50546AC6B0020616B0865206B18B175
:10471000206B006D00B170BD0020E084E085E06397
:10472000202084F8390084F83A002046FDF783FF02
:1047300000BFF0E770B50446A56B2846FEF7D2FA35
:1047400070BD70B50546AC6B2868006800F48070D9
:1047500070B90020E0842068406920F08000216862
:1047600048612068C06840F040002168C86002E0ED
:104770002046FEF733FB70BD70B50546AC6B0020DC
:10478000216B0865606B18B1606B006D00B170BD86
:104790000020E084E085E063202084F8390084F87C
:1047A0003A002046FDF747FF00BFF0E770B504462A
:1047B000A56B2846FEF708FC70BD0168C96821F4A6
:1047C00090710268D1600168496921F001010268B5
:1047D0005161202180F83A10704710B504462068D6
:1047E000C06820F040002168C860202084F83900AB
:1047F0002046FEF7F3FA002010BD0168C96821F0D9
:10480000C0010268D160202180F83910704770B56E
:10481000044694F83A00222844D1A068B0F5805F9D
:1048200013D1A56A206940B920684068C0F3080028
:104830002880A06A801CA06219E020684068C0B28D
:104840002880A06A401CA06211E0206938B9206865
:104850004068C1B2A26A501CA062117007E02068D3
:10486000406800F07F01A26A501CA0621170E08DC8
:10487000401E80B2E08598B92068C06820F490702E
:104880002168C8602068406920F001002168486103
:10489000202084F83A002046FEF7C2F9002070BDBF
:1048A0000020FCE70220FAE72DE9F041044600254C
:1048B0002068056925F44055E068054320680561D6
:1048C0002068C56849F20C6085432169A0680843E7
:1048D00061690843E169084305432068C5602068B1
:1048E000456925F44075A069054320684561E06984
:1048F000B0F5004F7ED1C4492068884203D0C34937
:10490000206888425DD1FDF75FF900EBC00101EB43
:10491000001061684900B0FBF1F06421B0FBF1F0D8
:104920000601FDF751F900EBC00101EB00106168D1
:104930004900B0FBF1F7FDF747F900EBC00101EBCF
:10494000001061684900B0FBF1F06421B0FBF1F0A8
:1049500000EBC00101EB0010A7EB8000322101EB5E
:10496000C0006421B0FBF1F000F0F80006EB400657
:10497000FDF72AF900EBC00101EB00106168490066
:10498000B0FBF1F7FDF720F900EBC00101EB0010DF
:1049900061684900B0FBF1F06421B0FBF1F000EB7D
:1049A000C00101EB0010A7EB8000322101EBC00039
:1049B0006421B0FBF1F000F007003044216888600A
:1049C00020E1FDF7F1F800EBC00101EB0010616898
:1049D0004900B0FBF1F06421B0FBF1F00601FDF7F6
:1049E000E3F800EBC00101EB001061684900B0FB87
:1049F000F1F700E045E0FDF7D7F800EBC00101EB6F
:104A0000001061684900B0FBF1F06421B0FBF1F0E7
:104A100000EBC00101EB0010A7EB8000322101EB9D
:104A2000C0006421B0FBF1F000F0F80006EB400696
:104A3000FDF7BAF800EBC00101EB00106168490016
:104A4000B0FBF1F7FDF7B0F800EBC00101EB00108F
:104A500061684900B0FBF1F06421B0FBF1F000EBBC
:104A6000C00101EB0010A7EB8000322101EBC00078
:104A70006421B0FBF1F000F0070030442168886049
:104A8000C0E061492068884203D0604920688842BC
:104A90005CD1FDF799F800EBC00101EB00106168F3
:104AA0008900B0FBF1F6FDF78FF800EBC00101EBD8
:104AB000001061688900B0FBF1F06421B0FBF1F0F7
:104AC00000EBC00101EB0010A6EB8000322101EBEE
:104AD00000106421B0FBF1F000F0F006FDF774F86F
:104AE00000EBC00101EB001061688900B0FBF1F040
:104AF0006421B0FBF1F006EB0016FDF765F800EB62
:104B0000C00101EB001061688900B0FBF1F7FDF70F
:104B10005BF800EBC00101EB001061688900B0FB9D
:104B2000F1F06421B0FBF1F000EBC00101EB0010EB
:104B3000A7EB8000322101EB00106421B0FBF1F003
:104B400000F00F003044216888605BE0FDF72CF82E
:104B500000EBC00101EB001061688900B0FBF1F6C9
:104B6000FDF722F800EBC00101EB0010616889003D
:104B7000B0FBF1F06421B0FBF1F000EBC00101EB00
:104B80000010A6EB8000322101EB00106421B0FB85
:104B9000F1F000F0F006FDF707F800EBC00101EBC3
:104BA000001061688900B0FBF1F06421B0FBF1F006
:104BB00006EB0016FCF7F8FF00EBC00101EB00105C
:104BC00061688900B0FBF1F7FCF7EEFF00EBC00174
:104BD00001EB001061688900B0FBF1F06421B0FBCB
:104BE000F1F000EBC00101EB0010A7EB80003221D7
:104BF00001EB00106421B0FBF1F000F00F00304435
:104C000021688860BDE8F081001001400014014077
:104C1000014691F8390021282CD18868B0F5805FD1
:104C20000FD10A6A1088C0F308000B685860086941
:104C300018B9086A801C086209E0086A401C08620A
:104C400005E00B6A581C086218780B685860C88C1D
:104C5000401E80B2C88458B90868C06820F080003F
:104C60000B68D8600868C06840F040000B68D860E6
:104C7000002070470220FCE710B50248FDF74AFD0E
:104C800010BD0000303E002010B50348FDF742FD86
:104C90000148FDF76DFF10BD703E002000BFFEE72C
:104CA00000BFFEE702E008C8121F08C1002AFAD1BF
:104CB00070477047002001E001C1121F002AFBD19C
:104CC00070472DE9F04104460E46002594F84670E1
:104CD000042E7ED1A01D00EB0710807B02283AD164
:104CE0004FF00708FF2084F85B00FF215C2001558E
:104CF000FD215D20015500215E200155A01D00EB26
:104D0000071001785F20015584F860804FEA282160
:104D100061200155622006551E21632001550021A6
:104D200064200155A01D00EB071081796520015515
:104D3000A01D00EB0710C179662001550C2204F17B
:104D40005B01002000F086FF054667200555290A13
:104D50006820015500BFA01D00EB0710807B0128D3
:104D60003BD14FF00708FF2084F85B00FF215C2057
:104D70000155FD215D20015500215E200155A01D3A
:104D800000EB071001785F20015584F860804FEA3E
:104D900028216120015562200655202163200155FC
:104DA000002164200155A01D00EB071081796520CA
:104DB0000155A01D00EB0710C179662001550C229A
:104DC00004F15B01002000F045FF05466720055512
:104DD00000E003E0290A68200155F9E0052E28D1FA
:104DE0004FF00308FF2084F85B00FF215C20015591
:104DF000FD215D20015500215E200155A01D00EB25
:104E0000071001785F20015584F860804FEA28215F
:104E10006120015562200655082204F15B01002043
:104E200000F018FF054663200555290A6420015546
:104E3000CEE0022E34D14FF00708FF2084F85B004B
:104E4000FF215C200155FD215D20015500215E20E0
:104E50000155A01D00EB071001785F20015584F873
:104E600060804FEA282161200155622006550B2100
:104E7000632001550021642001550421652001555E
:104E80000021662001550C2204F15B01002000F096
:104E9000E1FE054667200555290A6820015597E07F
:104EA000032E31D14FF00608FF2084F85B00FF216C
:104EB0005C200155FD215D20015500215E2001553A
:104EC000A01D00EB071001785F20015584F8608079
:104ED0004FEA282161200155622006550B216320ED
:104EE00001550021642001550221652001550B2246
:104EF00004F15B01002000F0ADFE0546662005557B
:104F0000290A6720015563E0062E28D14FF00308D7
:104F1000FF2084F85B00FF215C200155FD215D200E
:104F2000015500215E200155A01D00EB07100178FE
:104F30005F20015584F860804FEA282161200155E7
:104F400062200655082204F15B01002000F082FE79
:104F5000054663200555290A6420015538E0072ECF
:104F600036D14FF00608FF2084F85B00FF215C205B
:104F70000155FD215D20015500215E200155A01D38
:104F800000EB071001785F20015584F860804FEA3C
:104F9000282161200155032162200155632001551C
:104FA00000216420015594F84610A01D00EB01106B
:104FB0004178652001550B2204F15B01002000F0CF
:104FC00049FE054666200555290A6720015500BFA0
:104FD000BDE8F081FCF712FCFFF7C8F9FEF772FE9E
:104FE000FEF71AFEFEF7F2FDFEF774FDFEF7B0FDC8
:104FF000FEF77CFFFFF736F8FFF75AF8FEF7C0FF21
:10500000FEF7F6FFFEF79AFF054800F0CBFCFFF72E
:105010000BF9FEF715FE00F018F800BFFEE70000E0
:10502000CC40002001460020842901D0CA1C104435
:10503000704770B5044625460DB1294600E00121B0
:10504000084600F053FF002070BD10B501F00EF8C7
:10505000002010BD10B501F067FC012801D001F05F
:1050600035F910BDFEB504460D46B4F90800FFF74A
:10507000D9FF064602A8CDE90060238A9AB22B46E2
:10508000D4E9001001F020FC012801D00020FEBD71
:105090000298FCE72DE9F04105460E461C480768DA
:1050A0001C480068001D00F0F9FD50B9194800685F
:1050B00090F82C1001208840174909688143164850
:1050C0000160681C38B936B112480168091D1348DF
:1050D00000F022FE1AE07C190E4800684460BC42D1
:1050E00007D20C480168091D0D48006800F0FAFD60
:1050F0000CE008480168091D0A48006800F0F2FD4C
:1051000009480068844201D207480460BDE8F08184
:1051100038000020240000203C0000201C3E00201D
:105120002C000020280000205400002010B5044668
:1051300000F0FEFD23480068401C22490860224818
:10514000006840B9204804600846006801280DD175
:1051500000F08EF90AE01D48006838B91A48006866
:10516000C06AE16A884201D817480460184800689C
:10517000401C1749086094F82C10012088401549FC
:105180000968084313490860E16A01EB8101124A8A
:1051900002EB8100211D00F0BFFD00F0F3FD0B4884
:1051A000006868B108480068C06AE16A884207D2AE
:1051B0004FF0805009490860BFF34F8FBFF36F8FE6
:1051C00010BD00003400002024000020400000201A
:1051D000500000203C0000208C3C002004ED00E04A
:1051E00070B523E000F086FF1348006808B901207D
:1051F00000E00020054601F0FBFCBDB900F098FD81
:105200000D48C068C468201D00F048FD0B480068C8
:10521000401E0A4908600A480068401E08490860A4
:1052200000F0B0FD204600F060F800BF04480068C0
:105230000028D7D170BD0000083E002034000020B7
:105240003000002070B504460D46206C70B1216C12
:10525000E0680844E0606168E068884201D3206843
:10526000E0602846226CE168FBF739F870BD2DE953
:10527000F04104460F4615464FF00008A66B206C1F
:1052800040B9206860BB606801F002FC80460020E5
:10529000606025E07DB93946226CA068FBF71FF8F5
:1052A000216CA0680844A060D4E90110884217D39B
:1052B0002068A06014E03946226CE068FBF70FF824
:1052C000216CE068401AE0602168E068884203D2FF
:1052D000216C6068401AE060022D01D106B1761E93
:1052E000701CA0634046BDE8F08110B50446206BF9
:1052F00000F066FD204600F063FD10BD30B54FF4B0
:105300007053174800F007042CB1C01D20F00700AF
:10531000134C041B1B1B0246124C22600024114D2F
:105320006C60D018083820F007000F4C2060002473
:105330000D4D2D686C600C4D2D682C601146441A83
:105340004C60094C24680C60084D4C682C60084D7A
:105350004C682C604FF00044064D2C6030BD0000BE
:105360008C00002000000020080000201000002019
:105370000C0000201400002000BFFFF731FF06489A
:1053800000680128F9D94FF0805004490860BFF344
:105390004F8FBFF36F8FF0E78C3C002004ED00E0EF
:1053A0002DE9F04106460D4617469846069C0DB974
:1053B000246000E02760E66325640121204601F0B7
:1053C000ADF8BDE8F0812DE9FF5F81460F469246BA
:1053D000DDE90E6B109CAAF10100216B01EB800846
:1053E00028F0070808F0070008B9012000E00020B5
:1053F00050B900BF502080F31188BFF34F8FBFF327
:105400006F8F00BF00BFFEE7002507E0795D04F164
:1054100034004155785D00B902E06D1C102DF5D3C4
:1054200000BF002143200155102E00D30F26E66255
:1054300066640020A064201D00F051FC04F11800F7
:1054400000F04DFC2461C6F11000A06164620020F0
:10545000E06484F8500049464046039A00F0B4F9ED
:105460002060BBF1000F01D0CBF80040BDE8FF9FEA
:1054700010B5002407E004EB84010F4A02EB810021
:1054800000F020FC641C102CF5D30C4800F01AFC32
:105490000B4800F017FC0B4800F014FC0A4800F021
:1054A00011FC0A4800F00EFC044809490860044851
:1054B0000849086010BD00008C3C0020CC3D002055
:1054C000E03D0020F43D0020083E00201C3E00206E
:1054D000280000202C00002010B50146164800E0EE
:1054E000006803688B42FBD30246436813448B4237
:1054F00004D143684C682344436001460A464B6824
:1055000013440468A34211D10C4C03682468A342DD
:1055100008D04B680468646823444B6003681B68C8
:105520000B6005E0054B1B680B6001E003680B6036
:10553000884200D0016010BD00000020080000205B
:1055400070B5054600F0F4FBA86B08B9012400E033
:10555000002400F017FC204670BD70B5054600F031
:10556000E7FBA86BE96B884201D1012400E000242D
:1055700000F008FC204670BD0A490968096809B9AD
:10558000012100E0002121B14FF0FF31064A1160F6
:1055900006E004490968C968C868034A416811609F
:1055A0007047000028000020540000200E480068CA
:1055B000401C08B9012000E0002050B900BF502075
:1055C00080F31188BFF34F8FBFF36F8F00BF00BF11
:1055D000FEE700BF502080F31188BFF34F8FBFF369
:1055E0006F8F00BF00BFFEE71800002070B50446B3
:1055F00000F09EFB94F9455010E0606A08B9012064
:1056000000E0002038B904F1240001F0A5FA18B137
:1056100000F09AFC00E003E0681E45B2002DECDCCF
:1056200000BFFF2084F8450000F0ACFB00F080FBD9
:1056300094F9445010E0206908B9012000E00020EE
:1056400048B904F1100001F087FA08B100F07CFCC1
:10565000681E45B200E001E0002DECDC00BFFF2039
:1056600084F8440000F08EFB70BD00002DE9F0418D
:1056700004464FF0000800F03DFD4648006808B9B8
:10568000FFF73CFE44480068204000286BD1D4B1AD
:10569000083404F00700B0B104F00700C0F10800BE
:1056A000044404F0070008B9012000E0002050B9CC
:1056B00000BF502080F31188BFF34F8FBFF36F8F6F
:1056C00000BF00BFFEE7002C4DD034480068844284
:1056D00049D8334E3046056801E02E462D6868688B
:1056E000A04202D228680028F7D12A4800688542E3
:1056F00039D0306800F10808286830606868001BFD
:10570000102819D92F1907F0070008B9012000E067
:10571000002050B900BF502080F31188BFF34F8F95
:10572000BFF36F8F00BF00BFFEE76868001B7860A3
:105730006C603846FFF7D0FE184968680968081A97
:10574000164908600846006816490968884203D26D
:1057500012480068134908600F49686809680843DF
:1057600068600020286001F043FA08F0070008B9DB
:10577000012000E0002050B900BF502080F31188C4
:10578000BFF34F8FBFF36F8F00BF00BFFEE74046F0
:10579000BDE8F08108000020140000200C0000206B
:1057A00000000020100000200648006830B10549C4
:1057B000096801F14800896C491C016001480068D2
:1057C0007047000024000020001F4FF0807303602A
:1057D000001F21F001030360001F054B0360143814
:1057E0000260001F6FF00203036020387047000062
:1057F000AD55000870B504460D466748FCF71CFF20
:10580000D5B9072084F84800012084F86B002046B1
:10581000FEF72EFD04212046FFF753FA0E2204F175
:105820005B015D48FDF7AEFA5C485D490968C862F6
:105830005B48FCF711FDAEE0022D29D194F84A0037
:10584000C8B90C2084F84800012084F86B00204679
:10585000FEF70EFD02212046FFF733FA0E2204F177
:105860005B014D48FDF78EFA4C484D490968C86206
:105870004B48FCF7F1FC00BF94F84A00022803D023
:1058800094F84A000128F7D1002084F84A0082E009
:10589000032D29D194F84A00C8B90D2084F8480096
:1058A000012084F86B002046FEF7E2FC032120462D
:1058B000FFF707FA0D2204F15B013748FDF762FAA2
:1058C000364837490968C8623548FCF7C5FC00BF4F
:1058D00094F84A00022803D094F84A000128F7D12E
:1058E000002084F84A0056E0042D29D194F84A009B
:1058F000C8B90F2084F84800012084F86B002046C6
:10590000FEF7B6FC06212046FFF7DBF90A2204F178
:105910005B012148FDF736FA204821490968C86231
:105920001F48FCF799FC00BF94F84A00022803D0F6
:1059300094F84A000128F7D1002084F84A002AE0B0
:10594000052D28D194F84A00C8B9112084F84800E0
:10595000012084F86B002046FEF78AFC07212046D0
:10596000FFF7AFF90D2204F15B010B48FDF70AFACE
:105970000A480B490968C8620948FCF76DFC00BF7A
:1059800094F84A00022803D094F84A000128F7D17D
:10599000002084F84A0070BD303E002040420F00D5
:1059A0003841002070B50446002084F8480084F88F
:1059B0004900012084F86B002046FEF759FC33486B
:1059C00000F0B0F80020207084F84A003048FCF75E
:1059D00033FE102104F15B00FAF79AFC00252CE05D
:1059E00094F84A0002281BD14F20005D58B10120D5
:1059F00084F849002078401C20704F20025D2078F8
:105A0000401E611C0A54002084F84A00102104F151
:105A10004B00FAF77DFCE9B2204600F03DF80BE0C0
:105A2000002084F84A00102104F14B00FAF770FCC2
:105A3000E9B2204600F030F86D1C042DD0D90020CA
:105A400084F84A0000251DE084F84650601C415D42
:105A5000A01D00EB0510017002212046FFF7CAFED1
:105A6000A01D00EB0510817BA01D00EB051041730C
:105A7000084800EB05100178064800EB051041705E
:105A8000681CC5B22078A842DEDC70BD002D310153
:105A9000303E0020D24000202DE9F04104460E4661
:105AA0004FF0000803250027FF2084F85B00FF214A
:105AB0005C200155FD215D20015500215E2001552E
:105AC0005F200655602005552912612001550121EE
:105AD00062200155082204F15B01002000F0BAF8B1
